:020000040000fa
:080000000002040000000000f2
:020000040000fa
:100400002f9f20000eff20000e018800000000003a
:100410000c000700406d21000100200011000700c2
:10042000000020000000e000020032000000020096
:100430000000000016190200000000000040da0071
:100440000000fe004440a900000220000000e0007f
:100450000300320000002000a00188004440a800f2
:100460000000060091018800800078000000eb0089
:1004700015003700e280400032a0b4009101ba00bc
:10048000e280400032a0b4009102ba00e280400055
:1004900032a0b4000002eb00472bde00f507b200eb
:1004a000602ce10004003a000059eb008301e900f0
:1004b000fdff3e00040037006128e100010032002a
:1004c0000082eb00040007001101ba000200e00006
:1004d000e8ff3a00000006003159ba008301e90044
:1004e0000c0032002159ba008301e90008003200f3
:1004f0000400e00003003a00e280400032a0b400b3
:10050000f5ff370011d9ba008301e900faff3a007c
:100510008100e800e180400032a0b4000000060045
:1005200000000000000000000000000000000000cb
:100530000040da000000fe00881f78000004780008
:100540005001be004000be0004004000858048000d
:100550000601490087814900009cbe000294be004c
:100560000400e1000588e1000690e1000798e10041
:1005700002003100680044001008e8004f047800d1
:1005800000000600f4874700889fbe008a9fbe00d7
:100590008c9fbe008e1f78000205be000004be00c6
:1005a000d4b79f00e5b79f00f6b79f0087bf9f00b5
:1005b0000000eb00c0b79f00b0b79f00a0b79f003e
:1005c00090b79f0080b79f000d042000bfb0970038
:1005d0004fb09700000140000000e0000f003d0018
:1005e0004f08de0000007100c0b79f009e000700aa
:1005f00001003d0012002000a100070001003d00a5
:1006000012002000a6000700b1000700b600070096
:100610000f004000c8ff0700220037004f08de002f
:1006200000067100ccb79f008f00070001003d005d
:10063000120020009200070001003d00120020007f
:1006400097000700a20007000fb297009fb2970023
:100650002fb39700bfb39700a90007000000520016
:1006600081805a0002015b0083815b0080b79f009c
:1006700091b79f00a2b79f00b3b79f000007eb00a0
:100680009f0007000020e10001a8e10002b0e100a6
:1006900003b8e100010031001e0020000e005600ea
:1006a000c0b79f004fb297000400e000070035007c
:1006b00010002000010020006011b8000804700044
:1006c000898470000a0571008b8571008d06e90030
:1006d000beff3a000400e00003003d008200070076
:1006e0000f00400094ff07004fa897000000e000b3
:1006f00004003a000fb497009fb497002fb59700fd
:10070000bfb59700940007004f0778004f06be0062
:100710004f05be004f04be004f01b10000000600af
:10072000881f780018002000881f780095ff0700b8
:100730008f87e9004f04780000000600801feb005f
:1007400090ff07008f87e90000000600889fbe0029
:100750008a9fbe008c1f78006e00070007003d00d6
:1007600073000700e00f5b00e08f5b0007003d00b7
:10077000320007000006eb000400370034000700d9
:1007800002003d002a0007001c0020007200070044
:10079000e3ff07000203be000002be000c00e00001
:1007a00001003200220007000400be000601be0066
:1007b0004f0678004f05be004f04be000000060043
:1007c000889fbe008a9fbe008c1f780051000700e2
:1007d00005003d0056000700e00f5b00e08f5b0066
:1007e00006003d00040037001900070003003d002b
:1007f0006000b8006011b800100007005600070044
:10080000ceff07000203be000002be000c00e000a5
:1008100001003200060007000400be000601be0011
:100820004f0678004f05be004f04be0000000600d2
:100830006000b8006011b8000000370004025000ea
:10084000858258000603590087835900000006007e
:100850000006eb00e00f5200e08f5a00e00f5b0053
:10086000e08f5b00000006000180400090b79f0011
:100870000001eb008fb097000100e00000000600cf
:100880000200700090b79f000180400080b79f0079
:100890000001eb00ffa897000100e0000000060047
:1008a0000200700080b79f00018040006faa97008f
:1008b000cf20de0001007000f0af9f000402420074
:1008c000250007004f18de0000027200000006003d
:1008d000e4af9f000804440089844c000a054d00e1
:1008e0008b854d00000006003fb29700cfb2970005
:1008f0005fb39700efb3970000fe2f0000000600e3
:100900003fb09700cfb097005fb19700efb197006d
:10091000000006000205be000004be00e00f50000b
:10092000e08f5800e00f5900e08f590000000600ea
:100930006000b8006011b8000804500089845800b5
:100940000a0559008b8559001c002000e00f520059
:10095000e08f5a00000006000800be000a01be0039
:10096000000006006022b800060220000000d0004f
:100970008180d2000482d2008582d2000000a000d3
:100980000202520083825a00030031000202420038
:1009900083824a000000a1000603e900f3ff3a0049
:0409a000000006004d
:020000040000fa
:0200000401f009
:04000c00f8ff0000f9
:020000040000fa
:0200000401f009
:040010005bff000092
:020000040000fa
:0200000401f009
:040014007fff00006a
:020000040000fa
:0200000401f009
:04001800ffff0000e6
:020000040000fa
:0200000401f009
:04001c00dfff000002
:020000040000fa
:100008009802000098020000980200009802000080
:100018009802000098020000980200009802000070
:100028009802000098020000980200009802000060
:1000380098020000980200009802000004150000d1
:100048009802000098020000980200008011000049
:10005800e8110000d60b000098020000980200008a
:100068009802000098020000980200009802000020
:100078009802000098020000980200009802000010
:100088009802000098020000980200009802000000
:1000980098020000980200009802000098020000f0
:1000a80098020000980200009802000098020000e0
:1000b80098020000980200009802000098020000d0
:1000c80098020000980200009802000098020000c0
:1000d80098020000980200009802000098020000b0
:1000e80098020000980200009802000098020000a0
:1000f8009802000098020000980200009802000090
:10010800980200009802000098020000980200007f
:10011800980200009802000098020000980200006f
:10012800980200009802000098020000980200005f
:10013800980200009802000098020000980200004f
:10014800980200009802000098020000980200003f
:10015800980200009802000098020000980200002f
:10016800980200009802000098020000980200001f
:10017800980200009802000098020000980200000f
:1001880098020000980200009802000098020000ff
:1001980098020000980200009802000098020000ef
:1001a80098020000980200009802000098020000df
:1001b80098020000980200009802000098020000cf
:1001c80098020000980200009802000098020000bf
:1001d80098020000980200009802000098020000af
:1001e800980200009802000098020000980200009f
:0801f8009802000098020000cb
:020000040000fa
:10020800980200009802000098020000980200007e
:10021800980200009802000098020000980200006e
:10022800980200009802000098020000980200005e
:1002380098020000980200009802000004150000cf
:100248009802000098020000980200008011000047
:10025800e8110000d60b0000980200009802000088
:10026800980200009802000098020000980200001e
:10027800980200009802000098020000980200000e
:1002880098020000980200009802000098020000fe
:1002980098020000980200009802000098020000ee
:1002a80098020000980200009802000098020000de
:1002b80098020000980200009802000098020000ce
:1002c80098020000980200009802000098020000be
:1002d80098020000980200009802000098020000ae
:1002e800980200009802000098020000980200009e
:1002f800980200009802000098020000980200008e
:10030800980200009802000098020000980200007d
:10031800980200009802000098020000980200006d
:10032800980200009802000098020000980200005d
:10033800980200009802000098020000980200004d
:10034800980200009802000098020000980200003d
:10035800980200009802000098020000980200002d
:10036800980200009802000098020000980200001d
:10037800980200009802000098020000980200000d
:1003880098020000980200009802000098020000fd
:1003980098020000980200009802000098020000ed
:1003a80098020000980200009802000098020000dd
:1003b80098020000980200009802000098020000cd
:1003c80098020000980200009802000098020000bd
:1003d80098020000980200009802000098020000ad
:1003e800980200009802000098020000980200009d
:0803f8009802000098020000c9
:020000040000fa
:1009a4000000000001cc000001d800000014000089
:1009b40001f00000003c00000028000001e40000f9
:1009c40001a00000006c00000078000001b40000e9
:1009d40000500000019c0000018800000044000059
:020000040000fa
:1009e4000400fa00000f78001e0078001007980039
:1009f4001e0090000000e00003003d001e00900077
:100a04000000ea00100798001e0090000080fa0021
:100a1400000006001000fa0010198000c500dd0077
:100a240000012c0000804000d0488800404980002c
:100a34000000e80040498800504980000000e800b8
:100a4400504988000cc9bf000004e0002a003a00a5
:100a5400d1488000d04880000182b9004fabde004d
:100a6400cfb3de000400be000601780086017800e2
:100a7400649520005403be004402be0000004200fe
:100a840081804a0002014b0083814b006495200061
:100a9400009abe000292be00f0488000d148800057
:100aa40071079800600798006e019000fe019000a5
:100ab400830f510002003d007e0090006007980003
:100ac400ee009000f148880000498000d248800080
:100ad4005207980040079800ce0190005e009000f5
:100ae400808f510002003400de009000410798001e
:100af4004e01900002498800414980008016200080
:100b0400808f50000b003400e04880000000e000bb
:100b140008003d00d04880000000e00005003500da
:100b2400d0488000e1488000010050000000e0004f
:100b340004003c0041498000803e2000808f50002a
:100b4400300034000cc9bf00e24f50000c003a00e2
:100b5400649520006000b8006011b800009abe00df
:100b64000292be000000eb000049880000498000aa
:100b7400f04888000040eb000ce9b700090037009a
:100b8400f148800000498000008040000080d100ce
:100b940020498800404980001049880010c0b300f3
:100ba4000ce9b700404980001049880010498000d2
:100bb400d04d88000000eb00404988002ec9bf00da
:100bc400e44f50000c003200514d8000803e200064
:100bd400808f5000080034002fc9bf000040e80097
:100be4002fe9b7002fc9bf00f44f500002003600b0
:100bf40040c0b3002ee9b7002ec9bf000000fb00bf
:100c0400604d88004149800000082000808f50001a
:100c14000d003400e04880000000e0000a003400c9
:100c2400d04880000000e00007003c00e04880005d
:100c3400d1488000010050000000e00002003400b0
:100c44000000eb0050498800d0488000e04888004c
:100c5400c04880000000e00006003a0042c4bf0023
:100c6400f043b20001c8b3000140700042e4b70091
:100c740007003700c148800000102000808f50001a
:100c840003003a0042c4bf00f043b20042e4b7009c
:100c94007348800033079800c1488000f0072000a3
:100ca400808f500007003c00c04880008000400056
:100cb4000080200000804000100078002007980089
:100cc40026003700c1488000f00f2000808f5000bc
:100cd40009003c00c14880000010200001005000c1
:100ce4008000400000802000008040001000780058
:100cf4001007980017003700c1488000f017200043
:100d0400808f500009003c00c148800000f02f0093
:100d140000804000800040000080200000804000ef
:100d240010007800000f780008003700c1488000e8
:100d340000202000010050008000400000802000be
:100d44000080400010007800000f78001e0078003a
:100d5400100798009e009000210798002e01900033
:100d6400be0190000390b9004109dd004f00de0090
:100d740000007100cf88de0030228800c048800067
:100d84000000e80002202000110009000200d80041
:100d94008000fd00c04888000603a9000080fa0016
:100da400000006000a00fa0020198000c500dd00da
:100db40000012c000080400090498800d049800048
:100dc4000000e800d0498800404a80000000e800a4
:100dd400404a88000dc9bf000004e0002a003a0020
:100de40091498000904980000182b9004fabde0038
:100df400cfb3de000400be0006017800860178004f
:100e0400e49420005403be004402be0000004200eb
:100e140081804a0002014b0083814b00e49420004e
:100e2400009abe000292be00b04980009149800041
:100e340041079800300798003e009000ce009000d3
:100e4400810f500002003d004e00900030079800d2
:100e5400be009000b1498800c049800091498000db
:100e640021079800100798001e009000ae00900023
:100e7400810f5000020034002e00900010079800eb
:100e84009e009000c1498800d149800000082000dc
:100e9400808f50000d003400a04980000000e00065
:100ea4000a003400904980000000e00007003c0084
:100eb400a049800091498000010050000000e0003a
:100ec400020034000000eb00404a8800d149800051
:100ed40080162000808f50000b003400a049800051
:100ee4000000e00008003d00904980000000e000a0
:100ef4000500350090498000a149800001005000a0
:100f04000000e00004003c00d1498000803e200045
:100f1400808f500038013400d0498000e0498800b7
:100f24000000eb00d04988000dc9bf00e24f50001b
:100f34000c003a00e49420006000b8006011b8008e
:100f4400009abe000292be000000eb00c049880077
:100f5400c0498000b04988000040eb000de9b700ab
:100f640007003700b1498000c0498000008040007c
:100f74000080d100f049880010c0b3000de9b7002b
:100f84004dc9bf000000fb00000f78001e00780070
:100f9400e10f50001a0032009e007800e48f5000e8
:100fa400570032001e0078000000e000010032000b
:100fb4000c013700104a80000000e800104a880045
:100fc400104a8000ea0f50000601340010c0b3003c
:100fd4004de9b700007e240001002000104888007d
:100fe40021488800007e2400010020003048880049
:100ff400414888000000eb00104a8800f9003700df
:10100400e149800000202000808f50000e00340051
:10101400124880002348800070a3240001002000af
:10102400800f5100818f590023003c00104880003c
:101034002148800061004000e0804800104888009a
:10104400214888001c003700e1498000d01f20009f
:10105400808f50000e003c0012488000234880001e
:101064008026240001002000800f5100818f590048
:1010740011003400104880002148800061005000b5
:10108400e080580010488800214888000a00370092
:101094004cc9bf000040e8004ce9b7004cc9bf0090
:1010a400ea4f50000400360040c0b3004de9b700d9
:1010b4000040eb004ce9b700124880002348800050
:1010c400c045240001002000800f5100818f590089
:1010d400c4003400124880002348800070a3240018
:1010e40001002000800f5100818f5900bd003c0099
:1010f400104880002148800040218800b900370052
:10110400e1498000703e2000808f50000a003400c6
:10111400204a80000000e800204a8800204a80001d
:10112400ea0f5000040034000040eb004de9b70022
:101134000000eb00204a8800e149800000202000e4
:10114400808f500011003400124880002348800032
:1011540070a3240001002000800f5100818f5900ea
:1011640006003c00104880002148800061004000d7
:10117400e08048001048880021488800104880001a
:10118400214880004021880014003700e149800094
:10119400f01f2000808f500010003c001248800097
:1011a400234880008026240001002000800f510085
:1011b400818f5900060034001048800021488000c7
:1011c40061005000e08058001048880021488800e1
:1011d4001048800021488000402188002ec9bf00ab
:1011e400e44f50007f003a001048800021488000fe
:1011f4000001780030488000414880000000510020
:10120400f7fd07008000780010032000808f500055
:101214003a003c0051498000404a80000080500060
:10122400604e8800604e8000edfd07000000e00085
:101234005b003400614e800000082000808f500065
:101244000200340000082000604e8800614e8000d7
:1012540000f82f00808f500002003d0000f82f009e
:10126400604e8800614e8000704e80000080500007
:101274006101b9003048800041488000020040000c
:10128400838048003048880041488800604e8000d0
:10129400e20f5000070034003048800041488000cd
:1012a40061004000e08048003048880041488800e0
:1012b40009003700604e8000e20f400006003d0048
:1012c400304880004148800061005000e0805800b0
:1012d4003048880041488800604e8000a04d880056
:1012e400704e8000904d8800f04a8000704d880058
:1012f400604e8000704e880029003700324880001c
:10130400434880001048800021488000800f51002d
:10131400818f59000e003d00324880004348800010
:1013240070a3240001002000800f5100818f590018
:101334001b003c00304880004148800061004000b0
:10134400e080480030488800414888001400370095
:1013540032488000434880001048800021488000c3
:10136400800f5100818f59000d00340032488000f5
:10137400434880008026240001002000800f510093
:10138400818f5900060034003048800041488000b5
:1013940061005000e08058003048880041488800cf
:1013a4003248800043488000802624000100200049
:1013b400800f5100818f59000a00340032488000a8
:1013c4004348800070a3240001002000800f5100d6
:1013d400818f590003003c00304880004148800060
:1013e40040228800e0498000c04d88004dc9bf00fc
:1013f4000000fb00404d880090498000a04988000f
:101404000623a9000080fa00000006000000fa008c
:1014140001e3a90001a3a9000183a8000103a90015
:1014240000e3a80000c3a90000a3a9000083a8004a
:10143400013020009140780080cfb30000c06000ec
:101444005040b30000e3b7000000eb003018880000
:101454000203a9000223a900a130200091407800d2
:1014640000ceb30000c060005040b3000ae3b700f0
:101474000ae3a8000243a9000263a900b1302000d6
:101484009140780000ceb30000c060000024a000aa
:101494000be3b7000be3a800a10a200091407800f9
:1014a400f0c8b30000c060000044a000aae0b70088
:1014b40085a0a90095a0a800c0502000904e8800e7
:1014c400406d2000b04e8800209d20004018880008
:1014d4000080fa00000006000000fa0001e3a80002
:1014e4000080fa00000006000000fa002124a80091
:1014f40020c4bf00f043b20020e4b7002044a80099
:1015040023e4a80023c4a8003142200091407800bd
:1015140030cfb30000c0600023e4b70022c4bf0092
:10152400f043b20022e4b7002324a8002304a80057
:101534000000eb0060218800007e24004021880028
:10154400003f220030218800003f220090218800c3
:10155400003f2200b021880034e4a80035c4bf0055
:101564006f4060000044a00035e4b7004143200010
:101574009140780000ccb30000c0600034e4b700b0
:1015840030002000202188004124a80040c4bf006e
:10159400f043b20040e4b7004044a80043e4a8008c
:1015a40043c4a80043a4a8004384a80031442000f5
:1015b4009140780030cfb30000c0600043e4b7002e
:1015c40042c4bf00f043b20042e4b7004204a800a2
:1015d4004324a8004304a8000000eb006022880014
:1015e400007e240040228800007e240030228800ef
:1015f400003f220090228800003f2200b022880091
:1016040054e4a80055c4bf006f4060000044a0002b
:1016140055e4b700414520009140780000ccb30068
:1016240000c0600054e4b70030002000202288008d
:101634000080fa00000006000000fa0001e4a8009f
:101644002324a9002304a9004304a9000080fa006c
:10165400000006001400fa002007980031079800e3
:10166400c1488000f0072000808f500007003c0034
:10167400c0488000800040000080200000804000be
:1016840010007800100f980026003700c148800031
:10169400f00f2000808f500009003c00c1488000fa
:1016a4000010200001005000800040000080200055
:1016b4000080400010007800000f980017003700e9
:1016c400c1488000f0172000808f500009003c00c2
:1016d400c148800000f02f000080400080004000de
:1016e40000802000008040001000780070079800ff
:1016f40008003700c148800000202000010050008d
:10170400800040000080200000804000100078002d
:10171400700798007e009000000f98008e089000db
:10172400110f98003e0090001e0990000090b9002f
:101734004109dd004f00de0000007100cf88de00ab
:10174400008fbe001048800021488000be0f1000aa
:10175400ae8f18000e003c001e00be00400798002b
:10176400510798004e009000de009000e00f5000fa
:10177400e08f580003003d006000b8004007980067
:1017840051079800ce0090006107980003003700cd
:101794001048800021488000600798006e00900087
:1017a4000080fa00000006003600f800809fbe00aa
:1017b400829fbe00849fbe00869fbe000000fa0088
:1017c40085a0a900401880001000780000000100e6
:1017d4000080fa004f03be004f02be004f01be005e
:1017e4004f00be003600f900004006000000fa0079
:1017f4000cc9bf00e14f500030003a006095200052
:101804005001be004000be0014498000cfa2de009b
:101814000503780086037800c0fb07006495200068
:10182400009abe000292be00609520005001be00e6
:101834004000be00fe050700c04e8800314980000c
:10184400909927000088b9004109dd004f00de00af
:1018540000007100cf88de0000017800c14e8000d6
:10186400606620000088b900c109dd004f00de0079
:1018740000807100cf88de000000410030498800fc
:10188400649520006000b8006011b800009abe00a2
:101894000292be0031498000b07722000088b9006e
:1018a4004109dd004f00de0000007100cf88de003a
:1018b400504d880020c0b3000ce9b7000dc9bf002b
:1018c400e14f500030003a00e09420005001be0087
:1018d4004000be00e4498000cfa2de00050378008a
:1018e400860378008dfb0700e4942000009abe0074
:1018f4000292be00e09420005001be004000be00f1
:10190400cb050700c04e8800014a8000909927004b
:101914000088b900c109dd004f00de0000807100bd
:10192400cf88de0000017800c14e80006066200090
:101934000088b900c109dd004f00de00008071009d
:10194400cf88de0000004100004a8800e4942000b3
:101954006000b8006011b800009abe000292be0098
:10196400014a800060d124000088b9004109dd00eb
:101974004f00de0000007100cf88de00304d88008b
:1019840020c0b3000de9b7000080fa000000060093
:101994000400fa00c9e2a900cbe2a900c8a2a80089
:1019a400cea2a8000080fa00000006000800fa0099
:1019b400c8a2a800caa2a8000000eb003007980043
:1019c40004003700000000003e0090000000e80022
:1019d40030079800be00900010032000808f500054
:1019e400f8ff3400c9e2a900cbe2a8000000eb0034
:1019f4002007980004003700000000002e0090002b
:101a04000000e80020079800ae00900010032000ba
:101a1400808f5000f8ff3400c8a2a900caa2a90010
:101a24000000eb00100798000400370000000000dd
:101a34001e0090000000e800100798009e0090002f
:101a440010032000808f5000f8ff3400c9e2a90081
:101a5400cbe2a9000000eb00000f78000200370081
:101a6400000000001e0fe800100320009e0f10006d
:101a7400fbff34000080fa00000006000800fa00b2
:101a8400c8a2a900caa2a9000000eb003007980070
:101a940004003700000000003e0090000000e80051
:101aa40030079800be00900010032000808f500083
:101ab400f8ff3400c9e2a900cbe2a8000000eb0063
:101ac4002007980004003700000000002e0090005a
:101ad4000000e80020079800ae00900010032000ea
:101ae400808f5000f8ff3400c8a2a800caa2a80042
:101af4000000eb001007980004003700000000000d
:101b04001e0090000000e800100798009e0090005e
:101b140010032000808f5000f8ff3400c8a2a800f2
:101b2400cea2a8000080fa00000006000c00fa0013
:101b34000040eb00204f9800c9e2a900cbe2a900c5
:101b4400c8a2a800cea2a800c9e2a900cbe2a800be
:101b54000000eb002007980004003700000000009c
:101b64002e0090000000e80020079800ae009000ce
:101b740010032000808f5000f8ff3400cac2bf0059
:101b84000080fb004500de0061406000204f9800ab
:101b9400c9e2a900cbe2a9000000eb0010079800fd
:101ba40004003700000000001e0090000000e80060
:101bb400100798009e00900010032000808f5000b2
:101bc400f8ff3400c8a2a800caa2a8002e489000ba
:101bd4000000fb000080fa00000006000600fa0086
:101be400c8a2a900caa2a9000000eb00200798001f
:101bf40004003700000000002e0090000000e80000
:101c040020079800ae00900010032000808f500041
:101c1400f8ff3400c9e2a900cbe2a8000000eb0001
:101c24001007980004003700000000001e00900018
:101c34000000e800100798009e00900010032000a8
:101c4400808f5000f8ff3400c9e2a900cbe2a9005c
:101c54000000eb00000f78000200370000000000d5
:101c64001e0fe800100320009e0f1000fbff34003d
:101c74000080fa00000006000600fa00c8a2a800ce
:101c8400caa2a8000000eb00200798000400370057
:101c9400000000002e0090000000e80020079800db
:101ca400ae00900010032000808f5000f8ff340035
:101cb400c9e2a900cbe2a8000000eb0010079800dd
:101cc40004003700000000001e0090000000e8003f
:101cd400100798009e00900010032000808f500091
:101ce400f8ff3400c9e2a900cbe2a9000000eb0030
:101cf400000f780002003700000000001e0fe8000b
:101d0400100320009e0f1000fbff34000080fa0037
:101d1400000006000e00fa00404f9800c9e2a90036
:101d2400cbe2a9000000eb00400798000400370054
:101d3400000000004e0090000000e80040079800fa
:101d4400ce00900010032000808f5000f8ff340074
:101d54000040eb00204f98003e0037004e489000b2
:101d64008080fb002e4890000080fb000008dd000e
:101d74004700de00610060000004e0000e00320055
:101d8400c8a2a800caa2a8000000eb00300798006f
:101d940004003700000000003e0090000000e8004e
:101da40030079800be00900010032000808f500080
:101db400f8ff34000d003700c8a2a900caa2a90088
:101dc4000000eb002007980004003700000000002a
:101dd4002e0090000000e80020079800ae0090005c
:101de40010032000808f5000f8ff3400c9e2a900de
:101df400cbe2a8000000eb001007980004003700b5
:101e0400000000001e0090000000e8001007980089
:101e14009e00900010032000808f5000f8ff3400d3
:101e2400c9e2a900cbe2a9000000eb00000f780092
:101e340002003700000000001e0fe800100320001d
:101e44009e0f1000fbff34002e4890000040e80075
:101e5400204f98002e489000e74f5000bfff3600f7
:101e64000080fa00000006000a00fa000040eb00bf
:101e7400004f9800c8a2a800cea2a800c9e2a900f9
:101e8400cbe2a9000000eb00200798000400370013
:101e9400000000002e0090000000e80020079800d9
:101ea400ae00900010032000808f5000f8ff340033
:101eb4000040eb00104f980024003700c9e2a9004d
:101ec400cbe2a8000000eb001007980004003700e4
:101ed400000000001e0090000000e80010079800b9
:101ee4009e00900010032000808f5000f8ff340003
:101ef4000e48900000404000004f9800cac2bf0046
:101f04000042b2000004e000030032000e489000da
:101f14000040e800004f9800c9e2a900cbe2a90004
:101f24000000eb00000f7800020037000000000002
:101f34001e0fe800100320009e0f1000fbff34006a
:101f44001e4890000040e800104f98001e48900082
:101f5400e74f5000d9ff36000e4890000080fb0088
:101f64000080fa00000006000400fa00004f780028
:101f7400114798008dfe070000cab30065ff0700f3
:101f8400eafe07000004e000030032000000eb005a
:101f9400100798000d0037001e4078005dff070011
:101fa400e2fe07000004e000030032000000eb0042
:101fb40010079800050037001e40900055ff0700e9
:101fc400aefe070010002000100798001e009000cd
:101fd4000080fa00000006000a00fa00204798007a
:101fe400210798006247980070fe070000cab300fa
:101ff40048ff0700cdfe07000004e00003003200a4
:102004000000eb00400798001e0037002e409000af
:1020140040ff0700c5fe07000004e0000300320093
:102024000000eb0040079800160037000040eb006a
:10203400004f78000d0037002e009000104078000b
:1020440034ff0700b9fe07000004e000030032007b
:102054000000eb00400798000a0037002e009000b3
:102064000000e800200798001e4fe8006e40900032
:102074009e4f1000f0ff390080fe07001000200082
:10208400400798004e0090000080fa00000006000f
:102094000600fa00204798000040eb00004f78004b
:1020a40042fe070000cab3001aff07009ffe0700a4
:1020b4000004e00003003a000000eb002007980051
:1020c400180037002e40900012ff070097fe07000b
:1020d4000004e000030032000000eb002007980039
:1020e4001000370065fe070030fe070010cab30079
:1020f40008ff07008dfe07000004e0000300320023
:102104000000eb00200798000600370056ff070088
:10211400004f7800d8fe070058fe07001e80fb0021
:10212400200798002e0090000080fa0000000600ae
:102134000a00fa0020479800210798006247980097
:102144001afe070000cab300f2fe070077fe07007c
:102154000004e000030032000000eb004007980098
:102164002b0037002e409000eafe07006ffe0700a8
:102174000004e000030032000000eb004007980078
:102184002300370009fe070010cab300e1fe070070
:1021940066fe07000004e000030032000000eb00cc
:1021a400400798001a0037000040eb00004f780009
:1021b400090037002cff0700804078002e009000b3
:1021c4000148780085fe07002e0090000000e8001a
:1021d400200798001e4fe8009e80fb006e40900090
:1021e4000080fb000000e900808f5000f1ff350003
:1021f4001dff0700804078002e0090000148780001
:102204009dfe07001dfe07001000200040079800f7
:102214004e0090000080fa00000006000000fa0062
:1022240021e2a800012220009140780090cfb30061
:1022340000c060000024a00020e2b7002002a90032
:102244000000eb00101188002010200040118800cd
:102254009560a8009580a80022c2bf00f043b20098
:1022640022e2b70023e2a90023a2a800016e200005
:102274009140780000ccb30000c060003040b3004f
:10228400e0e6b700416a20009140780000ccb3003a
:1022940000c06000d041b300a4e6b7000040eb00ea
:1022a400eae9b7000040eb00ebe9b7000080fa0070
:1022b400000006000000fa00714f8000401f20005b
:1022c400808f50000500360010c0b300a4e9b700a9
:1022d4000000eb00704f880006003700704f80004c
:1022e4000000e00003003200704f80000000e800ae
:1022f400704f88000080fa0000000600809fbe0036
:10230400829fbe000200fa008560a9001000200030
:10231400704f88002500370030118000000f7800ce
:10232400eac9bf000004e00010003200a19e2000b2
:1023340091407800f0c3b30080cf50000b003e0002
:10234400a29e2000124178008281fb001e007800ca
:102354008040780000962000008041000148780009
:102364000240e800eae9b70010003700200020002e
:102374009e0f10000b003a00a29e2000124178002c
:102384008281fb001e0078008040780000962000c7
:1023940000804100014878000240e800eae9b70003
:1023a400020037000040eb00eae9b70022c2bf0098
:1023b400614060000004e000d7ff3a000080fa00aa
:1023c4004f01be004f00be0000400600809fbe00cb
:1023d400821f78000000fa008580a900c19e2000b9
:1023e40091407800ebc9bf0080cf50000500310058
:1023f400c19e200091407800f0c3b30080cf50000c
:102404000e0036000040eb00ebe9b7002342a900c0
:10241400d4c2bf000080fb004700de0000c0ea0019
:1024240061406000c700dd00d4c2bf000074a10099
:1024340001407000d4e2b7000a003700c29e2000b9
:10244400124178008280fb0000962000008040004a
:10245400104078000080fb00201188000240e80052
:10246400ece9b7000080fa004f0178004f00be008d
:10247400004006000000fa002342a8000040eb00e0
:10248400ece9b700c29e2000124178008280fb0074
:102494000096200000804000104078000080fb007f
:1024a400201188000240e800ece9b7000080fa003f
:1024b400000006000800fa00200798006147980011
:1024c4000080eb00100798000040eb0010479800d4
:1024d400220037002e009000104f78002e0090004c
:1024e4000000e800200798009e80fb001e0090007a
:1024f400008068006f00600080004000204d2800cc
:1025040000804000900078001e0090004400de002f
:1025140000806800100798001e80fb004400de0065
:102524008080fb001e009000008068006f00600047
:1025340080004000204d280000804000900078007a
:102544001e0090004400de00008068001007980020
:102554001e4090000040e800104798009e40900004
:102564006e40900080cf5000daff39001e009000ca
:102574000080fa00000006000200fa00000f780054
:102584001e007800c800de004800dd000100700075
:102594000080fa00000006000a00fa0020079800f4
:1025a400310798000040eb00204798003e0090005f
:1025b4000000400062e9b7002e009000eb0f5000cd
:1025c40034003c002e009000be009000010040004a
:1025d400ec0f50002f003c000040eb003047980007
:1025e400240037003e4090000080fb00630140005f
:1025f4002e00900000004000800078003e409000d3
:102604000080fb0080804000609a20000000e80009
:102614000080400010407800804078000096200040
:1026240000004100014878003e4090000080fb001b
:10263400640140002e0090000000400080007800fb
:102644003e4090000080fb0080804000609a2000a3
:102654000080400010407800804078000096200000
:1026640000004100014878003e40900000c0e800ae
:102674003047980021962000914078003e40900019
:1026840080cf5000d7ff3e0010c0b3002047980011
:1026940016003700ae009000f0ff2300808f50003a
:1026a40012003400ae0090003e0090008080400094
:1026b40000012400808f50000c003c00ae0090000c
:1026c40000002c0000804000200798002296200083
:1026d40012417800319620002e0090000000400046
:1026e40093fe070010c0b300204798002e409000ce
:1026f4000004e0001c00320062c9bf0063404000d7
:1027040080407800009620006aff0700000f7800e0
:1027140062c9bf000080fb00630140001e00780016
:1027240080407800009620000000410001487800b5
:1027340062c9bf000080fb00640140001e007800f5
:102744004800de0080407800009620000000410030
:102754000148780062c9bf00654040000080fb006a
:1027640040079800020037000000eb004007980083
:102774004e0090000080fa00000006000600fa00f7
:1027840010079800210798002e0090007aff070098
:10279400000f78009e009000f0ff2300808f50000f
:1027a4000d0034009e00900000012400808f500032
:1027b40009003c009e00900000002c0000804000b6
:1027c400100798008e0078001e0090000000400062
:1027d40022c0b30000fe0700eac9bf000080fb006e
:1027e4000080fa00000006000a00fa0010079800b2
:1027f40021079800320798009e009000f0ff230004
:10280400808f50001d0034009e0090002e00900028
:1028140080804000f0002400808f500017003c00ae
:102824009e00900000002c000080400010079800db
:102834002e00900000004000004178001e0090002f
:1028440000004000be009000e3fd070061c0b3003b
:102854000096200017ff0700000f78001e00780084
:1028640066e9b7001e0078004800de0067e9b7009b
:102874008000200040079800020037000000eb00b1
:10288400400798004e0090000080fa000000060007
:102894000600fa00a4c9bf00e14f500042003a000c
:1028a4000040eb00a4e9b700a19e2000914078000d
:1028b40000962000fffe07000000e00037003a0009
:1028c40062c9bf000080fb004800dd0010079800cb
:1028d40063c9bf008080fb001e00900001007000ef
:1028e4001007980064c9bf000080fb004800dd00a9
:1028f400000f780065c9bf000080fb001e0f700048
:1029040061c9bf000080fb00200798002e009000e2
:10291400e40f500004003c002e009000e30f500030
:102924000f003d001d0037002e009000ef0f5000f7
:102934001a0032002e009000ef0f500004003c00fb
:102944002e009000e60f500014003c0009003700f0
:102954002e009000f00f50000b0032000f003700e3
:102964009e0078001e0090000bff0700ebe9b70003
:102974000a0037009e0078001e0090007fff0700c9
:10298400ebe9b70005003700729620009e0078003e
:102994001e00900094ff0700ebe9b7000040eb0035
:1029a400eae9b700b3fe07000080fa000000060061
:1029b4000000fa000111200091407800f0ccb3002f
:1029c40000c0600010e1b70000fa20006008880031
:1029d400710a200091407800f0c8b30000c0600084
:1029e40001c4b30001407000a7e0b70094e0a80060
:1029f40011e1a80040002000804f88000080fa0008
:102a0400000006003600f800809fbe00829fbe00d2
:102a1400849fbe00869fbe000200fa00d14e800053
:102a240080bb2000808f50000c0034000000eb00bd
:102a3400d04e8800d4c2bf000080fb004700de00f7
:102a440000c0ea0061406000c700dd00d4c2bf00de
:102a54000074a10001407000d4e2b700d04e8000a1
:102a64000000e800d04e8800514a8000404e8000ab
:102a7400614060000080fb0000804000504a8800f4
:102a840061498000404e80000000d1006140600038
:102a94000080fb00008040006049880005fe0700bc
:102aa400804f8000000f78001e007800e20f500075
:102ab400530032001e007800e20f500007003c0073
:102ac4001e0078000000e0000b0032001e007800b9
:102ad400e10f500089003200a00037001e0078008a
:102ae400e30f50009d0032001e007800e40f5000f8
:102af40083003200990037000040eb0030e9b70052
:102b04004dc9bf00e44f50002f003a00314d800002
:102b1400007d2000808f5000200034007148800028
:102b240060eb2700808f50000a003c00514d80006c
:102b3400304d8000808f500006003d0070488000ba
:102b44000000e800704888006000b800004f88006a
:102b5400114f8800004f8000114f80006100400039
:102b6400e0804800004f8800114f8800024f800029
:102b7400134f80000053270001002000800f5100f4
:102b8400818f5900050034006000b800004f8800b0
:102b9400114f880020002000804f8800d4c2bf005d
:102ba4000080fb004700de0000c0ea0061406000d6
:102bb400c700dd00d4c2bf000074a1000140700052
:102bc400d4e2b700650037007148800060eb27004d
:102bd400808f500004003c00704880000000e80032
:102be400704888005d0037006000b800004f88001e
:102bf400114f880020002000804f880057003700c4
:102c04004dc9bf00e44f500054003a0071488000a1
:102c140060eb2700808f500003003c007048800068
:102c24000000e8007048880071488000d0cc200083
:102c3400808f500003003400704880000000e900d9
:102c440070488800ccc2bf00684060000004e00007
:102c540042003200d14e8000007d2000808f500061
:102c64000e003a00d4c2bf000080fb004200de0028
:102c74006140600000c0ea006140600061406000a3
:102c84004201dd00412d200091407800b0cfb30017
:102c940000c0600002407000d4e2b70030c9bf0039
:102ca400e44f50002d003400004f8000114f80008d
:102cb40061004000e0804800004f8800114f880008
:102cc400024f8000134f80000053270001002000b2
:102cd400800f5100818f5900200034006000b8003b
:102ce400004f8800114f8800cc62a900d4a2a9002b
:102cf400d4e2a900d442a900180037001700370015
:102d04000000eb0070488800e04e8000f14e800027
:102d140061004000e0804800e04e8800f14e8800e9
:102d2400e24e8000f34e800000a62e000100200039
:102d3400800f5100818f5900080036006000b800f0
:102d4400e04e8800f14e8800cc82a900cc62a90034
:102d5400d4a2a9000000eb00804f88004dc9bf0039
:102d6400e44f500003003a0010c0b300bee9b700be
:102d7400020037000040eb00bee9b7000000eb00a2
:102d84003008880084e0a9000080fa004f03be00e8
:102d94004f02be004f01be004f00be003600f900d6
:042da40000400600e5
:020000040000fa
:102da8000008000060010000020000000000c900e7
:102db800009201005b02230003ec0300b5047d00d0
:102dc800054506000d07d500079c080064092a0080
:102dd8000af10a00b60b7c000c410d00050ec90073
:102de8000e8c0f004f10110011d3110094125400d3
:102df80013131400d1148f00154c16000817c300c4
:102e0800177d18003719ef0019a61a005d1b12006c
:102e18001cc61c00791d2b001edc1e008b1f3900f0
:102e280020e7200092213d0022e622008e23340074
:102e380024da24007d251f0026c026005f27fd0018
:102e4800279928003429cd0029652a00fa2a8e00fe
:102e58002b212c00b22c41002dce2d005a2ee30040
:102e68002e6b2f00f12f760030f830007931f70003
:102e780031743200ee32670033de33005334c6005b
:102e880034363500a5351200367c3600e5364b0061
:102e980037af37001138710038cf38002a3983002e
:102ea80039da39002f3a82003ad23a00203b6c00d6
:102eb8003bb63b00fd3b42003c843c00c53c020065
:102ec8003d3e3d00773dae003de23d00143e4400ee
:102ed8003e713e009c3ec5003eeb3e000e3f2f007b
:102ee8003f4e3f006a3f84003f9c3f00b13fc30014
:102ef8003fd33f00e13fec003ff43f00fb3ffe00c3
:102f08003f004000e047000000e0470000000000ec
:102f180000030300000000000000000000000000a3
:102f28000000000000000000000000000000000099
:102f38000000000000000000000000000000000089
:102f48000000000000000000000000000000000079
:102f58000000000000000000000000000000000069
:102f68000000000000000000000000000000000059
:102f78000000000000000000000000000000000049
:102f880000000000ca090000100000000000000056
:102f9800e409000006000000020000000000000034
:102fa80000000000da0900000a000000020000002a
:102fb8000000000000000000000000000000000009
:102fc800f00900000200000000000000ea0900000b
:102fd80006000000020000000000000000000000e1
:102fe800600900004600000000000000a60900007b
:102ff80024000000020000000000000000000000a3
:1030080000000000000000000000000000000000b8
:1030180000000000000000000000000000000000a8
:0c3028000000000000000000000000009c
:020000040000fa
:103034000c00fa0030079800410798003e00900009
:10304400ce009000e00f5000e08f580003003a00db
:103054000000eb0050079800430037003e01900049
:10306400ce0190000000200001042000800f5100d8
:10307400818f59000b003e003e009000ce0090006e
:103084004609dd004a00de0000007100ca08de00c7
:10309400f203200003002000021f400003974800b1
:1030a4001c0037003e019000ce019000000020007b
:1030b40001802000800f5100818f59000b003e00d9
:1030c4003e009000ce009000c409dd004c00de00fc
:1030d40000807100cc08de00f20f20000300200005
:1030e400021f4000039748000a0037003e0090008a
:1030f400ce009000c209dd004e00de0000807100a9
:10310400ce08de00f23f200003002000021f400032
:10311400039748000000eb00200798000d003700db
:103124001e01be003e009000ce0090000cf6070089
:103134003e014000ae8148000200be008100d10083
:103144000080d300008fbe002e0090000000e80035
:10315400200798002e009000e40f5000f0ff360086
:103164009e017800530798005e0090000080fa00ea
:10317400000006000000fa0090022000303a8800a7
:1031840044c7bf00f043b20044e7b70041742000d5
:103194009140780000ceb30000c0600044e7b7005f
:1031a4001200200081072000a009200033742000b1
:1031b4008149780080497800824978001200200013
:1031c40061042000700520002374200081497800e8
:1031d400804978008249780043c7bf000047b200a5
:1031e400f04f5000fcff3a0042c7bf000042b2005b
:1031f4000004e000fcff320050c7a80051a7a8005b
:1032040051c7bf007040b30051e7b70051e7a800b1
:1032140051c7bf000044b2000004e000fcff3200cc
:103224000080fa00000006000000fa006000b80008
:10323400004f8800114f8800d042a900d0e2a900b5
:10324400c862a900c882a900d0a2a900cc62a800c3
:10325400cc82a800d4a2a800c6ff0700d4fd0700b2
:10326400eefb070069f807009bf807009ef80700cb
:10327400f1f80700c6f90700d4e2a8001000200006
:1032840001002000e04e8800f14e88000000eb00b1
:10329400704888007efd070054f90700fdff3700e1
:00000001FF
