:020000040000fa
:080000000002040000000000f2
:020000040000fa
:10040000afab20000eff20000e01880000000000ae
:100410000c00070040272200010020001100070007
:10042000000020000000e000020032000000020096
:1004300000000000a0250200000000000040da00db
:100440000000fe004440a900000220000000e0007f
:100450000300320000002000a00188004440a800f2
:100460000000060091018800800078000000eb0089
:1004700015003700e280400032a0b4009101ba00bc
:10048000e280400032a0b4009102ba00e280400055
:1004900032a0b4000002eb00472bde00f507b200eb
:1004a000602ce10004003a000059eb008301e900f0
:1004b000fdff3e00040037006128e100010032002a
:1004c0000082eb00040007001101ba000200e00006
:1004d000e8ff3a00000006003159ba008301e90044
:1004e0000c0032002159ba008301e90008003200f3
:1004f0000400e00003003a00e280400032a0b400b3
:10050000f5ff370011d9ba008301e900faff3a007c
:100510008100e800e180400032a0b4000000060045
:1005200000000000000000000000000000000000cb
:100530000040da000000fe00881f78000004780008
:100540005001be004000be0004004000858048000d
:100550000601490087814900009cbe000294be004c
:100560000400e1000588e1000690e1000798e10041
:1005700002003100680044001008e8004f047800d1
:1005800000000600f4874700889fbe008a9fbe00d7
:100590008c9fbe008e1f78000205be000004be00c6
:1005a000d4b79f00e5b79f00f6b79f0087bf9f00b5
:1005b0000000eb00c0b79f00b0b79f00a0b79f003e
:1005c00090b79f0080b79f000d042000bfb0970038
:1005d0004fb09700000140000000e0000f003d0018
:1005e0004f08de0000007100c0b79f009e000700aa
:1005f00001003d0012002000a100070001003d00a5
:1006000012002000a6000700b1000700b600070096
:100610000f004000c8ff0700220037004f08de002f
:1006200000067100ccb79f008f00070001003d005d
:10063000120020009200070001003d00120020007f
:1006400097000700a20007000fb297009fb2970023
:100650002fb39700bfb39700a90007000000520016
:1006600081805a0002015b0083815b0080b79f009c
:1006700091b79f00a2b79f00b3b79f000007eb00a0
:100680009f0007000020e10001a8e10002b0e100a6
:1006900003b8e100010031001e0020000e005600ea
:1006a000c0b79f004fb297000400e000070035007c
:1006b00010002000010020006011b8000804700044
:1006c000898470000a0571008b8571008d06e90030
:1006d000beff3a000400e00003003d008200070076
:1006e0000f00400094ff07004fa897000000e000b3
:1006f00004003a000fb497009fb497002fb59700fd
:10070000bfb59700940007004f0778004f06be0062
:100710004f05be004f04be004f01b10000000600af
:10072000881f780018002000881f780095ff0700b8
:100730008f87e9004f04780000000600801feb005f
:1007400090ff07008f87e90000000600889fbe0029
:100750008a9fbe008c1f78006e00070007003d00d6
:1007600073000700e00f5b00e08f5b0007003d00b7
:10077000320007000006eb000400370034000700d9
:1007800002003d002a0007001c0020007200070044
:10079000e3ff07000203be000002be000c00e00001
:1007a00001003200220007000400be000601be0066
:1007b0004f0678004f05be004f04be000000060043
:1007c000889fbe008a9fbe008c1f780051000700e2
:1007d00005003d0056000700e00f5b00e08f5b0066
:1007e00006003d00040037001900070003003d002b
:1007f0006000b8006011b800100007005600070044
:10080000ceff07000203be000002be000c00e000a5
:1008100001003200060007000400be000601be0011
:100820004f0678004f05be004f04be0000000600d2
:100830006000b8006011b8000000370004025000ea
:10084000858258000603590087835900000006007e
:100850000006eb00e00f5200e08f5a00e00f5b0053
:10086000e08f5b00000006000180400090b79f0011
:100870000001eb008fb097000100e00000000600cf
:100880000200700090b79f000180400080b79f0079
:100890000001eb00ffa897000100e0000000060047
:1008a0000200700080b79f00018040006faa97008f
:1008b000cf20de0001007000f0af9f000402420074
:1008c000250007004f18de0000027200000006003d
:1008d000e4af9f000804440089844c000a054d00e1
:1008e0008b854d00000006003fb29700cfb2970005
:1008f0005fb39700efb3970000fe2f0000000600e3
:100900003fb09700cfb097005fb19700efb197006d
:10091000000006000205be000004be00e00f50000b
:10092000e08f5800e00f5900e08f590000000600ea
:100930006000b8006011b8000804500089845800b5
:100940000a0559008b8559001c002000e00f520059
:10095000e08f5a00000006000800be000a01be0039
:10096000000006006022b800060220000000d0004f
:100970008180d2000482d2008582d2000000a000d3
:100980000202520083825a00030031000202420038
:1009900083824a000000a1000603e900f3ff3a0049
:0409a000000006004d
:020000040000fa
:0200000401f009
:04000c00f8ff0000f9
:020000040000fa
:0200000401f009
:040010005bff000092
:020000040000fa
:0200000401f009
:040014007fff00006a
:020000040000fa
:0200000401f009
:04001800ffff0000e6
:020000040000fa
:0200000401f009
:04001c00dfff000002
:020000040000fa
:100008009802000098020000980200009802000080
:100018009802000098020000980200009802000070
:100028009802000098020000980200009802000060
:10003800980200009802000098020000ee120000ea
:10004800980200009802000098020000241900009d
:1000580092190000d81000009802000098020000d1
:100068009802000098020000980200009802000020
:100078009802000098020000980200009802000010
:100088009802000098020000980200009802000000
:1000980098020000980200009802000098020000f0
:1000a80098020000980200009802000098020000e0
:1000b80098020000980200009802000098020000d0
:1000c80098020000980200009802000098020000c0
:1000d80098020000980200009802000098020000b0
:1000e80098020000980200009802000098020000a0
:1000f8009802000098020000980200009802000090
:10010800980200009802000098020000980200007f
:10011800980200009802000098020000980200006f
:10012800980200009802000098020000980200005f
:10013800980200009802000098020000980200004f
:10014800980200009802000098020000980200003f
:10015800980200009802000098020000980200002f
:10016800980200009802000098020000980200001f
:10017800980200009802000098020000980200000f
:1001880098020000980200009802000098020000ff
:1001980098020000980200009802000098020000ef
:1001a80098020000980200009802000098020000df
:1001b80098020000980200009802000098020000cf
:1001c80098020000980200009802000098020000bf
:1001d80098020000980200009802000098020000af
:1001e800980200009802000098020000c210000067
:0801f8009802000098020000cb
:020000040000fa
:10020800980200009802000098020000980200007e
:10021800980200009802000098020000980200006e
:10022800980200009802000098020000980200005e
:10023800980200009802000098020000ee120000e8
:10024800980200009802000098020000241900009b
:1002580092190000d81000009802000098020000cf
:10026800980200009802000098020000980200001e
:10027800980200009802000098020000980200000e
:1002880098020000980200009802000098020000fe
:1002980098020000980200009802000098020000ee
:1002a80098020000980200009802000098020000de
:1002b80098020000980200009802000098020000ce
:1002c80098020000980200009802000098020000be
:1002d80098020000980200009802000098020000ae
:1002e800980200009802000098020000980200009e
:1002f800980200009802000098020000980200008e
:10030800980200009802000098020000980200007d
:10031800980200009802000098020000980200006d
:10032800980200009802000098020000980200005d
:10033800980200009802000098020000980200004d
:10034800980200009802000098020000980200003d
:10035800980200009802000098020000980200002d
:10036800980200009802000098020000980200001d
:10037800980200009802000098020000980200000d
:1003880098020000980200009802000098020000fd
:1003980098020000980200009802000098020000ed
:1003a80098020000980200009802000098020000dd
:1003b80098020000980200009802000098020000cd
:1003c80098020000980200009802000098020000bd
:1003d80098020000980200009802000098020000ad
:1003e800980200009802000098020000c210000065
:0803f8009802000098020000c9
:020000040000fa
:1009a4000000000001cc000001d800000014000089
:1009b40001f00000003c00000028000001e40000f9
:1009c40001a00000006c00000078000001b40000e9
:1009d40000500000019c0000018800000044000059
:020000040000fa
:1009e4000400fa00000f78001e0078001007980039
:1009f4001e0090000000e00003003d001e00900077
:100a04000000ea00100798001e0090000080fa0021
:100a1400000006001e00fa00889fbe008a9fbe00e8
:100a240000198000c500dd00904c800080805000db
:100a340000012c0000804000004c8800404c8000e5
:100a44000000e800404c880010198000c500dd005b
:100a5400c04880008080500000012c0000804000cd
:100a640060488800e04880000000e800e048880012
:100a7400f04880000000e800f0488800704c8000d6
:100a8400e30f500020003a00409920003004be00db
:100a94002005be00014c8000004c80000182b9009a
:100aa4004fabde00cfb3de000400be0006017800c9
:100ab4008601780008004000898048000a01490046
:100ac4008b81490044992000009abe000292be0026
:100ad400514c8000004c8000808f500004003d0089
:100ae400004c8000504c8800404c8000604c8800d2
:100af400814c8000004c8000808f50000200340044
:100b0400004c8000804c880024c9bf00e34f500093
:100b140020003a00009320003004be002005be00ef
:100b240061488000604880000182b9004fabde005c
:100b3400cfb3de000400be00060178008601780011
:100b440008004000898048000a0149008b8149005f
:100b540004932000009abe000292be0081488000e7
:100b640060488000808f500004003d006048800091
:100b740080488800e048800090488800a1488000b0
:100b840060488000808f500002003400604880007c
:100b9400a0488800e148800080162000808f500023
:100ba4000b003400704880000000e00008003d00a5
:100bb400604880000000e0000500350060488000c7
:100bc40071488000010050000000e00004003c0077
:100bd400e1488000803e2000808f5000e200340015
:100be400404c8000304c88000000eb00404c8800f2
:100bf400704c8000e20f50000c003a004499200031
:100c04006000b8006011b800009abe000292be00f5
:100c14000000eb00804c8800804c8000504c880021
:100c240030002000704c880029003700504c8000b0
:100c3400814c800001004000ea0f50000f00340096
:100c4400904c8000600f9800914c80000001eb00f4
:100c5400520f9800703e2000808f500002003c002c
:100c640013002000530f9800ee0890005e099000d6
:100c740002804000904c880013003700504c8000e4
:100c8400814c800001004000ea0f40000e003d004e
:100c9400934c8000430f9800914c80000000eb00bf
:100ca400300f980080c12f00808f50000200340064
:100cb40011002000310f98004e099000be099000e9
:100cc40003005100904c880010002000704c8800f4
:100cd400e0488000b04888000000eb00e04888004d
:100ce40024c9bf00e24f50000c003a0004932000d6
:100cf4006000b8006011b800009abe000292be0005
:100d04000000eb00a0488800a048800080488800cc
:100d140030c0b30024e9b700930037008048800056
:100d2400a148800001004000ea0f50000f00340089
:100d3400c0488000200f9800c14880000001eb00eb
:100d4400120f9800703e2000808f500002003c007b
:100d540013002000130f9800ae0890001e099000a5
:100d640002804000c048880013003700804880009b
:100d7400a148800001004000ea0f40000e003d0041
:100d8400c3488000030f9800c14880000000eb00b6
:100d94007007980080c12f00808f5000020034003b
:100da40011002000710798000e099000fe019000c8
:100db40003005100c048880091488000604c8000c6
:100dc400008050000028b00002202000110009001b
:100dd4000200d8008000fd0080007800f0072000a9
:100de400808f50000e003c0091488000604c8000d1
:100df400008050000028b0000220200011000900eb
:100e04000200d8008000fd00800040000080200027
:100e14000080400010007800600798004e00370002
:100e240091488000604c8000008050000028b00091
:100e340002202000110009000200d8008000fd00fb
:100e440080007800f00f2000808f500011003c00db
:100e540091488000604c8000008050000028b00061
:100e640002202000110009000200d8008000fd00cb
:100e74008000780000102000010050008000400035
:100e84000080200000804000100078005007980087
:100e94002f00370091488000604c80000080500093
:100ea4000028b00002202000110009000200d80030
:100eb4008000fd0080007800f0172000808f500033
:100ec40011003c0091488000604c8000008050007c
:100ed4000028b00002202000110009000200d80000
:100ee4008000fd008000780000f02f0000804000aa
:100ef4008000400000802000008040001000780046
:100f0400400798001000370091488000604c800032
:100f1400008050000028b0000220200011000900c9
:100f24000200d8008000fd0080007800002020002e
:100f3400010050008000400000802000008040003c
:100f440010007800400798004e0090005007980069
:100f5400de009000610798006e019000924f8800b7
:100f640010c0b30024e9b700e14880000008200065
:100f7400808f50000d003400704880000000e000b5
:100f84000a003400604880000000e00007003c00d4
:100f94007048800061488000010050000000e000bb
:100fa400020034000000eb00f04888006048800034
:100fb40070488800504880000000e00006003a00b5
:100fc40042c4bf00f043b20001c8b3000140700046
:100fd40042e4b700070037005148800000102000a9
:100fe400808f500003003a0042c4bf00f043b200b7
:100ff40042e4b70013498000330798005148800049
:10100400f0072000808f500007003c00504880000b
:101014008000400000802000008040001000780024
:10102400200798002600370051488000f00f200068
:10103400808f500009003c005148800000102000bf
:10104400010050008000400000802000008040002b
:1010540010007800100798001700370051488000ee
:10106400f0172000808f500009003c005148800098
:1010740000f02f000080400080004000008020002d
:101084000080400010007800000f7800080037004e
:1010940051488000002020000100500080004000e2
:1010a400008020000080400010007800000f7800cd
:1010b4001e007800100798009e00900021079800f9
:1010c4002e019000be0190000390b9004109dd009b
:1010d4004f00de0000007100cf88de00302288005f
:1010e400504880000000e8000220200011000900a0
:1010f4000200d8008000fd00504888000603a900c3
:101104004f05be004f04be000080fa000000060038
:101114003800fa00889fbe008a9fbe003019800004
:10112400c500dd00b04b80008080500000012c0021
:1011340000804000204b8800604b80000000e800e5
:10114400604b880020198000c500dd00304a800013
:101154008080500000012c0000804000c0498800bd
:10116400104a80000000e800104a8800804a80008d
:101174000000e800804a8800904b8000e30f500094
:1011840020003a00809720003004be002005be00f5
:10119400214b8000204b80000182b9004fabde0060
:1011a400cfb3de000400be0006017800860178009b
:1011b40008004000898048000a0149008b814900e9
:1011c40084972000009abe000292be00714b8000fa
:1011d400204b8000808f500004003d00204b800095
:1011e400704b8800604b8000804b8800a14b8000ce
:1011f400204b8000808f500002003400204b800080
:10120400a04b880058c9bf00e34f500039003a0092
:10121400c09520003004be002005be00c1498000f6
:10122400c04980000182b9004fabde00cfb3de00bd
:101234000400be0006017800860178000800400022
:10124400898048000a0149008b814900c495200027
:10125400009abe000292be00204b8000e0fd070011
:1012640000047800c0498000ddfd07000880b90053
:10127400ca8ade004609dd004a02de00040271006b
:101284004fabde00cfb3de000400be0006017800e1
:1012940086017800649d20005403be004402be0011
:1012a4000000420081804a0002014b0083814b0010
:1012b400649d2000009abe000292be00e1498000b5
:1012c400c0498000808f500004003d00c049800068
:1012d400e0498800104a8000f0498800014a8000f3
:1012e400c0498000808f500002003400c049800053
:1012f400004a8800114a800000082000808f5000b6
:101304000d003400d04980000000e0000a003400e1
:10131400c04980000000e00007003c00d049800084
:10132400c1498000010050000000e00002003400c8
:101334000000eb00804a8800114a800080162000db
:10134400808f50000b003400d04980000000e00082
:1013540008003d00c04980000000e00005003500a1
:10136400c0498000d1498000010050000000e00025
:1013740004003c00114a8000803e2000808f500011
:1013840070023400604b8000504b88000000eb007a
:10139400604b8800904b8000e20f50000c003a0034
:1013a400849720006000b8006011b800009abe0065
:1013b4000292be000000eb00a04b8800a04b80000e
:1013c400704b880030002000904b880029003700c3
:1013d400704b8000a14b800001004000ea0f5000d8
:1013e4000f003400b04b8000301f9800b14b8000d8
:1013f4000001eb00221f9800703e2000808f5000f7
:1014040002003c0010002000201f9800be1890002d
:101414002e19900002804000b04b88001300370062
:10142400704b8000a14b800001004000ea0f400097
:101434000e003d00b04b8000101f9800b14b80009f
:101444000001eb00021f980080c12f00808f500024
:101454000200340010002000001f98009e18900025
:101464000e19900002805000b04b8800100020003c
:10147400904b8800104a8000204a88000000eb004e
:10148400104a880058c9bf00e24f500011003a00ca
:10149400c49520006000b8006011b800009abe0036
:1014a4000292be000000eb00004a8800004a80005f
:1014b400e0498800649d20006000b8006011b80015
:1014c400009abe000292be0030c0b30058e9b700d3
:1014d40097003700114a8000703e2000808f500032
:1014e40093003c00e0498000014a80000100400074
:1014f400ea0f50000f003400304a80007017980043
:10150400314a80000001eb0062179800703e200011
:10151400808f500002003c001000200060179800eb
:10152400fe1090006e11900002804000304a880046
:1015340013003700e0498000014a800001004000a8
:10154400ea0f40000e003d00304a8000501798001a
:10155400314a80000001eb004217980080c12f003f
:10156400808f5000020034001000200040179800c3
:10157400de1090004e11900002805000304a880026
:10158400814b8000f0498000008050000028b000aa
:1015940002202000110009000200d8008000fd0094
:1015a40080007800f0072000808f50000e003c007f
:1015b400814b8000f0498000008050000028b0007a
:1015c40002202000110009000200d8008000fd0064
:1015d400800040000080200000804000100078005f
:1015e400301798004e003700814b8000f04980008e
:1015f400008050000028b0000220200011000900e3
:101604000200d8008000fd0080007800f00f200068
:10161400808f500011003c00814b8000f049800015
:10162400008050000028b0000220200011000900b2
:101634000200d8008000fd00800078000010200027
:101644000100500080004000008020000080400025
:1016540010007800201798002f003700814b80007d
:10166400f0498000008050000028b00002202000d3
:10167400110009000200d8008000fd0080007800fd
:10168400f0172000808f500011003c00814b800037
:10169400f0498000008050000028b00002202000a3
:1016a400110009000200d8008000fd0080007800cd
:1016b40000f02f00008040008000400000802000e7
:1016c40000804000100078001017980010003700c8
:1016d400814b8000f0498000008050000028b00059
:1016e40002202000110009000200d8008000fd0043
:1016f400800078000020200001005000800040009d
:10170400008020000080400010007800101798002e
:101714001e10900020179800ae109000311798000a
:101724003e119000824f880010c0b30058e9b70002
:101734005ac9bf000000fb00001798000e1090006b
:10174400e10f5000040032008e109000e48f50002e
:10175400530032007b013700214a8000f01f200033
:10176400808f500017003400124880002348800006
:10177400f0e1240001002000800f5100818f590006
:1017840007003c00104880002148800061004000b0
:10179400e0804800600f9800710f98000400370043
:1017a40000e2240001002000600f9800710f9800ef
:1017b4006e089000fe0890001048880021488800b8
:1017c40025003700214a8000e01f2000808f500050
:1017d40017003c0012488000234880008026240023
:1017e40001002000800f5100818f59000700340050
:1017f400104880002148800061005000e0805800bb
:10180400400f9800510f98000400370080262400f0
:1018140001002000400f9800510f98004e089000de
:10182400de08900010488800214888000a0037002c
:1018340059c9bf000040e80059e9b70059c9bf00c1
:10184400f44f50000400360040c0b3005ae9b7001a
:101854000040eb0059e9b70012488000234880009b
:10186400c045240001002000800f5100818f5900e1
:10187400340134001248800023488000f0e1240041
:1018840001002000800f5100818f59002d013c0080
:101894001048800021488000402388002901370037
:1018a400214a8000f01f2000808f5000280034005f
:1018b4001248800023488000f0e124000100200049
:1018c400800f5100818f590007003c0010488000b0
:1018d4002148800061004000e0804800200f98000b
:1018e400310f98000400370000e2240001002000ba
:1018f400200f9800310f98002e089000be08900029
:10190400104888002148880012488000234880003d
:10191400c045240001002000800f5100818f590030
:10192400360034001248800023488000f0e124008f
:1019340001002000800f5100818f59002f003c00ce
:101944001048800021488000402388002b00370085
:10195400214a8000e01f2000808f500027003c00b7
:1019640012488000234880008026240001002000c3
:10197400800f5100818f5900070034001048800007
:101984002148800061005000e0805800000f98005a
:10199400110f980004003700802624000100200065
:1019a400000f9800110f98000e0890009e089000f8
:1019b400104888002148880012488000234880008d
:1019c400c045240001002000800f5100818f590080
:1019d4000a0034001248800023488000f0e124000b
:1019e40001002000800f5100818f590003003c004a
:1019f400104880002148800040238800104880005f
:101a0400214880000001780030488000414880006f
:101a140000005100f2fb0700800078001003200052
:101a2400808f50007e003c00f1488000804a800096
:101a340000805000f0548800f0548000e8fb070058
:101a44000000e0004b003400f15480000008200046
:101a5400808f50000200340000082000f0548800f9
:101a6400f154800000f82f00808f500002003d00e8
:101a740000f82f00f0548800f1548000a04e80003c
:101a8400008050006101b900304880004148800066
:101a940002004000838048003048880041488800a4
:101aa400f0548000e20f50001700340032488000e8
:101ab40043488000f0e1240001002000800f510021
:101ac400818f590007003c00304880004148800065
:101ad40061004000e08048006007980071079800aa
:101ae4000400370000e22400010020006007980091
:101af400710798006e009000fe0090003048880046
:101b04004148880019003700f0548000e20f40007b
:101b140016003d003248800043488000802624009f
:101b240001002000800f5100818f5900070034000c
:101b3400304880004148800061005000e080580037
:101b440040079800510798000400370080262400bd
:101b54000100200040079800510798004e009000b3
:101b6400de0090003048880041488800f05480002e
:101b7400a04e88002ec9bf000004e00014003a0003
:101b8400f054800096fb0700e10f50000d003c006c
:101b940026c9bf000040e80026e9b70026c9bf00f7
:101ba400f44f50000400360010c0b3002ee9b70013
:101bb4000040eb0026e9b7000000eb006049880014
:101bc4004f0037000040eb0026e9b7004c00370017
:101bd400f054800082fb0700ef0f50000d0034002a
:101be40026c9bf000040e80026e9b7006192200042
:101bf4009140780080ccb30080cf50004000360084
:101c04000040eb002ee9b7000040eb0026e9b700e6
:101c14003b0037000040eb0026e9b70038003700ee
:101c240032488000434880001048800021488000ea
:101c3400800f5100818f590017003d003248800009
:101c440043488000f0e1240001002000800f51008f
:101c5400818f590007003c003048800041488000d3
:101c640061004000e0804800200798003107980098
:101c74000400370000e2240001002000200798003f
:101c8400310798002e009000be0090003048880074
:101c9400414888001a0037003248800043488000d9
:101ca4001048800021488000800f5100818f590026
:101cb400130034003248800043488000802624000a
:101cc40001002000800f5100818f5900060034006c
:101cd400304880004148800061005000e080580096
:101ce400008fbe000300370080262400010020007e
:101cf400008fbe001e00be003048880041488800a6
:101d04003248800043488000c04524000100200080
:101d1400800f5100818f59000a003400324880003e
:101d240043488000f0e1240001002000800f5100ae
:101d3400818f590003003c003048800041488000f6
:101d440040228800114a800000042000808f500047
:101d540004003400114a8000f00b2000808f5000f2
:101d640008003400114a800000142000808f5000c5
:101d740034003400114a8000f01b2000808f500092
:101d840030003c005ac9bf00e44f500017003a002d
:101d9400c049800012fb070080007800301f20003b
:101da400808f500011003c00604a80000000e80071
:101db400604a88000000eb00504a8800614a8000b5
:101dc40000022000808f5000080034000040eb0027
:101dd4005ae9b7000040eb002ee9b7000000eb0021
:101de400604a88000000eb00304a88005ac9bf00ee
:101df4000004e00013003a00c0498000f8fa07002c
:101e040080007800401f2000808f50000d003400b7
:101e1400504a80000000e800504a88000000eb00af
:101e2400604a8800514a800000022000808f5000e0
:101e34000400340010c0b3005ae9b7000000eb00fe
:101e4400504a8800c0498000d04988000623a90070
:101e54004f05be004f04be000080fa0000000600db
:101e64000000fa00a0198000404f8800b0198000db
:101e7400304f880006a3a9000080fa000000060085
:101e84000000fa0001e3a90001a3a9000183a8004e
:101e94000103a90000e3a80000c3a90000a3a9004e
:101ea4000083a800013020009140780080cfb30067
:101eb40000c060005040b30000e3b7000000eb0036
:101ec40030188800a10a200091407800f0c8b300bf
:101ed40000c060000044a000aae0b70085a0a900eb
:101ee40095a0a8000203a9000223a900a1302000a4
:101ef4009140780000ceb30000c060005040b300b1
:101f04000ae3b7000ae3a8000243a9000263a90098
:101f1400b13020009140780000ceb30000c06000d2
:101f24006040b3000be3b7000be3a8000343a90030
:101f34000363a900f13020009140780000ceb30083
:101f440000c060000004a0000fe3b700d10d200022
:101f54009140780000c7b30000c07000dde0b70016
:101f64009260a900a260a800c0502000005588001b
:101f7400a08820002055880000aa2000401888006e
:101f84000080fa00000006000000fa0001e3a80047
:101f94000080fa00000006000000fa002124a800d6
:101fa40020c4bf00f043b20020e4b7002044a800de
:101fb40023e4a80023c4a800314220009140780003
:101fc40030cfb30000c0600023e4b70022c4bf00d8
:101fd400f043b20022e4b7002324a8002304a8009d
:101fe4000000eb006021880000c325004021880028
:101ff40080e122003021880080e1220090218800c5
:1020040000102000b021880034e4a80035c4bf00cb
:102014006f4060000044a00035e4b7004143200055
:102024009140780000ccb30000c0600034e4b700f5
:1020340030002000202188004124a80040c4bf00b3
:10204400f043b20040e4b7004044a80043e4a800d1
:1020540043c4a80043a4a8004384a800314420003a
:102064009140780030cfb30000c0600043e4b70073
:1020740042c4bf00f043b20042e4b7004204a800e7
:102084004324a8004304a8000000eb006022880059
:10209400007e240040228800003f22003022880075
:1020a400800020009022880000102000b0228800c8
:1020b40054e4a90055c4bf006f4060000044a00070
:1020c40055e4b700414520009140780000ccb300ae
:1020d40000c0600054e4b7003000200020228800d3
:1020e4006124a80060c4bf00f043b20060e4b700fc
:1020f4006044a80063e4a90063c4a90063a4a80021
:102104006384a8000000eb0060238800007e2400a4
:1021140040238800003f22003023880080002000f4
:1021240090238800801f2100b023880074e4a90054
:1021340075c4bf006f4060000044a00075e4b700a0
:10214400414720009140780000ccb30000c06000fb
:1021540074e4b70030002000202388000080fa00d7
:10216400000006000000fa0001e4a8002324a900ee
:102174002304a9004304a9000080fa00000006001b
:10218400801f78000000fa00a0198000404f8800ea
:10219400b0198000304f880006a3a9009260a900fe
:1021a4000080fa004f007800004006003600f80076
:1021b400809fbe00829fbe00849fbe00869fbe009b
:1021c4000000fa0085a0a9004018800010007800e3
:1021d400000001000080fa004f03be004f02be0061
:1021e4004f01be004f00be003600f900004006005b
:1021f4000000fa00704c8000e10f500030003a00fb
:10220400409920005001be004000be00344c8000c4
:10221400cfa2de0005037800860378003ff90700ab
:1022240044992000009abe000292be00409920000a
:102234005001be004000be00ef0907003055880081
:10224400214c8000606626000088b9004109dd0049
:102254004f00de0000007100cf88de00000178002e
:1022640031558000909921000088b900c109dd0032
:102274004f00de0000807100cf88de0000004100c6
:10228400204c8800449920006000b8006011b80018
:10229400009abe000292be00214c800000a92100d9
:1022a4000088b9004209dd004e00de000000710024
:1022b400ce88de00204f880020002000704c88006b
:1022c40024c9bf00e14f500030003a0000932000c1
:1022d4005001be004000be00b4488000cfa2de0022
:1022e40005037800860378000cf9070004932000a6
:1022f400009abe000292be00009320005001be006e
:102304004000be00bc09070030558800d148800059
:10231400606626000088b900c109dd004f00de00b8
:1023240000807100cf88de00000178003155800004
:10233400909921000088b900c109dd004f00de003a
:1023440000807100cf88de0000004100d048880082
:10235400049320006000b8006011b800009abe0029
:102364000292be00d14f8000d04880000180b900a5
:102374004109dd004f00de0000007100cf88de005f
:10238400104f880020c0b30024e9b700904b8000b0
:10239400e10f500030003a00809720005001be0049
:1023a4004000be00544b8000cfa2de00050378003d
:1023b40086037800d9f8070084972000009abe00ad
:1023c4000292be00809720005001be004000be0073
:1023d4008909070030558800414b8000606626005b
:1023e4000088b900c109dd004f00de0000807100e3
:1023f400cf88de00000178003155800090992100db
:102404000088b900c109dd004f00de0000807100c2
:10241400cf88de0000004100404b880084972000f4
:102424006000b8006011b800009abe000292be00bd
:10243400c14f8000404b80000180b9004209dd009b
:102444004e00de0000007100ce88de00004f8800e0
:1024540020002000904b880058c9bf00e14f500075
:1024640046003a00c09520005001be004000be0066
:10247400244a8000cfa2de0005037800860378009a
:10248400a6f80700c4952000009abe000292be0080
:10249400609d20005001be004000be00244a800020
:1024a400cfa2de0005037800860378009bf80700be
:1024b400649d2000009abe000292be00c0952000d8
:1024c4005001be004000be004b0907003055880093
:1024d400414a8000606626000088b900c109dd0019
:1024e4004f00de0000807100cf88de00000178001c
:1024f40031558000909921000088b900c109dd00a0
:102504004f00de0000807100cf88de000000410033
:10251400404a8800c49520006000b8006011b800eb
:10252400009abe000292be00b14f8000404a800073
:102534000180b9004109dd004f00de000000710098
:10254400cf88de00f04e8800609d20005001be0060
:102554004000be0001007800820078006119b800d4
:10256400604f8800609d20005001be004000be0006
:10257400504f880020c0b30058e9b7000080fa002b
:10258400000006000000fa000111200091407800cc
:10259400f0ccb30000c0600010e1b70000fa2000e6
:1025a40060088800710a200091407800f0c8b300e8
:1025b40000c0600001c4b30001407000a7e0b70090
:1025c40094e0a80011e1a80040002000c055880054
:1025d4000080fa00000006003600f800809fbe006c
:1025e400829fbe00849fbe00869fbe001800fa0032
:1025f4004155800080bb2000808f50000d003400c6
:102604000000eb0040558800d4c2bf000080fb00ee
:102614004700de0000c0ea0061406000c700dd0042
:10262400d4c2bf000074a10001407000d4e2b7001e
:102634000fa3a800405580000000e8004055880022
:10264400914a800020548000614060000080fb00bb
:1026540000804000904a8800014980002054800096
:102664000000d100614060000080fb000080400059
:1026740000498800e102070090080700c055800067
:10268400300f9800be089000e28f50005a003200cc
:102694003e089000e20f500004003c00be08900089
:1026a4000100e000080032008f0237003e0890006d
:1026b400e30f50008c023200be089000e48f5000fb
:1026c4006e023200880237000040eb002ee9b700aa
:1026d400005180000000e0003d0032005ac9bf00f4
:1026e400e44f500028003a00f14e8000803e200064
:1026f400808f50007c023400124f8000f14e800025
:10270400c0f92f0000804000800f51000b003d00f5
:102714001149800060eb2700808f500007003c00c7
:10272400104980000000e800104988006000b800eb
:1027340050558800615588006b0237005055800061
:102744006155800061004000e080480050558800d9
:10275400615588005255800063558000005327005e
:1027640001002000800f5100818f59005e02340067
:102774006000b80050558800615588002000200092
:10278400c055880058023700114f80003083200064
:10279400808f500008003c001149800060eb270046
:1027a400808f500004003c00104980000000e800c5
:1027b400104988004c0237006000b800505588006a
:1027c4006155880020002000c0558800460237006b
:1027d4000040eb0072eab7006000b8007053880054
:1027e400815388000001eb008000eb000040eb0007
:1027f4000f0807003c023700005180000000e00091
:102804001c003a000040eb0072eab7006000b80018
:1028140070538800815388000001eb008000eb00b6
:102824000040eb000208070083cabf000004e00078
:1028340008003a00ccc2bf00684060000004e00019
:1028440004003a000040eb0082eab70010c0b30075
:1028540083eab7000000eb00104988000040eb0059
:102864002fe9b7000040eb002ee9b7000000eb00b1
:10287400c055880072cabf000000fb00200f9800fa
:102884002e089000e10f50005f003200ae08900067
:10289400e28f5000cf0032002e0890000000e000cc
:1028a4000100320030013700214f8000d0538000f6
:1028b400808f50001900340020c0b30072eab700c2
:1028c400003e290041002000705388008153880095
:1028d4000001eb008000eb0010c0b300d407070038
:1028e4006000b800705588008155880083cabf0015
:1028f4000004e0001c013a00ccc2bf006840600044
:102904000004e00018013a000040eb0082eab7003e
:1029140010c0b30083eab70013013700214f8000d1
:10292400c0538000808f50000b00340010c0b300ef
:1029340072eab70000f824002101200070538800d7
:1029440081538800823e2000813e200020c0b300d5
:10295400b7070700040137000040eb0072eab70034
:102964006000b80070538800815388000001eb00b8
:102974008000eb000040eb00ad0707002ec9bf004c
:102984000004e000f800320083cabf000004e00045
:10299400f5003a00ccc2bf000080fb004300de001b
:1029a400614060000080fb00100f980080508000a0
:1029b4008000eb00010f98000000e00002003a00e4
:1029c40010002000000f98009e0890000e08900050
:1029d400808f5000e4003a00805080008040eb007b
:1029e400614f98000000e00002003a0010c0b300fc
:1029f400604f98006e48900082eab70010c0b300a0
:102a040083eab700d80037007253800083538000f4
:102a14001000200001002000800f5100818f590018
:102a24004b003600214f8000d0538000808f50002f
:102a34001800340020c0b30072eab700003e290039
:102a44004100200070538800815388000001eb008e
:102a54008000eb0010c0b300750707006000b800e9
:102a6400705588008155880083cabf000004e000c7
:102a740008003a00ccc2bf00684060000004e000d7
:102a840004003a000040eb0082eab70010c0b30033
:102a940083eab700214f8000b0538000808f50003c
:102aa4002b003d000040eb0072eab7006000b80064
:102ab40070538800815388000001eb008000eb0014
:102ac4000040eb005a0707002ec9bf000004e000d5
:102ad4001f00320083cabf000004e0001c003a005b
:102ae400ccc2bf000080fb004300de0061406000f8
:102af4000080fb0060079800805080008000eb009d
:102b0400510798000000e00002003a001000200085
:102b140050079800ee0090005e009000808f5000f7
:102b24000b003a00805080008040eb00014f980079
:102b34000000e00002003a0010c0b300004f98000b
:102b44000e48900082eab70010c0b30083eab700d1
:102b54007253800083538000100020000100200085
:102b6400800f5100818f59007f003a00214f80006f
:102b7400c0538000808f50007b0034000001eb00c4
:102b84008000eb0010c0b3002907070083cabf0010
:102b94000004e00008003a00ccc2bf0068406000b6
:102ba4000004e00004003a000040eb0082eab700b1
:102bb40010c0b30083eab7007053800081538000d3
:102bc40061005000e08058007053880081538800f1
:102bd400650037007253800083538000100020008a
:102be40001002000800f5100818f590051003600f0
:102bf400214f800020518000808f50003b003d0019
:102c0400705580008155800061004000e0804800dc
:102c14007055880081558800725580008355800066
:102c240000e2240001002000800f5100818f590030
:102c34002e0034000040eb0072eab7006000b800d8
:102c440070538800815388000001eb008000eb0082
:102c54000040eb00f60607002ec9bf000004e000a8
:102c64001f00320083cabf000004e0001c003a00c9
:102c7400ccc2bf000080fb004300de006140600066
:102c84000080fb0030079800805080008000eb003b
:102c9400210798000000e00002003a001000200024
:102ca40020079800be0090002e009000808f5000f6
:102cb4000b003a00805080008040eb0021479800d0
:102cc4000000e00002003a0010c0b3002047980062
:102cd4002e40900082eab70010c0b30083eab70028
:102ce4006000b8007055880081558800214f80002d
:102cf400c0538000808f50000e003400214f8000ac
:102d0400d0538000808f50000a003c0010c0b300f4
:102d140072eab70000f824002101200070538800f3
:102d240081538800823e2000813e200020c0b300f1
:102d3400bf060700725380008353800010002000f8
:102d440001002000800f5100818f590006003a00d5
:102d5400705380008153800061005000e08058006f
:102d6400705388008153880072538000835380001d
:102d74001000200001002000800f5100818f5900b5
:102d840006003600705380008153800061005000bb
:102d9400e0805800705388008153880072cabf00d5
:102da4000000fb00604f880083cabf00e14f500061
:102db40027003a0020c0b30083eab7002ec9bf0041
:102dc4000004e0000e003200f14e8000104f80003d
:102dd4000080500002f707008000780030062000d1
:102de400808f500006003c00d4a2a800802520005b
:102df40001002000f05388000154880014003700bb
:102e0400d4a2a90082cabf008040eb0011479800f9
:102e14000004e00002003a0010c0b300104798001c
:102e24009e40900061c060004301dd00c12c200081
:102e34009140780070cfb30000c060000240700081
:102e4400cce2b7006000b800f05388000154880059
:102e5400f053800001548000e00f5000e08f5800d0
:102e640026003200f05380000154800061005000bd
:102e7400e0805800f053880001548800f253800029
:102e8400035480004024200001002000800f5100e2
:102e9400818f590010003a0082cabf008040eb00c5
:102ea400014f78000004e00002003a0010c0b300b3
:102eb400004f78009e40780061c060004301dd004f
:102ec400c12c20009140780070cfb30000c0600096
:102ed40002407000cce2b700f2538000035480003b
:102ee4001000200001002000800f5100818f590044
:102ef40007003a00d4a2a9000500370083cabf0026
:102f0400e24f500002003a000040eb0083eab700b1
:102f14005ac9bf00e44f500030003a00f14e80001f
:102f240020672000808f50006f003400f14e800035
:102f340030972000808f50006b003c00f14e8000e1
:102f4400104f800000805000a5f607008000780034
:102f540040062000808f50006300340059c9bf0030
:102f64000040e80059e9b70059c9bf00e54f5000d7
:102f74005d003600114f8000f04e8000808f5000bd
:102f840008003d001149800060eb2700808f50004d
:102f94000f003c00104980000000e8001049880040
:102fa4000b003700114f8000f04e8000808f5000de
:102fb4000700340011498000d0cc2000808f5000dd
:102fc40003003400104980000000e9001049880023
:102fd4000040eb0059e9b70043003700114f80006f
:102fe400f0862000808f50000d003c0011498000c5
:102ff40060eb2700808f500019003c00404980009e
:103004000000e00016003a00104980000000e800cb
:1030140010498800803e2000404988001000370095
:10302400114f8000008c2000808f50000c00340071
:1030340011498000d0cc2000808f5000080034005b
:10304400404980000000e00005003a00104980007b
:103054000000e90010498800803e200040498800b3
:10306400404980000000e0001f0032004049800019
:103074000000e900404988001b0037000000eb0015
:1030840010498800a04a8000b14a800061004000d5
:10309400e0804800a04a8800b14a8800a24a800023
:1030a400b34a800000a62e0001002000800f5100ca
:1030b400818f59000c0036006000b800a04a8800d7
:1030c400b14a88005ac9bf00e44f500003003200df
:1030d4005ac9bf000004e00003003a00cc82a900f2
:1030e4000000eb00c05588000000eb0030088800a9
:1030f40084e0a9000080fa004f03be004f02be0026
:103104004f01be004f00be003600f900004006002b
:103114000600fa00000f78001107980022079800b3
:10312400080037001e007800904078001e009000d0
:10313400014878001e0090000000e8001007980085
:103144001e0fe8002e0090000000e9002007980000
:103154002e009000e10f4000f2ff3a000080fa00d8
:10316400000006000000fa0021e2a800012220006d
:103174009140780090cfb30000c060000024a0000c
:1031840020e2b7002002a9000000eb001011880023
:1031940020102000401188009560a8009580a800a8
:1031a40022c2bf00f043b20022e2b70023e2a9002a
:1031b40023a2a800016e20009140780000ccb30047
:1031c40000c060003040b300e0e6b700416a200070
:1031d4009140780000ccb30000c06000d041b3003f
:1031e400a4e6b7000040eb00b2eab7000040eb00f1
:1031f400b3eab7000080fa00000006000000fa00fd
:10320400b1558000401f2000808f5000050036001b
:1032140010c0b3006ceab7000000eb00b0558800a2
:1032240006003700b05580000000e00003003200c3
:10323400b05580000000e800b05588000080fa0016
:1032440000000600809fbe00829fbe000200fa00bc
:103254008560a90010002000b055880028003700c0
:1032640030118000000f7800b2cabf000004e000f3
:103274001000320021ab200091407800f0c3b3006d
:1032840080cf50000b003e0022ab2000124178009a
:103294008281fb001e0078008040780080a220001c
:1032a40000804100014878000240e800b2eab7001b
:1032b40013003700705080009e0f5000030032004e
:1032c400200020009e0f10000b003a0022ab2000cb
:1032d400124178008281fb001e0078008040780053
:1032e40080a2200000804100014878000240e800ec
:1032f400b2eab700020037000040eb00b2eab700c0
:1033040022c2bf00614060000004e000d4ff3a0024
:103314000080fa004f01be004f00be0000400600ce
:10332400809fbe00821f78000000fa008580a900fb
:1033340041ab200091407800b3cabf0080cf500059
:103344000500310041ab200091407800f0c3b30088
:1033540080cf50000e0036000040eb00b3eab70007
:103364002342a900d4c2bf000080fb004700de0056
:1033740000c0ea0061406000c700dd00d4c2bf00a5
:103384000074a10001407000d4e2b7000a003700c5
:1033940042ab2000124178008280fb0080a2200012
:1033a40000804000104078000080fb00201188005d
:1033b4000240e800b4eab7000080fa004f01780048
:1033c4004f00be00004006000000fa00b3cabf0070
:1033d4000004e0000d0032002342a8000040eb008e
:1033e400b4eab70042ab2000124178008280fb00af
:1033f40080a2200000804000104078000080fb0084
:10340400201188000240e800b4eab7000080fa0006
:10341400000006000800fa002007980061479800a1
:103424000080eb00100798000040eb001047980064
:10343400220037002e009000104f78002e009000dc
:103444000000e800200798009e80fb001e0090000a
:10345400008068006f00600080004000204d28005c
:1034640000804000900078001e0090004400de00c0
:1034740000806800100798001e80fb004400de00f6
:103484008080fb001e009000008068006f006000d8
:1034940080004000204d280000804000900078000b
:1034a4001e0090004400de000080680010079800b1
:1034b4001e4090000040e800104798009e40900095
:1034c4006e40900080cf5000daff39001e0090005b
:1034d4000080fa00000006000200fa00000f7800e5
:1034e4001e007800c800de004800dd000100700006
:1034f4000080fa00000006000400fa00204798004b
:10350400314798002e4090000080fb00000f7800a7
:103514001e007800c800dd003e4090000080fb00e3
:10352400008070000080fa00000006000600fa0027
:10353400000f780011079800700020009e0f100003
:1035440015003c001e0090001e004000e80f5000d3
:1035540011003c0010c0b3002aeab70060a82000a4
:10356400104078008080fb001e0078000008dd0019
:10357400004178001e009000e8001000f00f2000c9
:103584000100dd00004061002beab700400020008c
:1035940020079800020037000000eb002007980085
:1035a4002e0090000080fa00000006000600fa00d9
:1035b400000f780011079800700020009e0f100083
:1035c4001a003c001e0090000000e0000a003200d7
:1035d40063a8200060a82000104078000041780013
:1035e400110020001e0078000008dd00004071007a
:1035f400804978000a00370063a8200060a82000f2
:103604001040780000417800110020001e0078006e
:103614000008dd0000c0ea00004061008049780035
:103624006000200020079800020037000000eb0033
:10363400200798002e0090000080fa000000060089
:103644000800fa0010079800210798002e00900047
:10365400000040002aeab7001e009000ed0f500061
:103664002f003c001e009000ae00900001004000be
:10367400ee0f50002a003c000040eb00004f7800a1
:103684001f0037001e80fb00630140001e80fb000a
:103694000000d1008080fb001e00900000804000ec
:1036a40080004000e09d2000008040009040900099
:1036b40080a2200000004100014878001e80fb0029
:1036c400640140001e80fb000000d1008080fb00ec
:1036d4001e0090000080400080004000e09d20001b
:1036e400008040009040780080a22000000041004b
:1036f400014878001e40780000c0e800004f7800c0
:103704002acabf009e4f5000deff3e002acabf00f7
:10371400634040000080fb00300798004a003700f7
:103724009e009000f0ff2300808f5000440034007e
:103734009e0090002e009000808040000002240033
:10374400808f50003e003c009e00900000002c0042
:1037540000804000100798001e00900032022000f4
:10376400110009000200d8008000fd001007980035
:10377400619f20001e00900000004000c2c2b30000
:103784001d0307000004e00003003a000000eb0002
:10379400300798002c0037000040eb00004f780001
:1037a4001f0037001e80fb00630140001e80fb00e9
:1037b4000000d1008080fb001e00900000804000cb
:1037c40080004000609f20000080400090409000f6
:1037d40080a2200000004100014878001e80fb0008
:1037e400640140001e80fb000000d1008080fb00cb
:1037f4001e0090000080400080004000609f200078
:10380400008040009040780080a220000000410029
:10381400014878001e40780000c0e800004f78009e
:103824002acabf009e4f5000deff3e002acabf00d6
:10383400634040000080fb0030079800020037001e
:103844000000eb00300798003e0090000080fa0072
:10385400000006000c00fa003007980041079800a9
:10386400be009000f0ff2300808f50004a00340017
:10387400be00900000002c0000804000300798003b
:103884003e009000eb0f50002e003c004e009000d4
:10389400cf80de0010079800210798003e009000ba
:1038a40080004000e09d200000804000100078006f
:1038b4000000e0002c0032003e0090008000400038
:1038c400e09d200000804000100078000001780096
:1038d4001e009000ae009000cf09dd00c100de00a4
:1038e400818071004f00dd00811f78001100090004
:1038f4004288d800cf007800000f7800be01900005
:103904003e00900080004000609f20000080400046
:10391400100078001e0178000010b8004109dd0095
:103924004f00de0000007100cf08de0000017800c7
:1039340083804100609f20000080400002087800de
:10394400090037003e009000f70f500006003c00cd
:103954003e00900080004000609f200000804000f6
:10396400ce019000030878003e00900080004000e3
:10397400609f200000804000800078003e0090009e
:103984000000400022c0b300450207006000200090
:1039940050079800020037008000eb0051079800a0
:1039a4005e0090000080fa00000006000800fa00a3
:1039b40010079800210798009e009000f0ff230054
:1039c400808f50003a0034009e0090002e0090003a
:1039d40080804000f0012400808f500034003c00bf
:1039e4009e00900000002c0000804000100798000a
:1039f4000040eb00004f78001f0037001e80fb00e2
:103a04000000d1008080fb001e0090000081400077
:103a14001e80fb00e700400080a2200000804000e0
:103a24009041780082004100609f200000804000a7
:103a3400134098001e80fb000000d1008080fb0032
:103a44001e009000008140001e80fb00e800400042
:103a540080a2200000804000904178008200410054
:103a6400609f200000804000034878001e407800da
:103a740000c0e800004f78002ecabf009e4f5000df
:103a8400deff3e00e2a2200012417800619f200088
:103a94001e00900000004000010207000004e00046
:103aa4000300320060002000300798000200370055
:103ab4000000eb00300798003e0090000080fa0000
:103ac400000006000800fa006ccabf00e14f500075
:103ad4005f003a000040eb006ceab70021ab200025
:103ae4009140780080a220004afe07000000e00018
:103af4003a003a002acabf00304798002bcabf00d8
:103b0400204798002ccabf00504798002dcabf0018
:103b14004047980029cabf000080fb003007980086
:103b24003e009000e40f500007003c003e0090006f
:103b3400e30f500016003d003e009000e10f5000de
:103b4400260035000d0037003e009000e60f5000bf
:103b5400190032003e009000e60f500011003500bd
:103b64003e009000ef0f50001c0032003e00900019
:103b7400f00f50001500320018003700ae0090001e
:103b84001e00900069fe0700b3eab7001300370077
:103b9400ae0090001e009000a9fe0700b3eab70033
:103ba4000e003700ae0090001e0090007ffe07005c
:103bb400b3eab70009003700ae0090001e00900081
:103bc40024ff0700b3eab70004003700ae009000fa
:103bd4001e00900075ff0700b3eab700b3cabf0028
:103be4000004e0001700320031ab2000914078005f
:103bf40080a2200007fe0700000f780033ab2000ee
:103c0400934178008380fb001e41780080a220004d
:103c140000804000024878000340e800b3eab7009f
:103c240033ab2000934178008380fb001e41900059
:103c340080a2200000804000024878000340e80091
:103c4400b3eab7000040eb00b2eab700defd0700bc
:103c54000080fa00000006000400fa00c9e2a9008e
:103c6400cbe2a900c8a2a800cea2a8000080fa0056
:103c7400000006000800fa00c8a2a800caa2a80012
:103c84000000eb003007980004003700000000003b
:103c94003e0090000000e80030079800be0090004d
:103ca40010032000808f5000f8ff3400c9e2a900ff
:103cb400cbe2a8000000eb002007980004003700c6
:103cc400000000002e0090000000e800200798008b
:103cd400ae00900010032000808f5000f8ff3400e5
:103ce400c8a2a900caa2a9000000eb00100798000e
:103cf40004003700000000001e0090000000e800ef
:103d0400100798009e00900010032000808f500040
:103d1400f8ff3400c9e2a900cbe2a9000000eb00df
:103d2400000f780002003700000000001e0fe800ba
:103d3400100320009e0f1000fbff34000080fa00e7
:103d4400000006000800fa00c8a2a900caa2a9003f
:103d54000000eb003007980004003700000000006a
:103d64003e0090000000e80030079800be0090007c
:103d740010032000808f5000f8ff3400c9e2a9002e
:103d8400cbe2a8000000eb002007980004003700f5
:103d9400000000002e0090000000e80020079800ba
:103da400ae00900010032000808f5000f8ff340014
:103db400c8a2a800caa2a8000000eb00100798003f
:103dc40004003700000000001e0090000000e8001e
:103dd400100798009e00900010032000808f500070
:103de400f8ff3400c8a2a800cea2a8000080fa0000
:103df400000006000c00fa000040eb00204f980081
:103e0400c9e2a900cbe2a900c8a2a800cea2a800da
:103e1400c9e2a900cbe2a8000000eb00200798004b
:103e240004003700000000002e0090000000e800ad
:103e340020079800ae00900010032000808f5000ef
:103e4400f8ff3400cac2bf000080fb004500de005a
:103e540061406000204f9800c9e2a900cbe2a900ac
:103e64000000eb0010079800040037000000000079
:103e74001e0090000000e800100798009e009000cb
:103e840010032000808f5000f8ff3400c8a2a8005f
:103e9400caa2a8002e4890000000fb000080fa008f
:103ea400000006000600fa00c8a2a900caa2a900e0
:103eb4000000eb0020079800040037000000000019
:103ec4002e0090000000e80020079800ae0090004b
:103ed40010032000808f5000f8ff3400c9e2a900cd
:103ee400cbe2a8000000eb001007980004003700a4
:103ef400000000001e0090000000e8001007980079
:103f04009e00900010032000808f5000f8ff3400c2
:103f1400c9e2a900cbe2a9000000eb00000f780081
:103f240002003700000000001e0fe800100320000c
:103f34009e0f1000fbff34000080fa000000060012
:103f44000600fa00c8a2a800caa2a8000000eb005c
:103f54002007980004003700000000002e009000a5
:103f64000000e80020079800ae0090001003200035
:103f7400808f5000f8ff3400c9e2a900cbe2a8000a
:103f84000000eb0010079800040037000000000058
:103f94001e0090000000e800100798009e009000aa
:103fa40010032000808f5000f8ff3400c9e2a900fc
:103fb400cbe2a9000000eb00000f780002003700fc
:103fc400000000001e0fe800100320009e0f1000e8
:103fd400fbff34000080fa00000006000e00fa0027
:103fe400404f9800c9e2a900cbe2a9000000eb0011
:103ff4004007980004003700000000004e009000c5
:104004000000e80040079800ce0090001003200054
:10401400808f5000f8ff34000040eb00204f9800e0
:104024003e0037004e4890008080fb002e489000f0
:104034000080fb000008dd004700de006100600036
:104044000004e0000e003200c8a2a800caa2a80022
:104054000000eb0030079800040037000000000067
:104064003e0090000000e80030079800be00900079
:1040740010032000808f5000f8ff34000d0037003b
:10408400c8a2a900caa2a9000000eb00200798005a
:1040940004003700000000002e0090000000e8003b
:1040a40020079800ae00900010032000808f50007d
:1040b400f8ff3400c9e2a900cbe2a8000000eb003d
:1040c4001007980004003700000000001e00900054
:1040d4000000e800100798009e00900010032000e4
:1040e400808f5000f8ff3400c9e2a900cbe2a90098
:1040f4000000eb00000f7800020037000000000011
:104104001e0fe800100320009e0f1000fbff340078
:104114002e4890000040e800204f98002e48900060
:10412400e74f5000bfff36000080fa000000060091
:104134000a00fa000040eb00004f9800c8a2a80053
:10414400cea2a800c9e2a900cbe2a9000000eb00be
:104154002007980004003700000000002e009000a3
:104164000000e80020079800ae0090001003200033
:10417400808f5000f8ff34000040eb00104f98008f
:1041840024003700c9e2a900cbe2a8000000eb003c
:104194001007980004003700000000001e00900083
:1041a4000000e800100798009e0090001003200013
:1041b400808f5000f8ff34000e489000004040000b
:1041c400004f9800cac2bf000042b2000004e000e1
:1041d400030032000e4890000040e800004f9800b1
:1041e400c9e2a900cbe2a9000000eb00000f7800af
:1041f40002003700000000001e0fe800100320003a
:104204009e0f1000fbff34001e4890000040e800a1
:10421400104f98001e489000e74f5000d9ff360019
:104224000e4890000080fb000080fa0000000600a9
:104234000400fa00004f7800114798008dfe070033
:1042440000cab30065ff0700eafe07000004e000af
:10425400030032000000eb00100798000d00370047
:104264001e4078005dff0700e2fe07000004e00046
:10427400030032000000eb0010079800050037002f
:104284001e40900055ff0700aefe070010002000fe
:10429400100798001e0090000080fa00000006003d
:1042a4000a00fa0020479800210798006247980006
:1042b40070fe070000cab30048ff0700cdfe0700e8
:1042c4000004e000030032000000eb004007980007
:1042d4001e0037002e40900040ff0700c5fe070077
:1042e4000004e000030032000000eb0040079800e7
:1042f400160037000040eb00004f78000d00370037
:104304002e0090001040780034ff0700b9fe07002b
:104314000004e000030032000000eb0040079800b6
:104324000a0037002e0090000000e80020079800e3
:104334001e4fe8006e4090009e4f1000f0ff3900c1
:1043440080fe070010002000400798004e009000f7
:104354000080fa00000006000600fa00004f780012
:104364001107980043fe070000cab3001bff0700b3
:10437400a0fe07000004e000030032000000eb0090
:1043840020079800190037001e40780013ff07002b
:1043940098fe07000004e000030032000000eb0078
:1043a400200798001100370032fe070010cab3003e
:1043b4000aff07008ffe07000004e000030032003c
:1043c4000000eb00200798000800370058ff0700a2
:1043d400804078001e00900001487800d8fe070055
:1043e40058fe070010002000200798002e009000bf
:1043f4000080fa00000006000a00fa002047980036
:1044040021079800624798001afe070000cab3000b
:10441400f2fe070077fe07000004e000030032000c
:104424000000eb00400798002b0037002e4090005e
:10443400eafe07006ffe07000004e00003003200fc
:104444000000eb00400798002300370009fe070036
:1044540010cab300e1fe070066fe07000004e00096
:10446400030032000000eb00400798001a003700f8
:104474000040eb00004f7800090037002cff0700d4
:10448400804078002e0090000148780085fe0700e7
:104494002e0090000000e800200798001e4fe8005e
:1044a4009e80fb006e4090000080fb000000e9004d
:1044b400808f5000f1ff35001dff07008040780019
:1044c4002e009000014878009dfe07001dfe0700a5
:1044d40010002000400798004e0090000080fa0071
:0444e40000000600ce
:020000040000fa
:1044e80000080000de010000020000000000c90012
:1044f800009201005b02230003ec0300b5047d0079
:10450800054506000d07d500079c080064092a0028
:104518000af10a00b60b7c000c410d00050ec9001b
:104528000e8c0f004f10110011d31100941254007b
:1045380013131400d1148f00154c16000817c3006c
:10454800177d18003719ef0019a61a005d1b120015
:104558001cc61c00791d2b001edc1e008b1f390099
:1045680020e7200092213d0022e622008e2334001d
:1045780024da24007d251f0026c026005f27fd00c1
:10458800279928003429cd0029652a00fa2a8e00a7
:104598002b212c00b22c41002dce2d005a2ee300e9
:1045a8002e6b2f00f12f760030f830007931f700ac
:1045b80031743200ee32670033de33005334c60004
:1045c80034363500a5351200367c3600e5364b000a
:1045d80037af37001138710038cf38002a398300d7
:1045e80039da39002f3a82003ad23a00203b6c007f
:1045f8003bb63b00fd3b42003c843c00c53c02000e
:104608003d3e3d00773dae003de23d00143e440096
:104618003e713e009c3ec5003eeb3e000e3f2f0023
:104628003f4e3f006a3f84003f9c3f00b13fc300bc
:104638003fd33f00e13fec003ff43f00fb3ffe006b
:104648003f004000e047000000e047000000000095
:104658000000000000000000000000000000000052
:104668000000000000000000000000000000000042
:104678000000000000000000000000000000000032
:104688000000000000000000000000000000000022
:104698000000000000000000000000000000000012
:1046a8000000000000000000000000000000000002
:1046b80000000000000000000000000000000000f2
:1046c80000000000000000000000000000000000e2
:1046d80000000000000000000000000000000000d2
:1046e80000000000000000000000000000000000c2
:1046f80000000000000000000000000000000000b2
:1047080000000000000000000000000000000000a1
:104718000000000000000000000000000000000091
:104728000000000000000000000000000000000081
:104738000000000000000000000000000000000071
:104748000000000000000000000000000000000061
:104758000000000000000000000000000000000051
:104768000000000000000000000000009e0a000099
:104778000a00000000000000900a00000e0000007f
:10478800020000000000000000000000000000001f
:1047980000b80b0000000000a80a00000a00000092
:1047a80002000000000000000000000000000000ff
:1047b80000000000b80a000002000000000000002d
:1047c800b20a00000600000002000000000000001d
:1047d80000000000280a0000460000000000000059
:1047e8006e0a000022000000020000000000000025
:1047f80000000000000000000000000000000000b1
:1048080000000000000000000000000000000000a0
:10481800000000000000000000000000de090000a9
:0c4828004a00000000000000000000003a
:020000040000fa
:104834000600fa00004f780011079800220798003c
:104844009e00fb0080a82000604090000080fb00d8
:10485400808f5000170032009e40780080a820000e
:104864006140980080a820009e00900011009800ec
:1048740080a82000ae0090002100980080a82000ad
:10488400604090000004e00006003200d442a8001a
:1048940080a820009000900080a8200001087800e3
:1048a40004003700d442a90081a820000000eb00d6
:1048b400800878000080fa00000006000000fa007a
:1048c40080a82000100078000000e00005003200fd
:1048d40080a82000100078008000e90080a8200053
:1048e4000108780080a8200010007800e10f500033
:1048f40024003a0080a8200060409000e24f50005d
:104904001c003a00d4c2bf000080fb004200de005d
:104914006140600000c0ea006140600061406000e6
:104924004201dd00412d200091407800b0cfb3005a
:1049340000c0600002407000d4e2b700d4c2bf00df
:10494400644060000004e0000500320080a82000fc
:104954009000900080a8200001087800090037002a
:1049640080a82000a000900080a820000108780002
:1049740004003700d442a90081a820000000eb0005
:10498400800878000080fa00000006000000fa00a9
:10499400f0ff2700b04f8800f0ff2700c04f8800c9
:1049a400f0ff2700d04f8800f0ff2700e04f880079
:1049b400f0ff2700f04f8800f0ff27000050880028
:1049c400f0ff270010508800f0ff270020508800d7
:1049d400f0ff270030508800f0ff27004050880087
:1049e400f0ff270050508800f0ff27006050880037
:1049f4000080fa00000006000c00fa00300798005e
:104a0400410798003e009000ce009000e00f500057
:104a1400e08f580003003a000000eb0050079800b4
:104a2400430037003e019000ce01900000002000ba
:104a340001042000800f5100818f59000b003e00bb
:104a44003e009000ce0090004609dd004a00de00e2
:104a540000007100ca08de00f203200003002000f9
:104a6400021f4000039748001c0037003e019000dd
:104a7400ce0190000000200001802000800f510032
:104a8400818f59000b003e003e009000ce00900044
:104a9400c409dd004c00de0000807100cc08de009b
:104aa400f20f200003002000021f4000039748007b
:104ab4000a0037003e009000ce009000c209dd00dd
:104ac4004e00de0000807100ce08de00f23f2000c0
:104ad40003002000021f4000039748000000eb0081
:104ae400200798000d0037001e01be003e00900014
:104af400ce0090009aef07003e014000ae814800ce
:104b04000200be008100d1000080d300008fbe00ef
:104b14002e0090000000e800200798002e0090006e
:104b2400e40f5000f0ff36009e0178005307980010
:104b34005e0090000080fa00000006000000fa0009
:104b44006000b8005055880061558800d042a90023
:104b5400d0e2a900c862a900c882a900d0a2a90015
:104b6400d0c2a800cc62a800cc82a800d4a2a9001c
:104b74003900070083f607007af90700c0f407003c
:104b840005f5070077f50700fff4070032fc07007e
:104b9400d4e2a8001000200001002000a04a8800f0
:104ba400b14a8800d442a9000000eb0010498800f3
:104bb400619f200002c3b3000040eb000efe07001b
:104bc400b0508000e20f400006003a006fff07007b
:104bd400e0a020008000780082c1b30060c1b3006f
:104be40005fe070021518000606624000088b9009a
:104bf4004209dd004e00de0000007100ce88de00b8
:104c0400b053880021518000d0cc24000088b90022
:104c14004209dd004e00de0000007100ce88de0097
:104c2400c053880021518000000026000088b9008c
:104c34004209dd004e00de0000007100ce88de0077
:104c4400d053880090508000005188009dfb0700dd
:104c540067f50700fdff37000000fa00900220000e
:104c6400303a880044c7bf00f043b20044e7b700bd
:104c7400417420009140780000ceb30000c0600071
:104c840044e7b7001200200081072000a00920009b
:104c94003374200081497800804978008249780083
:104ca40012002000610420007005200023742000fd
:104cb40081497800804978008249780043c7bf0061
:104cc4000047b200f04f5000fcff3a0042c7bf005b
:104cd4000042b2000004e000fcff320050c7a8000c
:104ce40051a7a80051c7bf007040b30051e7b700f7
:104cf40051e7a80051c7bf000044b2000004e0001f
:0c4d0400fcff32000080fa0000000600f6
:00000001FF
