:020000040000fa
:080000000002040000000000f2
:020000040000fa
:10040000af9d20000eff20000e01880000000000bc
:100410000c000700205621000100200011000700f9
:10042000000020000000e000020032000000020096
:100430000000000098170200000000000040da00f1
:100440000000fe004440a900000220000000e0007f
:100450000300320000002000a00188004440a800f2
:100460000000060091018800800078000000eb0089
:1004700015003700e280400032a0b4009101ba00bc
:10048000e280400032a0b4009102ba00e280400055
:1004900032a0b4000002eb00472bde00f507b200eb
:1004a000602ce10004003a000059eb008301e900f0
:1004b000fdff3e00040037006128e100010032002a
:1004c0000082eb00040007001101ba000200e00006
:1004d000e8ff3a00000006003159ba008301e90044
:1004e0000c0032002159ba008301e90008003200f3
:1004f0000400e00003003a00e280400032a0b400b3
:10050000f5ff370011d9ba008301e900faff3a007c
:100510008100e800e180400032a0b4000000060045
:1005200000000000000000000000000000000000cb
:100530000040da000000fe00839f68000100e00038
:1005400002003d0060001000e08018000300e000a1
:1005500002003d0060011100e08119000500070064
:100560004f00e00002003b0060001000e080180037
:10057000000006006022b800060220000000d00043
:100580008180d2000482d2008582d2000000a000c7
:100590000202520083825a0003003100020242002c
:1005a00083824a000000a1000603e900f3ff3a003d
:0405b0000000060041
:020000040000fa
:0200000401f009
:04000c00f8ff0000f9
:020000040000fa
:0200000401f009
:040010005bff000092
:020000040000fa
:0200000401f009
:040014007fff00006a
:020000040000fa
:0200000401f009
:04001800ffff0000e6
:020000040000fa
:0200000401f009
:04001c00dfff000002
:020000040000fa
:100008009802000098020000980200009802000080
:100018009802000098020000980200009802000070
:100028009802000098020000980200009802000060
:100038009802000098020000980200009213000045
:100048009802000098020000980200000e100000bc
:10005800761000007c0a0000980200009802000058
:100068009802000098020000980200009802000020
:100078009802000098020000980200009802000010
:100088009802000098020000980200009802000000
:1000980098020000980200009802000098020000f0
:1000a80098020000980200009802000098020000e0
:1000b80098020000980200009802000098020000d0
:1000c80098020000980200009802000098020000c0
:1000d80098020000980200009802000098020000b0
:1000e80098020000980200009802000098020000a0
:1000f8009802000098020000980200009802000090
:10010800980200009802000098020000980200007f
:10011800980200009802000098020000980200006f
:10012800980200009802000098020000980200005f
:10013800980200009802000098020000980200004f
:10014800980200009802000098020000980200003f
:10015800980200009802000098020000980200002f
:10016800980200009802000098020000980200001f
:10017800980200009802000098020000980200000f
:1001880098020000980200009802000098020000ff
:1001980098020000980200009802000098020000ef
:1001a80098020000980200009802000098020000df
:1001b80098020000980200009802000098020000cf
:1001c80098020000980200009802000098020000bf
:1001d80098020000980200009802000098020000af
:1001e800980200009802000098020000980200009f
:0801f8009802000098020000cb
:020000040000fa
:10020800980200009802000098020000980200007e
:10021800980200009802000098020000980200006e
:10022800980200009802000098020000980200005e
:100238009802000098020000980200009213000043
:100248009802000098020000980200000e100000ba
:10025800761000007c0a0000980200009802000056
:10026800980200009802000098020000980200001e
:10027800980200009802000098020000980200000e
:1002880098020000980200009802000098020000fe
:1002980098020000980200009802000098020000ee
:1002a80098020000980200009802000098020000de
:1002b80098020000980200009802000098020000ce
:1002c80098020000980200009802000098020000be
:1002d80098020000980200009802000098020000ae
:1002e800980200009802000098020000980200009e
:1002f800980200009802000098020000980200008e
:10030800980200009802000098020000980200007d
:10031800980200009802000098020000980200006d
:10032800980200009802000098020000980200005d
:10033800980200009802000098020000980200004d
:10034800980200009802000098020000980200003d
:10035800980200009802000098020000980200002d
:10036800980200009802000098020000980200001d
:10037800980200009802000098020000980200000d
:1003880098020000980200009802000098020000fd
:1003980098020000980200009802000098020000ed
:1003a80098020000980200009802000098020000dd
:1003b80098020000980200009802000098020000cd
:1003c80098020000980200009802000098020000bd
:1003d80098020000980200009802000098020000ad
:1003e800980200009802000098020000980200009d
:0803f8009802000098020000c9
:020000040000fa
:1005b4000000000001cc000001d80000001400007d
:1005c40001f00000003c00000028000001e40000ed
:1005d40001a00000006c00000078000001b40000dd
:1005e40000500000019c000001880000004400004d
:020000040000fa
:1005f4000400fa00000f78001e007800100798002d
:100604001e0090000000e00003003d001e0090006a
:100614000000ea00100798001e0090000080fa0015
:10062400000006001000fa0010198000c500dd006b
:1006340000012c000080400070488800e0488000e1
:100644000000e800e0488800f04880000000e8006e
:10065400f04888004ac9bf000004e00021003a00c5
:1006640071488000704880000181b900304a8000e0
:10067400414a80000200400083804800304a8800dc
:10068400414a8800904880007148800071079800b2
:10069400600798006e019000fe019000830f5100e6
:1006a40002003d007e00900060079800ee0090007c
:1006b40091488800a0488000724880005207980042
:1006c40040079800ce0190005e009000808f51009a
:1006d40002003400de009000410798004e019000b3
:1006e400a2488800e148800080162000808f5000d6
:1006f4000b003400804880000000e00008003d004a
:10070400704880000000e00005003500704880005b
:1007140081488000010050000000e00004003c001b
:10072400e1488000803e2000808f50002e0034007d
:100734004ac9bf00e24f50000a003a006000b80006
:10074400304a8800414a88000000eb00a048880035
:10075400a0488000904888000040eb004ae9b700b8
:100764000900370091488000a048800000804000c4
:100774000080d100c0488800e0488000b04888006c
:1007840010c0b3004ae9b700e0488000b0488800d0
:10079400b0488000404d88000000eb00e04888002d
:1007a40022c9bf00e44f50000c003200c14c80004d
:1007b400803e2000808f50000800340023c9bf0011
:1007c4000040e80023e9b70023c9bf00f44f5000fc
:1007d4000200360040c0b30022e9b70022c9bf00be
:1007e4000000fb00d04c8800e14880000008200095
:1007f400808f50000d003400804880000000e0002d
:100804000a003400704880000000e00007003c004b
:100814008048800071488000010050000000e00022
:10082400020034000000eb00f048880070488000ab
:1008340080488800604880000000e00006003a001c
:1008440042c4bf00f043b20001c8b30001407000cd
:1008540042e4b70007003700614880000010200020
:10086400808f500003003a0042c4bf00f043b2003e
:1008740042e4b70053488000330798006148800081
:10088400f0072000808f500007003c006048800083
:1008940080004000008020000080400010007800ac
:1008a400200798002600370061488000f00f2000e0
:1008b400808f500009003c00614880000010200037
:1008c40001005000800040000080200000804000b3
:1008d4001000780010079800170037006148800066
:1008e400f0172000808f500009003c006148800010
:1008f40000f02f00008040008000400000802000b5
:100904000080400010007800000f780008003700d5
:100914006148800000202000010050008000400059
:10092400008020000080400010007800000f780054
:100934001e007800100798009e0090002107980080
:100944002e019000be0190000390b9004109dd0022
:100954004f00de0000007100cf88de0030228800e6
:10096400604880000000e800022020001100090017
:100974000200d8008000fd00604888000603a9003a
:100984000080fa00000006003a00fa0020198000f6
:10099400c500dd0000012c000080400030498800c3
:1009a400704980000000e80070498800e049800038
:1009b4000000e800e04988004bc9bf000004e000e3
:1009c40021003a0031498000304980000181b9009a
:1009d400104a8000214a80000200400083804800c1
:1009e400104a8800214a880050498000314980001b
:1009f400411f9800301f98003e199000ce199000b6
:100a0400830f510002003d004e1a9000341f9800dd
:100a1400be1a900055498800604980003149800021
:100a2400211f9800101f98001e199000ae19900005
:100a3400830f5100020034002e1a9000141f9800f6
:100a44009e1a9000654988007149800000082000c2
:100a5400808f50000d003400404980000000e00009
:100a64000a003400304980000000e00007003c0028
:100a74004049800031498000010050000000e0003e
:100a8400020034000000eb00e04988007149800056
:100a940080162000808f50000b00340040498000f5
:100aa4000000e00008003d00304980000000e00044
:100ab40005003500304980004149800001005000a4
:100ac4000000e00004003c0071498000803e2000ea
:100ad400808f50009b013400704980008049880059
:100ae4000000eb00704988004bc9bf00e24f500082
:100af4000a003a006000b800104a8800214a8800c1
:100b04000000eb006049880060498000504988007b
:100b14000040eb004be9b700070037005149800063
:100b240060498000008040000080d1009049880026
:100b340010c0b3004be9b70041c9bf000000fb007f
:100b4400001f98000e189000e10f500022003200a0
:100b54008e189000e48f5000750032000e1990003a
:100b64000200e00001003200710137007149800089
:100b7400703e2000808f500003003c00b04980008c
:100b84000000e800b0498800b0498000ea0f500036
:100b940067013400a14c8000803e2000808f50000b
:100ba4006301340010c0b30041e9b700007e2400a3
:100bb400010020001048880021488800007e24009d
:100bc4000100200030488800414888000000eb0004
:100bd400b04988005601370081498000f01f200089
:100be400808f500017003400124880002348800092
:100bf4006022b800641798007517980070a3240049
:100c040001002000800f5100818f590004003c0036
:100c14001000200001002000601798007117980050
:100c240010488000214880006e119000fe11900051
:100c34000200400083804800104888002148880052
:100c44002900370081498000e01f2000808f500078
:100c54001b003c001448800025488000441798007d
:100c64005517980012488000234880006000b8009f
:100c740020179800311798008026240001002000d6
:100c8400800f5100818f59000400340012002000ad
:100c94000300200022179800331798004e1290008a
:100ca400de1290002e119000be119000020052003e
:100cb40083805a0010488800214888000a003700c1
:100cc40040c9bf000040e80040e9b70040c9bf0088
:100cd400ea4f50000400360040c0b30041e9b700b9
:100ce4000040eb0040e9b700124880002348800030
:100cf400c045240001002000800f5100818f59005d
:100d04000b013400124880002348800070a32400a3
:100d140001002000800f5100818f590004013c0024
:100d240010488000214880004021880000013700dd
:100d340081498000703e2000808f50000a003400fa
:100d4400c04980000000e800c0498800c049800014
:100d5400ea0f5000040034000040eb0041e9b70002
:100d64000000eb00c049880081498000f01f20008a
:100d7400808f50001a0034001248800023488000fd
:100d84006022b800041798001517980070a3240077
:100d940001002000800f5100818f590004003c00a5
:100da400100020000100200000179800111798007f
:100db40010488000214880000e1190009e11900080
:100dc40002004000838048001048880021488800c1
:100dd400104880002148800040218800210037000d
:100de40081498000e01f2000808f50001d003c00de
:100df4001448800025488000640f9800750f9800ff
:100e040012488000234880006000b800400f98001a
:100e1400510f98008026240001002000800f51000b
:100e2400818f5900040034001200200003002000c8
:100e3400420f9800530f98006e0a9000fe0a90002b
:100e44004e099000de0990000200520083805a008f
:100e540010488800214888001048800021488000fc
:100e64004021880022c9bf00e44f5000b0003a007e
:100e7400104880002148800000017800304880003c
:100e84004148800000005100d9fd0700800078002f
:100e940010032000808f500058003c00f14880006f
:100ea400e049800000805000c04d8800c04d8000a3
:100eb400cffd07000000e0008c003400c14d80002d
:100ec40000082000808f5000020034000008200039
:100ed400c04d8800c14d800000f82f00808f500065
:100ee40002003d0000f82f00c04d8800c14d800075
:100ef400604a8000008050006101b90030488000e1
:100f04004148800002004000838048003048880047
:100f140041488800c04d8000e20f500017003400a3
:100f240032488000434880006022b800240f9800b3
:100f3400350f980070a3240001002000800f510099
:100f4400818f590004003c001000200001002000a3
:100f5400200f9800310f98003048800041488000ed
:100f64002e099000be0990000200400083804800d2
:100f740030488800414888001d003700c04d80007b
:100f8400e20f40001a003d003448800045488000cc
:100f9400040f9800150f98003248800043488000e1
:100fa4006000b8006007980071079800802624004c
:100fb40001002000800f5100818f5900040034008b
:100fc40012002000030020006207980073079800b5
:100fd4000e0a90009e0a90006e019000fe0190009f
:100fe4000200520083805a0030488800414888003b
:100ff400c04d8000604a88003c00370032488000c1
:10100400434880001048800021488000800f510030
:10101400818f590017003d0032488000434880000a
:101024006022b800440798005507980070a3240074
:1010340001002000800f5100818f590004003c0002
:10104400100020000100200040079800510798007c
:1010540030488000414880004e019000de0190003d
:1010640002004000838048003048880041488800de
:101074001e0037003248800043488000104880003a
:1010840021488000800f5100818f590017003400df
:1010940034488000454880002407980035079800ac
:1010a40032488000434880006000b800008fbe00d2
:1010b4008026240001002000800f5100818f5900f8
:1010c400030034001200200003002000028fbe0041
:1010d4002e029000be0290001e01be0002005200cb
:1010e40083805a0030488800414888003248800094
:1010f400434880008026240001002000800f510016
:10110400818f59000a00340032488000434880002f
:1011140070a3240001002000800f5100818f59002a
:1011240003003c0030488000414880004022880091
:1011340080498000304d880041c9bf000000fb0099
:10114400b04c880030498000404988000623a9003b
:101154000080fa00000006000000fa0001e3a90084
:1011640001a3a9000183a8000103a90000e3a800ca
:1011740000c3a90000a3a9000083a8000130200037
:101184009140780080cfb30000c060005040b300ad
:1011940000e3b7000000eb00301888000203a90048
:1011a4000223a900a13020009140780000ceb300b2
:1011b40000c060005040b3000ae3b7000ae3a8008f
:1011c4000243a9000263a900b130200091407800d5
:1011d40000ceb30000c060000024a0000be3b70001
:1011e4000be3a800a10a200091407800f0c8b300e6
:1011f40000c060000044a000aae0b70085a0a900d8
:1012040095a0a80040312000d04d8800604c2000fb
:10121400f04d8800a09b2000401888000080fa0050
:10122400000006000000fa0001e3a8000080fa00b4
:10123400000006000000fa002124a80020c4bf001a
:10124400f043b20020e4b7002044a80023e4a8003f
:1012540023c4a800314220009140780030cfb3006d
:1012640000c0600023e4b70022c4bf00f043b20012
:1012740022e4b7002324a8002304a8000000eb0004
:1012840060218800007e240040218800003f220065
:1012940030218800003f220090218800003f220076
:1012a400b021880034e4a80035c4bf006f4060005a
:1012b4000044a00035e4b700414320009140780089
:1012c40000ccb30000c0600034e4b700300020005c
:1012d400202188004124a80040c4bf00f043b2008c
:1012e40040e4b7004044a80043e4a80043c4a80075
:1012f40043a4a8004384a80031442000914078000e
:1013040030cfb30000c0600043e4b70042c4bf0064
:10131400f043b20042e4b7004204a8004324a8000a
:101324004304a8000000eb0060228800007e240033
:1013340040228800007e240030228800003f2200e2
:1013440090228800003f2200b022880054e4a800c4
:1013540055c4bf006f4060000044a00055e4b700ce
:10136400414520009140780000ccb30000c06000eb
:1013740054e4b70030002000202288000080fa00e6
:10138400000006000000fa0001e4a8002324a900dc
:101394002304a9004304a9000080fa000000060009
:1013a4001400fa0020079800310798006148800073
:1013b400f0072000808f500007003c006048800048
:1013c4008000400000802000008040001000780071
:1013d400100f98002600370061488000f00f2000ad
:1013e400808f500009003c006148800000102000fc
:1013f4000100500080004000008020000080400078
:1014040010007800000f9800170037006148800032
:10141400f0172000808f500009003c0061488000d4
:1014240000f02f0000804000800040000080200079
:101434000080400010007800700798000800370012
:10144400614880000020200001005000800040001e
:101454000080200000804000100078007007980091
:101464007e009000000f98008e089000110f9800e5
:101474003e0090001e0990000090b9004109dd0073
:101484004f00de0000007100cf88de00008fbe0038
:101494001048800021488000be0f1000ae8f180055
:1014a4000e003c001e00be00400798005107980043
:1014b4004e009000de009000e00f5000e08f5800d6
:1014c40003003d006000b8004007980051079800f1
:1014d400ce00900061079800030037001048800098
:1014e40021488000600798006e0090000080fa0098
:1014f400000006003600f800809fbe00829fbe00f8
:10150400849fbe00869fbe000000fa0085a0a9004b
:101514004018800010007800000001000080fa00ec
:101524004f03be004f02be004f01be004f00be007d
:101534003600f900004006000000fa004ac9bf0066
:10154400e14f50002a003a00344a8000454a8000a6
:10155400b04880006101b9000400be00f5fb07003b
:10156400304a8800414a8800304a8000414a80005d
:10157400f0050700004e8800d148800090992700ac
:101584000088b9004109dd004f00de000000710051
:10159400cf88de0000017800014e800060662000e4
:1015a4000088b900c109dd004f00de000080710031
:1015b400cf88de0000004100d04888006000b800f9
:1015c400304a8800414a8800d1488000b077220020
:1015d4000088b9004109dd004f00de000000710001
:1015e400cf88de00c04c880020c0b3004ae9b700b1
:1015f4004bc9bf00e14f50002a003a00144a800052
:10160400254a8000804980006101b9000400be00c1
:10161400c8fb0700104a8800214a8800104a80004d
:10162400214a8000c3050700004e8800a1498000bc
:10163400909927000088b900c109dd004f00de0041
:1016440000807100cf88de0000017800014e800028
:10165400606620000088b900c109dd004f00de008b
:1016640000807100cf88de0000004100a04988009e
:101674006000b800104a8800214a8800a14980000f
:1016840060d124000088b9004109dd004f00de006c
:1016940000007100cf88de00a04c880020c0b30099
:1016a4004be9b7000080fa00000006000400fa00cd
:1016b400c9e2a900cbe2a900c8a2a800cea2a80052
:1016c4000080fa00000006000800fa00c8a2a80082
:1016d400caa2a8000000eb003007980004003700fd
:1016e400000000003e0090000000e8003007980071
:1016f400be00900010032000808f5000f8ff3400db
:10170400c9e2a900cbe2a8000000eb002007980082
:1017140004003700000000002e0090000000e800e4
:1017240020079800ae00900010032000808f500026
:10173400f8ff3400c8a2a900caa2a9000000eb0067
:101744001007980004003700000000001e009000fd
:101754000000e800100798009e009000100320008d
:10176400808f5000f8ff3400c9e2a900cbe2a90041
:101774000000eb00000f78000200370000000000ba
:101784001e0fe800100320009e0f1000fbff340022
:101794000080fa00000006000800fa00c8a2a900b0
:1017a400caa2a9000000eb0030079800040037002b
:1017b400000000003e0090000000e80030079800a0
:1017c400be00900010032000808f5000f8ff34000a
:1017d400c9e2a900cbe2a8000000eb0020079800b2
:1017e40004003700000000002e0090000000e80014
:1017f40020079800ae00900010032000808f500056
:10180400f8ff3400c8a2a800caa2a8000000eb0098
:101814001007980004003700000000001e0090002c
:101824000000e800100798009e00900010032000bc
:10183400808f5000f8ff3400c8a2a800cea2a800f0
:101844000080fa00000006000c00fa000040eb00e3
:10185400204f9800c9e2a900cbe2a900c8a2a800c1
:10186400cea2a800c9e2a900cbe2a8000000eb00c8
:101874002007980004003700000000002e009000ac
:101884000000e80020079800ae009000100320003c
:10189400808f5000f8ff3400cac2bf000080fb00f4
:1018a4004500de0061406000204f9800c9e2a900b5
:1018b400cbe2a9000000eb001007980004003700f9
:1018c400000000001e0090000000e80010079800cf
:1018d4009e00900010032000808f5000f8ff340019
:1018e400c8a2a800caa2a8002e4890000000fb00cd
:1018f4000080fa00000006000600fa00c8a2a90051
:10190400caa2a9000000eb002007980004003700d9
:10191400000000002e0090000000e800200798005e
:10192400ae00900010032000808f5000f8ff3400b8
:10193400c9e2a900cbe2a8000000eb001007980060
:1019440004003700000000001e0090000000e800c2
:10195400100798009e00900010032000808f500014
:10196400f8ff3400c9e2a900cbe2a9000000eb00b3
:10197400000f780002003700000000001e0fe8008e
:10198400100320009e0f1000fbff34000080fa00bb
:10199400000006000600fa00c8a2a800caa2a80017
:1019a4000000eb002007980004003700000000004e
:1019b4002e0090000000e80020079800ae00900080
:1019c40010032000808f5000f8ff3400c9e2a90002
:1019d400cbe2a8000000eb001007980004003700d9
:1019e400000000001e0090000000e80010079800ae
:1019f4009e00900010032000808f5000f8ff3400f8
:101a0400c9e2a900cbe2a9000000eb00000f7800b6
:101a140002003700000000001e0fe8001003200041
:101a24009e0f1000fbff34000080fa000000060047
:101a34000e00fa00404f9800c9e2a900cbe2a900c9
:101a44000000eb004007980004003700000000008d
:101a54004e0090000000e80040079800ce0090007f
:101a640010032000808f5000f8ff34000040eb008a
:101a7400204f98003e0037004e4890008080fb00c5
:101a84002e4890000080fb000008dd004700de00c7
:101a9400610060000004e0000e003200c8a2a8004b
:101aa400caa2a8000000eb00300798000400370029
:101ab400000000003e0090000000e800300798009d
:101ac400be00900010032000808f5000f8ff340007
:101ad4000d003700c8a2a900caa2a9000000eb00ab
:101ae4002007980004003700000000002e0090003a
:101af4000000e80020079800ae00900010032000ca
:101b0400808f5000f8ff3400c9e2a900cbe2a8009e
:101b14000000eb00100798000400370000000000ec
:101b24001e0090000000e800100798009e0090003e
:101b340010032000808f5000f8ff3400c9e2a90090
:101b4400cbe2a9000000eb00000f78000200370090
:101b5400000000001e0fe800100320009e0f10007c
:101b6400fbff34002e4890000040e800204f98000e
:101b74002e489000e74f5000bfff36000080fa0067
:101b8400000006000a00fa000040eb00004f980035
:101b9400c8a2a800cea2a800c9e2a900cbe2a9006d
:101ba4000000eb002007980004003700000000004c
:101bb4002e0090000000e80020079800ae0090007e
:101bc40010032000808f5000f8ff34000040eb0029
:101bd400104f980024003700c9e2a900cbe2a80006
:101be4000000eb001007980004003700000000001c
:101bf4001e0090000000e800100798009e0090006e
:101c040010032000808f5000f8ff34000e4890002d
:101c140000404000004f9800cac2bf000042b2001a
:101c24000004e000030032000e4890000040e80089
:101c3400004f9800c9e2a900cbe2a9000000eb0024
:101c4400000f780002003700000000001e0fe800bb
:101c5400100320009e0f1000fbff34001e4890006c
:101c64000040e800104f98001e489000e74f5000d5
:101c7400d9ff36000e4890000080fb000080fa0077
:101c8400000006000400fa00004f78001147980095
:101c94008dfe070000cab30065ff0700eafe0700d7
:101ca4000004e000030032000000eb00100798007d
:101cb4000d0037001e4078005dff0700e2fe0700bc
:101cc4000004e000030032000000eb00100798005d
:101cd400050037001e40900055ff0700aefe0700c8
:101ce40010002000100798001e0090000080fa00e9
:101cf400000006000a00fa00204798002107980017
:101d04006247980070fe070000cab30048ff07004e
:101d1400cdfe07000004e000030032000000eb00e9
:101d2400400798001e0037002e40900040ff070037
:101d3400c5fe07000004e000030032000000eb00d1
:101d440040079800160037000040eb00004f780071
:101d54000d0037002e0090001040780034ff07007b
:101d6400b9fe07000004e000030032000000eb00ad
:101d7400400798000a0037002e0090000000e80099
:101d8400200798001e4fe8006e4090009e4f100000
:101d9400f0ff390080fe0700100020004007980083
:101da4004e0090000080fa00000006000600fa00d1
:101db400204798000040eb00004f780042fe0700e7
:101dc40000cab3001aff07009ffe07000004e000ea
:101dd40003003a000000eb002007980018003700c9
:101de4002e40900012ff070097fe07000004e00059
:101df400030032000000eb002007980010003700b9
:101e040065fe070030fe070010cab30008ff070094
:101e14008dfe07000004e000030032000000eb0028
:101e2400200798000600370056ff0700004f78008f
:101e3400d8fe070058fe07001e80fb00200798000c
:101e44002e0090000080fa00000006000a00fa004c
:101e54002047980021079800624798001afe07005f
:101e640000cab300f2fe070077fe07000004e0009a
:101e7400030032000000eb00400798002b003700fd
:101e84002e409000eafe07006ffe07000004e00009
:101e9400030032000000eb004007980023003700e5
:101ea40009fe070010cab300e1fe070066fe070042
:101eb4000004e000030032000000eb00400798003b
:101ec4001a0037000040eb00004f7800090037008b
:101ed4002cff0700804078002e0090000148780015
:101ee40085fe07002e0090000000e80020079800ff
:101ef4001e4fe8009e80fb006e4090000080fb00b7
:101f04000000e900808f5000f1ff35001dff07003d
:101f1400804078002e009000014878009dfe070064
:101f24001dfe070010002000400798004e0090009e
:101f34000080fa00000006000000fa0021e2a80078
:101f4400012220009140780090cfb30000c06000cf
:101f54000024a00020e2b7002002a9000000eb004a
:101f64001011880020102000401188009560a800fe
:101f74009580a80022c2bf00f043b20022e2b7005d
:101f840023e2a90023a2a800016e2000914078005a
:101f940000ccb30000c060003040b300e0e6b700fe
:101fa400416a20009140780000ccb30000c060007a
:101fb400d041b300a4e6b7000040eb00d2e9b7007b
:101fc4000040eb00d3e9b7000080fa0000000600ef
:101fd4000000fa00b14e8000401f2000808f5000a6
:101fe4000500360010c0b30092e9b7000000eb0012
:101ff400b04e880006003700b04e80000000e000bc
:1020040003003200b04e80000000e800b04e8800ab
:102014000080fa0000000600809fbe00829fbe0080
:102024000200fa008560a90010002000b04e88006c
:102034002500370030118000000f7800d2c9bf009e
:102044000004e00010003200219d2000914078003f
:10205400f0c3b30080cf50000b003e00229d20004f
:10206400124178008281fb001e00780080407800d5
:10207400e094200000804100014878000240e8001c
:10208400d2e9b70010003700200020009e0f100096
:102094000b003a00229d2000124178008281fb004f
:1020a4001e00780080407800e09420000080410009
:1020b400014878000240e800d2e9b7000200370086
:1020c4000040eb00d2e9b70022c2bf0061406000cb
:1020d4000004e000d7ff3a000080fa004f01be0080
:1020e4004f00be0000400600809fbe00821f7800a3
:1020f4000000fa008580a900419d200091407800ed
:10210400d3c9bf0080cf500005003100419d20009d
:1021140091407800f0c3b30080cf50000e00360029
:102124000040eb00d3e9b7002342a900d4c2bf00aa
:102134000080fb004700de0000c0ea006140600050
:10214400c700dd00d4c2bf000074a10001407000cc
:10215400d4e2b7000a003700429d20001241780003
:102164008280fb00e0942000008040001040780052
:102174000080fb00201188000240e800d4e9b70089
:102184000080fa004f0178004f00be0000400600b6
:102194000000fa002342a8000040eb00d4e9b70095
:1021a400429d2000124178008280fb00e0942000d0
:1021b40000804000104078000080fb00201188005f
:1021c4000240e800d4e9b7000080fa0000000600ed
:1021d4000800fa0020079800614798000080eb008f
:1021e400100798000040eb001047980022003700c9
:1021f4002e009000104f78002e0090000000e800a0
:10220400200798009e80fb001e009000008068005c
:102214006f00600080004000a02d28000080400076
:10222400900078001e0090004400de0000806800ea
:10223400100798001e80fb004400de008080fb0035
:102244001e009000008068006f0060008000400065
:10225400a02d280000804000900078001e0090000f
:102264004400de0000806800100798001e409000c3
:102274000040e800104798009e4090006e40900097
:1022840080cf5000daff39001e0090000080fa0071
:10229400000006000200fa00000f78001e0078001b
:1022a400c800de004800dd00010070000080fa0074
:1022b400000006000a00fa00200798003107980081
:1022c4000040eb00204798003e00900000004000d2
:1022d40050e9b7002e009000eb0f500034003c0092
:1022e4002e009000be00900001004000ec0f500052
:1022f4002f003c000040eb003047980024003700da
:102304003e4090000080fb00630140002e009000de
:1023140000004000800078003e4090000080fb00f8
:1023240080804000409920000000e80000804000c8
:102334001040780080407800e094200000004100c4
:10234400014878003e4090000080fb00640140009a
:102354002e00900000004000800078003e40900075
:102364000080fb00808040004099200000804000f5
:102374001040780080407800e09420000000410084
:10238400014878003e40900000c0e80030479800c3
:1023940001952000914078003e40900080cf50008d
:1023a400d7ff3e0010c0b300204798001600370046
:1023b400ae009000f0ff2300808f50001200340024
:1023c400ae0090003e009000808040000001240098
:1023d400808f50000c003c00ae00900000002c00e8
:1023e40000804000200798000295200012417800e8
:1023f400119520002e0090000000400093fe07007d
:1024040010c0b300204798002e4090000004e00064
:102414001c00320050c9bf00634040008040780077
:10242400e09420006aff0700000f780050c9bf0045
:102434000080fb00630140001e00780080407800ab
:10244400e0942000000041000148780050c9bf001a
:102454000080fb00640140001e0078004800de009c
:1024640080407800e094200000004100014878009a
:1024740050c9bf00654040000080fb004007980041
:10248400020037000000eb00400798004e00900067
:102494000080fa00000006000600fa001007980009
:1024a400210798002e0090007aff0700000f7800a3
:1024b4009e009000f0ff2300808f50000d00340038
:1024c4009e00900000012400808f500009003c0011
:1024d4009e00900000002c0000804000100798002f
:1024e4008e0078001e0090000000400022c0b3005f
:1024f40000fe0700d2c9bf000080fb000080fa0084
:10250400000006000a00fa0010079800210798004e
:10251400320798009e009000f0ff2300808f500047
:102524001d0034009e0090002e009000808040002a
:10253400f0002400808f500017003c009e009000a3
:1025440000002c0000804000100798002e0090002e
:1025540000004000004178001e0090000000400090
:10256400be009000e3fd070061c0b300e0942000ca
:1025740017ff0700000f78001e00780054e9b70029
:102584001e0078004800de0055e9b70080002000f6
:1025940040079800020037000000eb004007980055
:1025a4004e0090000080fa00000006000600fa00c9
:1025b40092c9bf00e14f500042003a000040eb00d6
:1025c40092e9b700219d200091407800e09420001a
:1025d400fffe07000000e00037003a0050c9bf00ca
:1025e4000080fb004800dd001007980051c9bf00bf
:1025f4008080fb001e00900001007000100798000e
:1026040052c9bf000080fb004800dd00000f7800c5
:1026140053c9bf000080fb001e0f70004fc9bf00ec
:102624000080fb00200798002e009000e40f50006b
:1026340004003c002e009000e30f50000f003d000a
:102644001d0037002e009000ef0f50001a003200da
:102654002e009000ef0f500004003c002e0090006c
:10266400e60f500014003c00090037002e009000d3
:10267400f00f50000b0032000f0037009e0078006e
:102684001e0090000bff0700d3e9b7000a003700d3
:102694009e0078001e0090007fff0700d3e9b7007a
:1026a40005003700529520009e0078001e0090001f
:1026b40094ff0700d3e9b7000040eb00d2e9b7006c
:1026c400b3fe07000080fa00000006000000fa00d4
:1026d4000111200091407800f0ccb30000c06000ec
:1026e40010e1b70000fa200060088800710a200099
:1026f40091407800f0c8b30000c0600001c4b3008a
:1027040001407000a7e0b70094e0a80011e1a80020
:1027140040002000c04e88000080fa00000006003f
:102724003600f800809fbe00829fbe00849fbe00da
:10273400869fbe000200fa00114e800080bb20007c
:10274400808f50000c0034000000eb00104e880015
:10275400d4c2bf000080fb004700de0000c0ea00d6
:1027640061406000c700dd00d4c2bf000074a10056
:1027740001407000d4e2b700104e80000000e80071
:10278400104e8800f1498000b04d80006140600027
:102794000080fb0000804000f0498800014980006f
:1027a400b04d80000000d100614060000080fb005b
:1027b400008040000049880005fe0700c04e8000ec
:1027c400000f78001e007800e20f50005300320022
:1027d4001e007800e20f500007003c001e00780045
:1027e4000000e0000b0032001e007800e10f5000f2
:1027f40089003200a00037001e007800e30f50006b
:102804009d0032001e007800e40f50008300320067
:10281400990037000040eb0024e9b70041c9bf002c
:10282400e44f50002f003a00a14c8000007d2000ae
:10283400808f5000200034005148800060eb270056
:10284400808f50000a003c00c14c8000a04c8000e6
:10285400808f500006003d00504880000000e800d2
:10286400504888006000b800404e8800514e8800ef
:10287400404e8000514e800061004000e0804800de
:10288400404e8800514e8800424e8000534e8000d6
:102894000053270001002000800f5100818f590050
:1028a400050034006000b800404e8800514e880096
:1028b40020002000c04e8800d4c2bf000080fb006e
:1028c4004700de0000c0ea0061406000c700dd0090
:1028d400d4c2bf000074a10001407000d4e2b7006c
:1028e400650037005148800060eb2700808f50005e
:1028f40004003c00504880000000e8005048880074
:102904005d0037006000b800404e8800514e8800da
:1029140020002000c04e88005700370041c9bf0086
:10292400e44f500054003a005148800060eb270007
:10293400808f500003003c00504880000000e800f5
:102944005048880051488000d0cc2000808f50002f
:1029540003003400504880000000e900504888001b
:10296400ccc2bf00684060000004e00042003200b6
:10297400114e8000007d2000808f50000e003a0030
:10298400d4c2bf000080fb004200de006140600052
:1029940000c0ea0061406000614060004201dd0067
:1029a400412d200091407800b0cfb30000c06000fa
:1029b40002407000d4e2b70024c9bf00e44f5000c5
:1029c4002d003400404e8000514e800061004000d4
:1029d400e0804800404e8800514e8800424e8000fe
:1029e400534e80000053270001002000800f510047
:1029f400818f5900200034006000b800404e8800e8
:102a0400514e8800cc62a900d4a2a900d4e2a90046
:102a1400d442a90018003700170037000000eb006b
:102a240050488800204e8000314e800061004000f4
:102a3400e0804800204e8800314e8800224e8000fd
:102a4400334e800000a62e0001002000800f5100ac
:102a5400818f5900080036006000b800204e8800bd
:102a6400314e8800cc82a900cc62a900d4a2a9006e
:102a74000000eb00c04e880041c9bf00e44f500085
:102a840003003a0010c0b300ace9b70002003700fd
:102a94000040eb00ace9b7000000eb003008880010
:102aa40084e0a9000080fa004f03be004f02be007c
:102ab4004f01be004f00be003600f9000040060082
:020000040000fa
:102ac400000800004e010000020000000000c900e0
:102ad400009201005b02230003ec0300b5047d00b7
:102ae400054506000d07d500079c080064092a0067
:102af4000af10a00b60b7c000c410d00050ec9005a
:102b04000e8c0f004f10110011d3110094125400b9
:102b140013131400d1148f00154c16000817c300aa
:102b2400177d18003719ef0019a61a005d1b120053
:102b34001cc61c00791d2b001edc1e008b1f3900d7
:102b440020e7200092213d0022e622008e2334005b
:102b540024da24007d251f0026c026005f27fd00ff
:102b6400279928003429cd0029652a00fa2a8e00e5
:102b74002b212c00b22c41002dce2d005a2ee30027
:102b84002e6b2f00f12f760030f830007931f700ea
:102b940031743200ee32670033de33005334c60042
:102ba40034363500a5351200367c3600e5364b0048
:102bb40037af37001138710038cf38002a39830015
:102bc40039da39002f3a82003ad23a00203b6c00bd
:102bd4003bb63b00fd3b42003c843c00c53c02004c
:102be4003d3e3d00773dae003de23d00143e4400d5
:102bf4003e713e009c3ec5003eeb3e000e3f2f0062
:102c04003f4e3f006a3f84003f9c3f00b13fc300fa
:102c14003fd33f00e13fec003ff43f00fb3ffe00a9
:102c24003f004000e047000000e0470000000000d3
:102c34000000000000000000000000000000000090
:102c44000000000000000000000000000000000080
:102c54000000000000000000000000000000000070
:102c64000000000000000000000000000000000060
:102c74000000000000000000000000000000000050
:102c8400000000000303000000000000b809000079
:102c94000a00000000000000cc090000060000004b
:102ca400020000000000000000000000c209000053
:102cb4000a00000002000000000000000000000004
:102cc4000000000000000000d8090000020000001d
:102cd40000000000d209000006000000020000000d
:102ce40000000000000000004e0900004600000043
:102cf400000000009409000024000000020000000d
:102d040000000000000000000000000000000000bf
:102d140000000000000000000000000000000000af
:102d2400000000000000000000000000000000009f
:042d3400000000009b
:020000040000fa
:102d38000c00fa0030079800410798003e00900008
:102d4800ce009000e00f5000e08f580003003a00da
:102d58000000eb0050079800430037003e01900048
:102d6800ce0190000000200001042000800f5100d7
:102d7800818f59000b003e003e009000ce0090006d
:102d88004609dd004a00de0000007100ca08de00c6
:102d9800f203200003002000021f400003974800b0
:102da8001c0037003e019000ce019000000020007a
:102db80001802000800f5100818f59000b003e00d8
:102dc8003e009000ce009000c409dd004c00de00fb
:102dd80000807100cc08de00f20f20000300200004
:102de800021f4000039748000a0037003e00900089
:102df800ce009000c209dd004e00de0000807100a8
:102e0800ce08de00f23f200003002000021f400031
:102e1800039748000000eb00200798000d003700da
:102e28001e01be003e009000ce009000cff50700c6
:102e38003e014000ae8148000200be008100d10082
:102e48000080d300008fbe002e0090000000e80034
:102e5800200798002e009000e40f5000f0ff360085
:102e68009e017800530798005e0090000080fa00e9
:102e7800000006000000fa0090022000303a8800a6
:102e880044c7bf00f043b20044e7b70041742000d4
:102e98009140780000ceb30000c0600044e7b7005e
:102ea8001200200081072000a009200033742000b0
:102eb8008149780080497800824978001200200012
:102ec80061042000700520002374200081497800e7
:102ed800804978008249780043c7bf000047b200a4
:102ee800f04f5000fcff3a0042c7bf000042b2005a
:102ef8000004e000fcff320050c7a80051a7a8005a
:102f080051c7bf007040b30051e7b70051e7a800b0
:102f180051c7bf000044b2000004e000fcff3200cb
:102f28000080fa00000006000000fa006000b80007
:102f3800404e8800514e8800d042a900d0e2a90036
:102f4800c862a900c882a900d0a2a900cc62a800c2
:102f5800cc82a800d4a2a800c6ff0700dafd0700ab
:102f6800f4fb07007bf80700adf80700b0f807008e
:102f780003f90700ccf90700d4e2a80010002000ec
:102f880001002000204e8800314e88000000eb0030
:102f98005048880084fd070066f90700fdff3700e8
:00000001FF
