:020000040000fa
:080000000002040000000000f2
:020000040000fa
:10040000af9e20000eff20000e01880000000000bb
:100410000c000700c0862100010020001100070029
:10042000000020000000e000020032000000020096
:1004300000000000541a0200000000000040da0032
:100440000000fe004440a900000220000000e0007f
:100450000300320000002000a00188004440a800f2
:100460000000060091018800800078000000eb0089
:1004700015003700e280400032a0b4009101ba00bc
:10048000e280400032a0b4009102ba00e280400055
:1004900032a0b4000002eb00472bde00f507b200eb
:1004a000602ce10004003a000059eb008301e900f0
:1004b000fdff3e00040037006128e100010032002a
:1004c0000082eb00040007001101ba000200e00006
:1004d000e8ff3a00000006003159ba008301e90044
:1004e0000c0032002159ba008301e90008003200f3
:1004f0000400e00003003a00e280400032a0b400b3
:10050000f5ff370011d9ba008301e900faff3a007c
:100510008100e800e180400032a0b4000000060045
:1005200000000000000000000000000000000000cb
:100530000040da000000fe00881f78000004780008
:100540005001be004000be0004004000858048000d
:100550000601490087814900009cbe000294be004c
:100560000400e1000588e1000690e1000798e10041
:1005700002003100680044001008e8004f047800d1
:1005800000000600f4874700889fbe008a9fbe00d7
:100590008c9fbe008e1f78000205be000004be00c6
:1005a000d4b79f00e5b79f00f6b79f0087bf9f00b5
:1005b0000000eb00c0b79f00b0b79f00a0b79f003e
:1005c00090b79f0080b79f000d042000bfb0970038
:1005d0004fb09700000140000000e0000f003d0018
:1005e0004f08de0000007100c0b79f009e000700aa
:1005f00001003d0012002000a100070001003d00a5
:1006000012002000a6000700b1000700b600070096
:100610000f004000c8ff0700220037004f08de002f
:1006200000067100ccb79f008f00070001003d005d
:10063000120020009200070001003d00120020007f
:1006400097000700a20007000fb297009fb2970023
:100650002fb39700bfb39700a90007000000520016
:1006600081805a0002015b0083815b0080b79f009c
:1006700091b79f00a2b79f00b3b79f000007eb00a0
:100680009f0007000020e10001a8e10002b0e100a6
:1006900003b8e100010031001e0020000e005600ea
:1006a000c0b79f004fb297000400e000070035007c
:1006b00010002000010020006011b8000804700044
:1006c000898470000a0571008b8571008d06e90030
:1006d000beff3a000400e00003003d008200070076
:1006e0000f00400094ff07004fa897000000e000b3
:1006f00004003a000fb497009fb497002fb59700fd
:10070000bfb59700940007004f0778004f06be0062
:100710004f05be004f04be004f01b10000000600af
:10072000881f780018002000881f780095ff0700b8
:100730008f87e9004f04780000000600801feb005f
:1007400090ff07008f87e90000000600889fbe0029
:100750008a9fbe008c1f78006e00070007003d00d6
:1007600073000700e00f5b00e08f5b0007003d00b7
:10077000320007000006eb000400370034000700d9
:1007800002003d002a0007001c0020007200070044
:10079000e3ff07000203be000002be000c00e00001
:1007a00001003200220007000400be000601be0066
:1007b0004f0678004f05be004f04be000000060043
:1007c000889fbe008a9fbe008c1f780051000700e2
:1007d00005003d0056000700e00f5b00e08f5b0066
:1007e00006003d00040037001900070003003d002b
:1007f0006000b8006011b800100007005600070044
:10080000ceff07000203be000002be000c00e000a5
:1008100001003200060007000400be000601be0011
:100820004f0678004f05be004f04be0000000600d2
:100830006000b8006011b8000000370004025000ea
:10084000858258000603590087835900000006007e
:100850000006eb00e00f5200e08f5a00e00f5b0053
:10086000e08f5b00000006000180400090b79f0011
:100870000001eb008fb097000100e00000000600cf
:100880000200700090b79f000180400080b79f0079
:100890000001eb00ffa897000100e0000000060047
:1008a0000200700080b79f00018040006faa97008f
:1008b000cf20de0001007000f0af9f000402420074
:1008c000250007004f18de0000027200000006003d
:1008d000e4af9f000804440089844c000a054d00e1
:1008e0008b854d00000006003fb29700cfb2970005
:1008f0005fb39700efb3970000fe2f0000000600e3
:100900003fb09700cfb097005fb19700efb197006d
:10091000000006000205be000004be00e00f50000b
:10092000e08f5800e00f5900e08f590000000600ea
:100930006000b8006011b8000804500089845800b5
:100940000a0559008b8559001c002000e00f520059
:10095000e08f5a00000006000800be000a01be0039
:10096000000006006022b800060220000000d0004f
:100970008180d2000482d2008582d2000000a000d3
:100980000202520083825a00030031000202420038
:1009900083824a000000a1000603e900f3ff3a0049
:0409a000000006004d
:020000040000fa
:0200000401f009
:04000c00f8ff0000f9
:020000040000fa
:0200000401f009
:040010005bff000092
:020000040000fa
:0200000401f009
:040014007fff00006a
:020000040000fa
:0200000401f009
:04001800ffff0000e6
:020000040000fa
:0200000401f009
:04001c00dfff000002
:020000040000fa
:100008009802000098020000980200009802000080
:100018009802000098020000980200009802000070
:100028009802000098020000980200009802000060
:100038009802000098020000980200005a1600007a
:10004800980200009802000098020000d6120000f2
:100058003e1300002c0d00009802000098020000da
:100068009802000098020000980200009802000020
:100078009802000098020000980200009802000010
:100088009802000098020000980200009802000000
:1000980098020000980200009802000098020000f0
:1000a80098020000980200009802000098020000e0
:1000b80098020000980200009802000098020000d0
:1000c80098020000980200009802000098020000c0
:1000d80098020000980200009802000098020000b0
:1000e80098020000980200009802000098020000a0
:1000f8009802000098020000980200009802000090
:10010800980200009802000098020000980200007f
:10011800980200009802000098020000980200006f
:10012800980200009802000098020000980200005f
:10013800980200009802000098020000980200004f
:10014800980200009802000098020000980200003f
:10015800980200009802000098020000980200002f
:10016800980200009802000098020000980200001f
:10017800980200009802000098020000980200000f
:1001880098020000980200009802000098020000ff
:1001980098020000980200009802000098020000ef
:1001a80098020000980200009802000098020000df
:1001b80098020000980200009802000098020000cf
:1001c80098020000980200009802000098020000bf
:1001d80098020000980200009802000098020000af
:1001e800980200009802000098020000980200009f
:0801f8009802000098020000cb
:020000040000fa
:10020800980200009802000098020000980200007e
:10021800980200009802000098020000980200006e
:10022800980200009802000098020000980200005e
:100238009802000098020000980200005a16000078
:10024800980200009802000098020000d6120000f0
:100258003e1300002c0d00009802000098020000d8
:10026800980200009802000098020000980200001e
:10027800980200009802000098020000980200000e
:1002880098020000980200009802000098020000fe
:1002980098020000980200009802000098020000ee
:1002a80098020000980200009802000098020000de
:1002b80098020000980200009802000098020000ce
:1002c80098020000980200009802000098020000be
:1002d80098020000980200009802000098020000ae
:1002e800980200009802000098020000980200009e
:1002f800980200009802000098020000980200008e
:10030800980200009802000098020000980200007d
:10031800980200009802000098020000980200006d
:10032800980200009802000098020000980200005d
:10033800980200009802000098020000980200004d
:10034800980200009802000098020000980200003d
:10035800980200009802000098020000980200002d
:10036800980200009802000098020000980200001d
:10037800980200009802000098020000980200000d
:1003880098020000980200009802000098020000fd
:1003980098020000980200009802000098020000ed
:1003a80098020000980200009802000098020000dd
:1003b80098020000980200009802000098020000cd
:1003c80098020000980200009802000098020000bd
:1003d80098020000980200009802000098020000ad
:1003e800980200009802000098020000980200009d
:0803f8009802000098020000c9
:020000040000fa
:1009a4000000000001cc000001d800000014000089
:1009b40001f00000003c00000028000001e40000f9
:1009c40001a00000006c00000078000001b40000e9
:1009d40000500000019c0000018800000044000059
:020000040000fa
:1009e4000400fa00000f78001e0078001007980039
:1009f4001e0090000000e00003003d001e00900077
:100a04000000ea00100798001e0090000080fa0021
:100a1400000006001800fa0010198000c500dd006f
:100a2400c04880008080500000012c0000804000fd
:100a340070488800e04880000000e800e048880032
:100a4400f04880000000e800f048880056c9bf0064
:100a54000004e0002a003a007148800070488000d9
:100a64000182b9004fabde00cfb3de000400be004c
:100a74000601780086017800e49420005403be0047
:100a84004402be000000420081804a0002014b0083
:100a940083814b00e4942000009abe000292be00c1
:100aa4009048800071488000310f9800200f980012
:100ab4002e099000be099000830f510002003d00f2
:100ac4003e089000200f9800ae08900091488800de
:100ad400a048800072488000120f9800000f980010
:100ae4008e0990001e089000808f5100020034008f
:100af4009e089000010f98000e099000a2488800fb
:100b0400e148800080162000808f50000b003400e4
:100b1400804880000000e00008003d00704880002c
:100b24000000e00005003500704880008148800026
:100b3400010050000000e00004003c00e148800097
:100b4400803e2000808f500050003400e048800038
:100b5400b04888000000eb00e048880056c9bf0098
:100b6400e24f50000c003a00e49420006000b8000a
:100b74006011b800009abe000292be000000eb00b3
:100b8400a0488800a0488000904888000040eb00fe
:100b940056e9b7002900370090488000a14880003a
:100ba40001004000ea0f50000f003400c3488000e9
:100bb40073079800c14880000000eb0060079800ac
:100bc400703e2000808f500002003c001100200085
:100bd400610798007e019000ee019000030041003f
:100be400c04888001300370090488000a148800066
:100bf40001004000ea0f40000e003d00c0488000a4
:100c040050079800c14880000001eb00420798009b
:100c140080c12f00808f5000020034001300200098
:100c240043079800de0090004e01900002805000bf
:100c3400c048880010c0b30056e9b700b04880002f
:100c4400a04d880022c9bf00e44f50000c003200c0
:100c5400214d8000803e2000808f50000800340029
:100c640023c9bf000040e80023e9b70023c9bf003f
:100c7400f44f50000200360040c0b30022e9b70030
:100c840022c9bf000000fb00304d8800e14880000d
:100c940000082000808f50000d0034008048800040
:100ca4000000e0000a003400704880000000e0000a
:100cb40007003c008048800071488000010050001b
:100cc4000000e000020034000000eb00f04888005f
:100cd4007048800080488800604880000000e00080
:100ce40006003a0042c4bf00f043b20001c8b3009a
:100cf4000140700042e4b7000700370061488000fb
:100d040000102000808f500003003a0042c4bf004e
:100d1400f043b20042e4b700534880003307980020
:100d240061488000f0072000808f500007003c00dd
:100d34006048800080004000008020000080400067
:100d440010007800200798002600370061488000d2
:100d5400f00f2000808f500009003c0061488000a3
:100d6400001020000100500080004000008020009e
:100d7400008040001000780010079800170037002a
:100d840061488000f0172000808f500009003c006b
:100d94006148800000f02f00008040008000400087
:100da400008020000080400010007800000f7800d0
:100db4000800370061488000002020000100500036
:100dc4008000400000802000008040001000780077
:100dd400000f78001e007800100798009e00900015
:100de400210798002e019000be0190000390b900e5
:100df4004109dd004f00de0000007100cf88de00f5
:100e040030228800604880000000e80002202000b2
:100e1400110009000200d8008000fd00604888002d
:100e24000603a9000080fa00000006003200fa0060
:100e340020198000c500dd00b0498000808050008a
:100e440000012c0000804000504988009049800037
:100e54000000e80090498800004a80000000e80093
:100e6400004a880057c9bf000004e0002a003a0085
:100e740051498000504980000182b9004fabde0027
:100e8400cfb3de000400be000601780086017800be
:100e9400649420005403be004402be0000004200db
:100ea40081804a0002014b0083814b00649420003e
:100eb400009abe000292be00704980005149800031
:100ec400011f9800701798007e1190000e18900072
:100ed400800f510002003d008e1890007117980099
:100ee4007e11900072498800804980005149800039
:100ef40061179800501798005e1190006e109000d2
:100f0400800f510002003400ee1090005117980039
:100f14005e119000824988009149800000082000f9
:100f2400808f50000d003400604980000000e00014
:100f34000a003400504980000000e00007003c0033
:100f44006049800051498000010050000000e00029
:100f5400020034000000eb00004a88009149800040
:100f640080162000808f50000b0034006049800000
:100f74000000e00008003d00504980000000e0004f
:100f8400050035005049800061498000010050008f
:100f94000000e00004003c0091498000803e2000f5
:100fa400808f5000f901340090498000a0498800e6
:100fb4000000eb009049880057c9bf00e24f500081
:100fc4000c003a00649420006000b8006011b8007e
:100fd400009abe000292be000000eb008049880027
:100fe40080498000704988000040eb0057e9b70051
:100ff4002d00370091498000703e2000808f500002
:1010040029003c00704980008149800001004000b3
:10101400ea0f50000f003400b049800040179800d8
:10102400b14980000001eb0032179800703e2000a7
:10103400808f500002003c00100020003017980000
:10104400ce1090003e11900002804000b04988000c
:10105400130037007049800081498000010040007e
:10106400ea0f40000e003d00b049800020179800b0
:10107400b14980000001eb001217980080c12f00d5
:10108400808f5000020034001000200010179800d8
:10109400ae1090001e11900002805000b0498800ec
:1010a40010c0b30057e9b700a1498000703e20008a
:1010b400808f500004003c00014d8000703e2000f1
:1010c400808f50000b003c00e04980000000e800e5
:1010d400e0498800e0498000e50f500096013400a3
:1010e4000040eb0045e9b7000000eb00e049880050
:1010f4009101370045c9bf000000fb0000179800ac
:101104000e109000e10f5000160032008e10900077
:10111400e48f5000650032000e1190000200e000e0
:101124000100320084013700d04980000000e8004b
:10113400d0498800d0498000ea0f50007e01340075
:10114400014d8000803e2000808f50007a013400e1
:1011540010c0b30045e9b7000000eb00d049880097
:1011640075013700a1498000f01f2000808f5000d6
:10117400170034001248800023488000f0e1240066
:1011840001002000800f5100818f590007003c00ae
:10119400104880002148800061004000e080480041
:1011a400600f9800710f98000400370000e22400db
:1011b40001002000600f9800710f98006e089000e5
:1011c400fe08900010488800214888002500370058
:1011d400a1498000e01f2000808f500017003c00d0
:1011e400124880002348800080262400010020004b
:1011f400800f5100818f590007003400104880008f
:101204002148800061005000e0805800400f9800a1
:10121400510f9800040037008026240001002000ac
:10122400400f9800510f98004e089000de0890007f
:1012340010488800214888000a00370044c9bf00cc
:101244000040e80044e9b70044c9bf00f44f50002f
:101254000400360040c0b30045e9b7000040eb008d
:1012640044e9b7001248800023488000c0452400a8
:1012740001002000800f5100818f59002e0134009d
:101284001248800023488000f0e12400010020007f
:10129400800f5100818f590027013c0010488000c5
:1012a400214880004023880023013700a1498000a1
:1012b400f01f2000808f5000280034001248800066
:1012c40023488000f0e1240001002000800f510039
:1012d400818f590007003c0010488000214880009d
:1012e40061004000e0804800200f9800310f980012
:1012f4000400370000e2240001002000200f9800c1
:10130400310f98002e089000be0890001048880005
:10131400214888001248800023488000c0452400ea
:1013240001002000800f5100818f590036003400e5
:101334001248800023488000f0e1240001002000ce
:10134400800f5100818f59002f003c00104880000d
:1013540021488000402388002b003700a1498000e9
:10136400e01f2000808f500027003c0012488000be
:10137400234880008026240001002000800f5100b3
:10138400818f5900070034001048800021488000f4
:1013940061005000e0805800000f9800110f980081
:1013a400040037008026240001002000000f98006c
:1013b400110f98000e0890009e08900010488800b5
:1013c400214888001248800023488000c04524003a
:1013d40001002000800f5100818f59000a00340061
:1013e4001248800023488000f0e12400010020001e
:1013f400800f5100818f590003003c001048800089
:10140400214880004023880022c9bf00e44f5000d7
:10141400c9003a001048800021488000000178008b
:101424003048800041488000000051006cfd0700f6
:101434008000780010032000808f500075003c006d
:10144400f1488000004a800000805000a04e8800cf
:10145400a04e800062fd07000000e0004b00340055
:10146400a14e800000082000808f5000020034004c
:1014740000082000a04e8800a14e800000f82f0034
:10148400808f500002003d0000f82f00a04e88001d
:10149400a14e8000c04a8000008050006101b90064
:1014a40030488000414880000200400083804800aa
:1014b4003048880041488800a04e8000e20f500068
:1014c400170034003248800043488000f0e12400d3
:1014d40001002000800f5100818f590007003c005b
:1014e400304880004148800061004000e0804800ae
:1014f40060079800710798000400370000e2240098
:101504000100200060079800710798006e009000a9
:10151400fe009000304888004148880019003700d8
:10152400a04e8000e20f400016003d0032488000cb
:10153400434880008026240001002000800f5100d1
:10154400818f5900070034003048800041488000f2
:1015540061005000e080580040079800510798004f
:101564000400370080262400010020004007980072
:10157400510798004e009000de009000304888002b
:1015840041488800a04e8000c04a8800a04e8000d8
:1015940013fd0700e10f50000f003c0023c9bf00fa
:1015a4000040e80023e9b700319220009140780020
:1015b40020c3b30080cf50000400360010c0b30035
:1015c40028e9b7000040eb0023e9b7000000eb0076
:1015d4003049880047003700a04e800000fd070016
:1015e400ea0f500043003400304980000000e80056
:1015f4003049880030498000f40f50003d00340029
:101604000040eb0028e9b7000000eb0030498800f7
:10161400380037003248800043488000104880007a
:1016240021488000800f5100818f590017003d0030
:101634003248800043488000f0e12400010020008b
:10164400800f5100818f590007003c003048800012
:101654004148800061004000e08048002007980075
:10166400310798000400370000e224000100200044
:1016740020079800310798002e009000be009000cb
:1016840030488800414888001a00370032488000fa
:10169400434880001048800021488000800f51009a
:1016a400818f590013003400324880004348800081
:1016b4008026240001002000800f5100818f5900f2
:1016c400060034003048800041488000610050002a
:1016d400e0805800008fbe000300370080262400fd
:1016e40001002000008fbe001e00be0030488800ac
:1016f400414888003248800043488000c0452400a7
:1017040001002000800f5100818f59000a0034002d
:101714003248800043488000f0e1240001002000aa
:10172400800f5100818f590003003c003048800035
:1017340041488000402288001048800021488000f1
:10174400704d88003048800041488000604d88001a
:10175400bac9bf008080fb0028c9bf000000fb009d
:1017640000804000404d8800b0498000504d880002
:10177400c0488000b04d8800a0498000904d88008a
:1017840045c9bf000000fb00104d8800504980008f
:10179400604988000623a9000080fa0000000600c2
:1017a4000000fa0001e3a90001a3a9000183a80035
:1017b4000103a90000e3a80000c3a90000a3a90035
:1017c4000083a800013020009140780080cfb3004e
:1017d40000c060005040b30000e3b7000000eb001d
:1017e400301888000203a9000223a900a1302000b8
:1017f4009140780000ceb30000c060005040b300b8
:101804000ae3b7000ae3a8000243a9000263a9009f
:10181400b13020009140780000ceb30000c06000d9
:101824006040b3000be3b7000be3a800a10a20005b
:1018340091407800f0c8b30000c060000044a000ec
:10184400aae0b70085a0a90095a0a800c050200078
:10185400b04e880080712000d04e8800609d20002a
:10186400401888000080fa00000006000000fa001a
:1018740001e3a8000080fa00000006000000fa005e
:101884002124a80020c4bf00f043b20020e4b70024
:101894002044a80023e4a80023c4a8003142200067
:1018a4009140780030cfb30000c0600023e4b7005b
:1018b40022c4bf00f043b20022e4b7002324a800ee
:1018c4002304a8000000eb0060218800007e2400af
:1018d40040218800003f220030218800003f220080
:1018e40090218800003f2200b021880034e4a80041
:1018f40035c4bf006f4060000044a00035e4b70069
:10190400414320009140780000ccb30000c0600047
:1019140034e4b70030002000202188004124a800ce
:1019240040c4bf00f043b20040e4b7004044a80004
:1019340043e4a80043c4a80043a4a8004384a80027
:10194400314420009140780030cfb30000c06000e3
:1019540043e4b70042c4bf00f043b20042e4b7001e
:101964004204a8004324a8004304a8000000eb009c
:1019740060228800007e240040228800003f22006c
:1019840030228800800020009022880054e4a900be
:1019940055c4bf006f4060000044a00055e4b70088
:1019a400414520009140780000ccb30000c06000a5
:1019b40054e4b70030002000202288006124a800ed
:1019c40060c4bf00f043b20060e4b7006044a80004
:1019d40063e4a90063c4a90063a4a8006384a80005
:1019e4000000eb0060238800007e24004023880070
:1019f400003f2200302388008000200090238800cc
:101a040074e4a90075c4bf006f4060000044a000e6
:101a140075e4b700414720009140780000ccb30042
:101a240000c0600074e4b700300020002023880068
:101a34000080fa00000006000000fa0001e4a8009b
:101a44002324a9002304a9004304a9000080fa0068
:101a5400000006003600f800809fbe00829fbe0092
:101a6400849fbe00869fbe000000fa0085a0a900e6
:101a74004018800010007800000001000080fa0087
:101a84004f03be004f02be004f01be004f00be0018
:101a94003600f900004006000000fa0056c9bf00f5
:101aa400e14f500030003a00e09420005001be00a5
:101ab4004000be00b4488000cfa2de0005037800d9
:101ac4008603780015fb0700e4942000009abe000a
:101ad4000292be00e09420005001be004000be000f
:101ae4001f060700e04e8800d1488000606626008b
:101af4000088b9004109dd004f00de0000007100dc
:101b0400cf88de0000017800e14e8000909921002a
:101b14000088b900c109dd004f00de0000807100bb
:101b2400cf88de0000004100d0488800e494200003
:101b34006000b8006011b800009abe000292be00b6
:101b4400d148800060d124000088b9004109dd003b
:101b54004f00de0000007100cf88de00204d8800b9
:101b640020c0b30056e9b70057c9bf00e14f500089
:101b740030003a00609420005001be004000be00d6
:101b8400a4498000cfa2de00050378008603780014
:101b9400e2fa070064942000009abe000292be009c
:101ba400609420005001be004000be00ec05070018
:101bb400e04e8800c1498000606626000088b900b4
:101bc400c109dd004f00de0000807100cf88de0017
:101bd40000017800e14e8000909921000088b9004e
:101be400c109dd004f00de0000807100cf88de00f7
:101bf40000004100c0498800649420006000b800df
:101c04006011b800009abe000292be00c149800073
:101c140060d124000088b9004109dd004f00de00d6
:101c240000007100cf88de00004d880020c0b300a2
:101c340057e9b7000080fa00000006000400fa002b
:101c4400c9e2a900cbe2a900c8a2a800cea2a800bc
:101c54000080fa00000006000800fa00c8a2a800ec
:101c6400caa2a8000000eb00300798000400370067
:101c7400000000003e0090000000e80030079800db
:101c8400be00900010032000808f5000f8ff340045
:101c9400c9e2a900cbe2a8000000eb0020079800ed
:101ca40004003700000000002e0090000000e8004f
:101cb40020079800ae00900010032000808f500091
:101cc400f8ff3400c8a2a900caa2a9000000eb00d2
:101cd4001007980004003700000000001e00900068
:101ce4000000e800100798009e00900010032000f8
:101cf400808f5000f8ff3400c9e2a900cbe2a900ac
:101d04000000eb00000f7800020037000000000024
:101d14001e0fe800100320009e0f1000fbff34008c
:101d24000080fa00000006000800fa00c8a2a9001a
:101d3400caa2a9000000eb00300798000400370095
:101d4400000000003e0090000000e800300798000a
:101d5400be00900010032000808f5000f8ff340074
:101d6400c9e2a900cbe2a8000000eb00200798001c
:101d740004003700000000002e0090000000e8007e
:101d840020079800ae00900010032000808f5000c0
:101d9400f8ff3400c8a2a800caa2a8000000eb0003
:101da4001007980004003700000000001e00900097
:101db4000000e800100798009e0090001003200027
:101dc400808f5000f8ff3400c8a2a800cea2a8005b
:101dd4000080fa00000006000c00fa000040eb004e
:101de400204f9800c9e2a900cbe2a900c8a2a8002c
:101df400cea2a800c9e2a900cbe2a8000000eb0033
:101e04002007980004003700000000002e00900016
:101e14000000e80020079800ae00900010032000a6
:101e2400808f5000f8ff3400cac2bf000080fb005e
:101e34004500de0061406000204f9800c9e2a9001f
:101e4400cbe2a9000000eb00100798000400370063
:101e5400000000001e0090000000e8001007980039
:101e64009e00900010032000808f5000f8ff340083
:101e7400c8a2a800caa2a8002e4890000000fb0037
:101e84000080fa00000006000600fa00c8a2a900bb
:101e9400caa2a9000000eb00200798000400370044
:101ea400000000002e0090000000e80020079800c9
:101eb400ae00900010032000808f5000f8ff340023
:101ec400c9e2a900cbe2a8000000eb0010079800cb
:101ed40004003700000000001e0090000000e8002d
:101ee400100798009e00900010032000808f50007f
:101ef400f8ff3400c9e2a900cbe2a9000000eb001e
:101f0400000f780002003700000000001e0fe800f8
:101f1400100320009e0f1000fbff34000080fa0025
:101f2400000006000600fa00c8a2a800caa2a80081
:101f34000000eb00200798000400370000000000b8
:101f44002e0090000000e80020079800ae009000ea
:101f540010032000808f5000f8ff3400c9e2a9006c
:101f6400cbe2a8000000eb00100798000400370043
:101f7400000000001e0090000000e8001007980018
:101f84009e00900010032000808f5000f8ff340062
:101f9400c9e2a900cbe2a9000000eb00000f780021
:101fa40002003700000000001e0fe80010032000ac
:101fb4009e0f1000fbff34000080fa0000000600b2
:101fc4000e00fa00404f9800c9e2a900cbe2a90034
:101fd4000000eb00400798000400370000000000f8
:101fe4004e0090000000e80040079800ce009000ea
:101ff40010032000808f5000f8ff34000040eb00f5
:10200400204f98003e0037004e4890008080fb002f
:102014002e4890000080fb000008dd004700de0031
:10202400610060000004e0000e003200c8a2a800b5
:10203400caa2a8000000eb00300798000400370093
:10204400000000003e0090000000e8003007980007
:10205400be00900010032000808f5000f8ff340071
:102064000d003700c8a2a900caa2a9000000eb0015
:102074002007980004003700000000002e009000a4
:102084000000e80020079800ae0090001003200034
:10209400808f5000f8ff3400c9e2a900cbe2a80009
:1020a4000000eb0010079800040037000000000057
:1020b4001e0090000000e800100798009e009000a9
:1020c40010032000808f5000f8ff3400c9e2a900fb
:1020d400cbe2a9000000eb00000f780002003700fb
:1020e400000000001e0fe800100320009e0f1000e7
:1020f400fbff34002e4890000040e800204f980079
:102104002e489000e74f5000bfff36000080fa00d1
:10211400000006000a00fa000040eb00004f98009f
:10212400c8a2a800cea2a800c9e2a900cbe2a900d7
:102134000000eb00200798000400370000000000b6
:102144002e0090000000e80020079800ae009000e8
:1021540010032000808f5000f8ff34000040eb0093
:10216400104f980024003700c9e2a900cbe2a80070
:102174000000eb0010079800040037000000000086
:102184001e0090000000e800100798009e009000d8
:1021940010032000808f5000f8ff34000e48900098
:1021a40000404000004f9800cac2bf000042b20085
:1021b4000004e000030032000e4890000040e800f4
:1021c400004f9800c9e2a900cbe2a9000000eb008f
:1021d400000f780002003700000000001e0fe80026
:1021e400100320009e0f1000fbff34001e489000d7
:1021f4000040e800104f98001e489000e74f500040
:10220400d9ff36000e4890000080fb000080fa00e1
:10221400000006000400fa00004f780011479800ff
:102224008dfe070000cab30065ff0700eafe070041
:102234000004e000030032000000eb0010079800e7
:102244000d0037001e4078005dff0700e2fe070026
:102254000004e000030032000000eb0010079800c7
:10226400050037001e40900055ff0700aefe070032
:1022740010002000100798001e0090000080fa0053
:10228400000006000a00fa00204798002107980081
:102294006247980070fe070000cab30048ff0700b9
:1022a400cdfe07000004e000030032000000eb0054
:1022b400400798001e0037002e40900040ff0700a2
:1022c400c5fe07000004e000030032000000eb003c
:1022d40040079800160037000040eb00004f7800dc
:1022e4000d0037002e0090001040780034ff0700e6
:1022f400b9fe07000004e000030032000000eb0018
:10230400400798000a0037002e0090000000e80003
:10231400200798001e4fe8006e4090009e4f10006a
:10232400f0ff390080fe07001000200040079800ed
:102334004e0090000080fa00000006000600fa003b
:10234400204798000040eb00004f780042fe070051
:1023540000cab3001aff07009ffe07000004e00054
:1023640003003a000000eb00200798001800370033
:102374002e40900012ff070097fe07000004e000c3
:10238400030032000000eb00200798001000370023
:1023940065fe070030fe070010cab30008ff0700ff
:1023a4008dfe07000004e000030032000000eb0093
:1023b400200798000600370056ff0700004f7800fa
:1023c400d8fe070058fe07001e80fb002007980077
:1023d4002e0090000080fa00000006000a00fa00b7
:1023e4002047980021079800624798001afe0700ca
:1023f40000cab300f2fe070077fe07000004e00005
:10240400030032000000eb00400798002b00370067
:102414002e409000eafe07006ffe07000004e00073
:10242400030032000000eb0040079800230037004f
:1024340009fe070010cab300e1fe070066fe0700ac
:102444000004e000030032000000eb0040079800a5
:102454001a0037000040eb00004f780009003700f5
:102464002cff0700804078002e009000014878007f
:1024740085fe07002e0090000000e8002007980069
:102484001e4fe8009e80fb006e4090000080fb0021
:102494000000e900808f5000f1ff35001dff0700a8
:1024a400804078002e009000014878009dfe0700cf
:1024b4001dfe070010002000400798004e00900009
:1024c4000080fa00000006000000fa0021e2a800e3
:1024d400012220009140780090cfb30000c060003a
:1024e4000024a00020e2b7002002a9000000eb00b5
:1024f4001011880020102000401188009560a80069
:102504009580a80022c2bf00f043b20022e2b700c7
:1025140023e2a90023a2a800016e200091407800c4
:1025240000ccb30000c060003040b300e0e6b70068
:10253400416a20009140780000ccb30000c06000e4
:10254400d041b300a4e6b7000040eb00dee9b700d9
:102554000040eb00dfe9b7000080fa00000006004d
:102564000000fa00114f8000401f2000808f5000af
:102574000500360010c0b3009ee9b7000000eb0070
:10258400104f880006003700104f80000000e00064
:1025940003003200104f80000000e800104f880054
:1025a4000080fa0000000600809fbe00829fbe00eb
:1025b4000200fa008560a90010002000104f880076
:1025c4002500370030118000000f7800dec9bf00fd
:1025d4000004e00010003200e19d200091407800ea
:1025e400f0c3b30080cf50000b003e00e29d2000fa
:1025f400124178008281fb001e0078008040780040
:10260400a095200000804100014878000240e800c5
:10261400dee9b70010003700200020009e0f1000f4
:102624000b003a00e29d2000124178008281fb00f9
:102634001e00780080407800a095200000804100b2
:10264400014878000240e800dee9b70002003700e4
:102654000040eb00dee9b70022c2bf006140600029
:102664000004e000d7ff3a000080fa004f01be00ea
:102674004f00be0000400600809fbe00821f78000d
:102684000000fa008580a900019e20009140780096
:10269400dfc9bf0080cf500005003100019e20003b
:1026a40091407800f0c3b30080cf50000e00360094
:1026b4000040eb00dfe9b7002342a900d4c2bf0009
:1026c4000080fb004700de0000c0ea0061406000bb
:1026d400c700dd00d4c2bf000074a1000140700037
:1026e400d4e2b7000a003700029e200012417800ad
:1026f4008280fb00a09520000080400010407800fc
:102704000080fb00201188000240e800e0e9b700e7
:102714000080fa004f0178004f00be000040060020
:102724000000fa002342a8000040eb00e0e9b700f3
:10273400029e2000124178008280fb00a0952000b8
:1027440000804000104078000080fb0020118800c9
:102754000240e800e0e9b7000080fa00000006004b
:102764000800fa0020079800614798000080eb00f9
:10277400100798000040eb00104798002200370033
:102784002e009000104f78002e0090000000e8000a
:10279400200798009e80fb001e00900000806800c7
:1027a4006f00600080004000204d28000080400041
:1027b400900078001e0090004400de000080680055
:1027c400100798001e80fb004400de008080fb00a0
:1027d4001e009000008068006f00600080004000d0
:1027e400204d280000804000900078001e009000da
:1027f4004400de0000806800100798001e4090002e
:102804000040e800104798009e4090006e40900001
:1028140080cf5000daff39001e0090000080fa00db
:10282400000006000200fa00000f78001e00780085
:10283400c800de004800dd00010070000080fa00de
:10284400000006000a00fa002007980031079800eb
:102854000040eb00204798003e009000000040003c
:102864005ce9b7002e009000eb0f500034003c00f0
:102874002e009000be00900001004000ec0f5000bc
:102884002f003c000040eb00304798002400370044
:102894003e4090000080fb00630140002e00900049
:1028a40000004000800078003e4090000080fb0063
:1028b40080804000009a20000000e8000080400072
:1028c4001040780080407800a0952000000041006e
:1028d400014878003e4090000080fb006401400005
:1028e4002e00900000004000800078003e409000e0
:1028f4000080fb0080804000009a2000008040009f
:102904001040780080407800a0952000000041002d
:10291400014878003e40900000c0e800304798002d
:10292400c1952000914078003e40900080cf500037
:10293400d7ff3e0010c0b3002047980016003700b0
:10294400ae009000f0ff2300808f5000120034008e
:10295400ae0090003e009000808040000001240002
:10296400808f50000c003c00ae00900000002c0052
:102974000080400020079800c29520001241780092
:10298400d19520002e0090000000400093fe070027
:1029940010c0b300204798002e4090000004e000cf
:1029a4001c0032005cc9bf006340400080407800d6
:1029b400a09520006aff0700000f78005cc9bf00e3
:1029c4000080fb00630140001e0078008040780016
:1029d400a095200000004100014878005cc9bf00b8
:1029e4000080fb00640140001e0078004800de0007
:1029f40080407800a0952000000041000148780044
:102a04005cc9bf00654040000080fb00400798009f
:102a1400020037000000eb00400798004e009000d1
:102a24000080fa00000006000600fa001007980073
:102a3400210798002e0090007aff0700000f78000d
:102a44009e009000f0ff2300808f50000d003400a2
:102a54009e00900000012400808f500009003c007b
:102a64009e00900000002c00008040001007980099
:102a74008e0078001e0090000000400022c0b300c9
:102a840000fe0700dec9bf000080fb000080fa00e2
:102a9400000006000a00fa001007980021079800b9
:102aa400320798009e009000f0ff2300808f5000b2
:102ab4001d0034009e0090002e0090008080400095
:102ac400f0002400808f500017003c009e0090000e
:102ad40000002c0000804000100798002e00900099
:102ae40000004000004178001e00900000004000fb
:102af400be009000e3fd070061c0b300a095200074
:102b040017ff0700000f78001e00780060e9b70087
:102b14001e0078004800de0061e9b7008000200054
:102b240040079800020037000000eb0040079800bf
:102b34004e0090000080fa00000006000600fa0033
:102b44009ec9bf00e14f500042003a000040eb0034
:102b54009ee9b700e19d200091407800a0952000f7
:102b6400fffe07000000e00037003a005cc9bf0028
:102b74000080fb004800dd00100798005dc9bf001d
:102b84008080fb001e009000010070001007980078
:102b94005ec9bf000080fb004800dd00000f780024
:102ba4005fc9bf000080fb001e0f70005bc9bf003f
:102bb4000080fb00200798002e009000e40f5000d6
:102bc40004003c002e009000e30f50000f003d0075
:102bd4001d0037002e009000ef0f50001a00320045
:102be4002e009000ef0f500004003c002e009000d7
:102bf400e60f500014003c00090037002e0090003e
:102c0400f00f50000b0032000f0037009e007800d8
:102c14001e0090000bff0700dfe9b7000a00370031
:102c24009e0078001e0090007fff0700dfe9b700d8
:102c340005003700129620009e0078001e009000c8
:102c440094ff0700dfe9b7000040eb00dee9b700be
:102c5400b3fe07000080fa00000006000000fa003e
:102c64000111200091407800f0ccb30000c0600056
:102c740010e1b70000fa200060088800710a200003
:102c840091407800f0c8b30000c0600001c4b300f4
:102c940001407000a7e0b70094e0a80011e1a8008b
:102ca40040002000404f88000080fa000000060029
:102cb4003600f800809fbe00829fbe00849fbe0045
:102cc400869fbe000200fa00214e800080bb2000d7
:102cd400808f50000c0034000000eb00204e880070
:102ce400d4c2bf000080fb004700de0000c0ea0041
:102cf40061406000c700dd00d4c2bf000074a100c1
:102d040001407000d4e2b700204e80000000e800cb
:102d1400204e8800114a8000104e800061406000ff
:102d24000080fb0000804000104a880001498000b8
:102d3400104e80000000d100614060000080fb0064
:102d4400008040000049880005fe0700404f8000d5
:102d5400000f78001e007800e20f50005600320089
:102d64001e007800e20f500007003c001e007800af
:102d74000000e0000b0032001e007800e10f50005c
:102d8400a6003200c10037001e007800e30f500097
:102d9400be0032001e007800e40f5000a000320094
:102da400ba0037000040eb0028e9b70045c9bf006e
:102db400e44f500032003a00014d8000007d2000b5
:102dc400808f500023003400224d8000014d80008c
:102dd400c0f92f0000804000800f51000b003d001f
:102de4005148800060eb2700808f500003003c00b6
:102df400504880000000e800504888006000b80097
:102e0400504e8800614e880012003700504e8000fa
:102e1400614e800061004000e0804800504e880010
:102e2400614e8800524e8000634e8000005327009c
:102e340001002000800f5100818f590005003400eb
:102e44006000b800504e8800614e880020002000c9
:102e5400404f8800d4c2bf000080fb004700de0062
:102e640000c0ea0061406000c700dd00d4c2bf00ba
:102e74000074a10001407000d4e2b7008300370061
:102e84005148800060eb2700808f500004003c0014
:102e9400504880000000e800504888007b0037005c
:102ea4006000b800504e8800614e88002000200069
:102eb400404f88007500370045c9bf00e44f5000fb
:102ec40072003a00014d8000803e2000808f500047
:102ed40025003400014d8000204d8000008050000a
:102ee400bff607008000780020032000808f500088
:102ef4001d003400904e80000000e800904e8800d1
:102f0400904e8000e50f500017003400214d8000e2
:102f1400004d8000808f500008003d005148800023
:102f240060eb2700808f50000f003c005048800069
:102f34000000e800504888000b003700214d800055
:102f4400004d8000808f50000700340051488000fd
:102f5400d0cc2000808f5000030034005048800003
:102f64000000e9005048880028c9bf000004e000c0
:102f740046003200104e8000680060000000e0004f
:102f840006003200d4a2a8000005200001002000a1
:102f9400704e8800814e8800c269a900724e80007c
:102fa400834e8000c003200001002000800f5100e8
:102fb400818f590009003a00bac9bf00e14f50009f
:102fc40002003a00cc62a90004003700bac9bf006d
:102fd4000004e00001003a00cc62a800704e8000ba
:102fe400814e800061005000e0805800704e8800df
:102ff400814e8800704e8000814e8000e00f5000aa
:10300400e08f580021003a00d4a2a9006000b80063
:10301400704e8800814e88001c0037001b0037006a
:103024000000eb0050488800304e8000414e800084
:1030340061004000e0804800304e8800414e880026
:10304400324e8000434e800000a62e000100200076
:10305400800f5100818f59000c0036006000b800c9
:10306400304e8800414e880045c9bf00e44f5000ef
:103074000300320045c9bf000004e00003003a0029
:10308400cc82a9000000eb00404f880045c9bf0076
:10309400e44f500003003a0010c0b300b8e9b70091
:1030a400020037000040eb00b8e9b7000000eb0075
:1030b4003008880084e0a9000080fa004f03be00b5
:1030c4004f02be004f01be004f00be003600f900a3
:0430d40000400600b2
:020000040000fa
:1030d800000800005a010000020000000000c900ba
:1030e800009201005b02230003ec0300b5047d009d
:1030f800054506000d07d500079c080064092a004d
:103108000af10a00b60b7c000c410d00050ec9003f
:103118000e8c0f004f10110011d31100941254009f
:1031280013131400d1148f00154c16000817c30090
:10313800177d18003719ef0019a61a005d1b120039
:103148001cc61c00791d2b001edc1e008b1f3900bd
:1031580020e7200092213d0022e622008e23340041
:1031680024da24007d251f0026c026005f27fd00e5
:10317800279928003429cd0029652a00fa2a8e00cb
:103188002b212c00b22c41002dce2d005a2ee3000d
:103198002e6b2f00f12f760030f830007931f700d0
:1031a80031743200ee32670033de33005334c60028
:1031b80034363500a5351200367c3600e5364b002e
:1031c80037af37001138710038cf38002a398300fb
:1031d80039da39002f3a82003ad23a00203b6c00a3
:1031e8003bb63b00fd3b42003c843c00c53c020032
:1031f8003d3e3d00773dae003de23d00143e4400bb
:103208003e713e009c3ec5003eeb3e000e3f2f0047
:103218003f4e3f006a3f84003f9c3f00b13fc300e0
:103228003fd33f00e13fec003ff43f00fb3ffe008f
:103238003f004000e047000000e0470000000000b9
:103248000000000000000000000000000000000076
:103258000000000000000000000000000000000066
:103268000000000000000000000000000000000056
:103278000000000000000000000000000000000046
:103288000000000000000000000000000000000036
:103298000000000000000000000000000000000026
:1032a800000000000303000000000000d409000033
:1032b8000a00000000000000e4090000040000000b
:1032c800020000000000000000000000c409000027
:1032d80010000000020000000000000000000000d4
:1032e80000000000000000000000000000000000d6
:1032f800e80900000200000000000000de090000ec
:1033080006000000020000000000000000000000ad
:103318005a0900004600000000000000a009000053
:10332800240000000200000000000000000000006f
:103338000000000000000000000000000000000085
:103348000000000000000000000000000000000075
:0c33580000000000000000000000000069
:020000040000fa
:103364000c00fa0030079800410798003e009000d6
:10337400ce009000e00f5000e08f580003003a00a8
:103384000000eb0050079800430037003e01900016
:10339400ce0190000000200001042000800f5100a5
:1033a400818f59000b003e003e009000ce0090003b
:1033b4004609dd004a00de0000007100ca08de0094
:1033c400f203200003002000021f4000039748007e
:1033d4001c0037003e019000ce0190000000200048
:1033e40001802000800f5100818f59000b003e00a6
:1033f4003e009000ce009000c409dd004c00de00c9
:1034040000807100cc08de00f20f200003002000d1
:10341400021f4000039748000a0037003e00900056
:10342400ce009000c209dd004e00de000080710075
:10343400ce08de00f23f200003002000021f4000ff
:10344400039748000000eb00200798000d003700a8
:103454001e01be003e009000ce00900040f5070023
:103464003e014000ae8148000200be008100d10050
:103474000080d300008fbe002e0090000000e80002
:10348400200798002e009000e40f5000f0ff360053
:103494009e017800530798005e0090000080fa00b7
:1034a400000006000000fa006000b800504e8800da
:1034b400614e8800d042a900d0e2a900c862a900e8
:1034c400c882a900d0a2a900cc62a800cc82a8001e
:1034d400d4a2a90029000700e0fd0700fafb0700b9
:1034e400aff80700e1f80700e4f8070052f9070015
:1034f400d2f90700d4e2a800100020000100200047
:10350400304e8800414e88000000eb00504888008f
:10351400204f80000000e800204f8800214f8000e9
:1035240000712200808f500011003600bac9bf001c
:10353400e6e9b700a19b200082c0b3000040eb0085
:10354400a6fb0700bac9bf00e14f500006003e00c9
:10355400a19b200091407800e6c9bf0080cf5000b5
:1035640001003200c269a8000000eb00204f88006f
:1035740072fd070048f90700e5ff37000000fa0074
:1035840090022000303a880044c7bf00f043b200e4
:1035940044e7b700417420009140780000ceb300a6
:1035a40000c0600044e7b70012002000810720003b
:1035b400a0092000337420008149780080497800f4
:1035c4008249780012002000610420007005200068
:1035d400237420008149780080497800824978006a
:1035e40043c7bf000047b200f04f5000fcff3a0051
:1035f40042c7bf000042b2000004e000fcff3200fa
:1036040050c7a80051a7a80051c7bf007040b3001d
:1036140051e7b70051e7a80051c7bf000044b2000a
:103624000004e000fcff32000080fa000000060005
:00000001FF
