:020000040000fa
:080000000002040000000000f2
:020000040000fa
:100400006fab20000eff20000e01880000000000ee
:100410000c0007000004220001002000110007006a
:10042000000020000000e000020032000000020096
:10043000000000006e230200000000000040da000f
:100440000000fe004440a900000220000000e0007f
:100450000300320000002000a00188004440a800f2
:100460000000060091018800800078000000eb0089
:1004700015003700e280400032a0b4009101ba00bc
:10048000e280400032a0b4009102ba00e280400055
:1004900032a0b4000002eb00472bde00f507b200eb
:1004a000602ce10004003a000059eb008301e900f0
:1004b000fdff3e00040037006128e100010032002a
:1004c0000082eb00040007001101ba000200e00006
:1004d000e8ff3a00000006003159ba008301e90044
:1004e0000c0032002159ba008301e90008003200f3
:1004f0000400e00003003a00e280400032a0b400b3
:10050000f5ff370011d9ba008301e900faff3a007c
:100510008100e800e180400032a0b4000000060045
:1005200000000000000000000000000000000000cb
:100530000040da000000fe00881f78000004780008
:100540005001be004000be0004004000858048000d
:100550000601490087814900009cbe000294be004c
:100560000400e1000588e1000690e1000798e10041
:1005700002003100680044001008e8004f047800d1
:1005800000000600f4874700889fbe008a9fbe00d7
:100590008c9fbe008e1f78000205be000004be00c6
:1005a000d4b79f00e5b79f00f6b79f0087bf9f00b5
:1005b0000000eb00c0b79f00b0b79f00a0b79f003e
:1005c00090b79f0080b79f000d042000bfb0970038
:1005d0004fb09700000140000000e0000f003d0018
:1005e0004f08de0000007100c0b79f009e000700aa
:1005f00001003d0012002000a100070001003d00a5
:1006000012002000a6000700b1000700b600070096
:100610000f004000c8ff0700220037004f08de002f
:1006200000067100ccb79f008f00070001003d005d
:10063000120020009200070001003d00120020007f
:1006400097000700a20007000fb297009fb2970023
:100650002fb39700bfb39700a90007000000520016
:1006600081805a0002015b0083815b0080b79f009c
:1006700091b79f00a2b79f00b3b79f000007eb00a0
:100680009f0007000020e10001a8e10002b0e100a6
:1006900003b8e100010031001e0020000e005600ea
:1006a000c0b79f004fb297000400e000070035007c
:1006b00010002000010020006011b8000804700044
:1006c000898470000a0571008b8571008d06e90030
:1006d000beff3a000400e00003003d008200070076
:1006e0000f00400094ff07004fa897000000e000b3
:1006f00004003a000fb497009fb497002fb59700fd
:10070000bfb59700940007004f0778004f06be0062
:100710004f05be004f04be004f01b10000000600af
:10072000881f780018002000881f780095ff0700b8
:100730008f87e9004f04780000000600801feb005f
:1007400090ff07008f87e90000000600889fbe0029
:100750008a9fbe008c1f78006e00070007003d00d6
:1007600073000700e00f5b00e08f5b0007003d00b7
:10077000320007000006eb000400370034000700d9
:1007800002003d002a0007001c0020007200070044
:10079000e3ff07000203be000002be000c00e00001
:1007a00001003200220007000400be000601be0066
:1007b0004f0678004f05be004f04be000000060043
:1007c000889fbe008a9fbe008c1f780051000700e2
:1007d00005003d0056000700e00f5b00e08f5b0066
:1007e00006003d00040037001900070003003d002b
:1007f0006000b8006011b800100007005600070044
:10080000ceff07000203be000002be000c00e000a5
:1008100001003200060007000400be000601be0011
:100820004f0678004f05be004f04be0000000600d2
:100830006000b8006011b8000000370004025000ea
:10084000858258000603590087835900000006007e
:100850000006eb00e00f5200e08f5a00e00f5b0053
:10086000e08f5b00000006000180400090b79f0011
:100870000001eb008fb097000100e00000000600cf
:100880000200700090b79f000180400080b79f0079
:100890000001eb00ffa897000100e0000000060047
:1008a0000200700080b79f00018040006faa97008f
:1008b000cf20de0001007000f0af9f000402420074
:1008c000250007004f18de0000027200000006003d
:1008d000e4af9f000804440089844c000a054d00e1
:1008e0008b854d00000006003fb29700cfb2970005
:1008f0005fb39700efb3970000fe2f0000000600e3
:100900003fb09700cfb097005fb19700efb197006d
:10091000000006000205be000004be00e00f50000b
:10092000e08f5800e00f5900e08f590000000600ea
:100930006000b8006011b8000804500089845800b5
:100940000a0559008b8559001c002000e00f520059
:10095000e08f5a00000006000800be000a01be0039
:10096000000006006022b800060220000000d0004f
:100970008180d2000482d2008582d2000000a000d3
:100980000202520083825a00030031000202420038
:1009900083824a000000a1000603e900f3ff3a0049
:0409a000000006004d
:020000040000fa
:0200000401f009
:04000c00f8ff0000f9
:020000040000fa
:0200000401f009
:040010005bff000092
:020000040000fa
:0200000401f009
:040014007fff00006a
:020000040000fa
:0200000401f009
:04001800ffff0000e6
:020000040000fa
:0200000401f009
:04001c00dfff000002
:020000040000fa
:100008009802000098020000980200009802000080
:100018009802000098020000980200009802000070
:100028009802000098020000980200009802000060
:10003800980200009802000098020000861600004e
:100048009802000098020000980200005211000077
:10005800c0110000080f000098020000980200007c
:100068009802000098020000980200009802000020
:100078009802000098020000980200009802000010
:100088009802000098020000980200009802000000
:1000980098020000980200009802000098020000f0
:1000a80098020000980200009802000098020000e0
:1000b80098020000980200009802000098020000d0
:1000c80098020000980200009802000098020000c0
:1000d80098020000980200009802000098020000b0
:1000e80098020000980200009802000098020000a0
:1000f8009802000098020000980200009802000090
:10010800980200009802000098020000980200007f
:10011800980200009802000098020000980200006f
:10012800980200009802000098020000980200005f
:10013800980200009802000098020000980200004f
:10014800980200009802000098020000980200003f
:10015800980200009802000098020000980200002f
:10016800980200009802000098020000980200001f
:10017800980200009802000098020000980200000f
:1001880098020000980200009802000098020000ff
:1001980098020000980200009802000098020000ef
:1001a80098020000980200009802000098020000df
:1001b80098020000980200009802000098020000cf
:1001c80098020000980200009802000098020000bf
:1001d80098020000980200009802000098020000af
:1001e800980200009802000098020000f20e000039
:0801f8009802000098020000cb
:020000040000fa
:10020800980200009802000098020000980200007e
:10021800980200009802000098020000980200006e
:10022800980200009802000098020000980200005e
:10023800980200009802000098020000861600004c
:100248009802000098020000980200005211000075
:10025800c0110000080f000098020000980200007a
:10026800980200009802000098020000980200001e
:10027800980200009802000098020000980200000e
:1002880098020000980200009802000098020000fe
:1002980098020000980200009802000098020000ee
:1002a80098020000980200009802000098020000de
:1002b80098020000980200009802000098020000ce
:1002c80098020000980200009802000098020000be
:1002d80098020000980200009802000098020000ae
:1002e800980200009802000098020000980200009e
:1002f800980200009802000098020000980200008e
:10030800980200009802000098020000980200007d
:10031800980200009802000098020000980200006d
:10032800980200009802000098020000980200005d
:10033800980200009802000098020000980200004d
:10034800980200009802000098020000980200003d
:10035800980200009802000098020000980200002d
:10036800980200009802000098020000980200001d
:10037800980200009802000098020000980200000d
:1003880098020000980200009802000098020000fd
:1003980098020000980200009802000098020000ed
:1003a80098020000980200009802000098020000dd
:1003b80098020000980200009802000098020000cd
:1003c80098020000980200009802000098020000bd
:1003d80098020000980200009802000098020000ad
:1003e800980200009802000098020000f20e000037
:0803f8009802000098020000c9
:020000040000fa
:1009a4000000000001cc000001d800000014000089
:1009b40001f00000003c00000028000001e40000f9
:1009c40001a00000006c00000078000001b40000e9
:1009d40000500000019c0000018800000044000059
:020000040000fa
:1009e4000400fa00000f78001e0078001007980039
:1009f4001e0090000000e00003003d001e00900077
:100a04000000ea00100798001e0090000080fa0021
:100a1400000006001800fa00889fbe008a9fbe00ee
:100a240000198000c500dd00704c800080805000fb
:100a340000012c0000804000e04b8800204c800026
:100a44000000e800204c880010198000c500dd007b
:100a5400d04880008080500000012c0000804000bd
:100a640070488800f04880000000e800f0488800e2
:100a7400004980000000e80000498800504c8000d4
:100a8400e30f500020003a00009920003004be001b
:100a94002005be00e14b8000e04b80000182b900dc
:100aa4004fabde00cfb3de000400be0006017800c9
:100ab4008601780008004000898048000a01490046
:100ac4008b81490004992000009abe000292be0066
:100ad400314c8000e04b8000808f500004003d00ca
:100ae400e04b8000304c8800204c8000404c880053
:100af400614c8000e04b8000808f50000200340085
:100b0400e04b8000604c880024c9bf00e34f5000d4
:100b140020003a00009320003004be002005be00ef
:100b240071488000704880000182b9004fabde003c
:100b3400cfb3de000400be00060178008601780011
:100b440008004000898048000a0149008b8149005f
:100b540004932000009abe000292be0091488000d7
:100b640070488000808f500004003d007048800071
:100b740090488800f0488000a0488800b148800070
:100b840070488000808f500002003400704880005c
:100b9400b0488800f148800080162000808f500003
:100ba4000b003400804880000000e00008003d0095
:100bb400704880000000e0000500350070488000a7
:100bc40081488000010050000000e00004003c0067
:100bd400f1488000803e2000808f50007a0034006d
:100be400204c8000104c88000000eb00204c880052
:100bf400504c8000e20f50000c003a000499200091
:100c04006000b8006011b800009abe000292be00f5
:100c14000000eb00604c8800604c8000304c880081
:100c240030002000504c880029003700304c8000f0
:100c3400614c800001004000ea0f50000f003400b6
:100c4400704c8000300f9800714c80000001eb0064
:100c5400220f9800703e2000808f500002003c005c
:100c640013002000230f9800be0890002e09900066
:100c740002804000704c880013003700304c800024
:100c8400614c800001004000ea0f40000e003d006e
:100c9400734c8000130f9800714c80000000eb002f
:100ca400000f980080c12f00808f50000200340094
:100cb40011002000010f98001e0990008e09900079
:100cc40003005100704c880010002000504c880034
:100cd400f0488000c04888000000eb00f04888001d
:100ce40024c9bf00e24f50000c003a0004932000d6
:100cf4006000b8006011b800009abe000292be0005
:100d04000000eb00b0488800b0488000904888009c
:100d140030c0b30024e9b7002900370090488000b0
:100d2400b148800001004000ea0f50000f00340079
:100d3400d048800070079800d14880000001eb0083
:100d440062079800703e2000808f500002003c0033
:100d54001300200063079800fe0090006e019000cd
:100d640002804000d048880013003700904880007b
:100d7400b148800001004000ea0f40000e003d0031
:100d8400d348800053079800d14880000000eb004e
:100d94004007980080c12f00808f5000020034006b
:100da40011002000410798005e019000ce019000e0
:100db40003005100d048880010c0b30024e9b700f4
:100dc400c0488000304f8800f148800000082000af
:100dd400808f50000d003400804880000000e00047
:100de4000a003400704880000000e00007003c0066
:100df4008048800071488000010050000000e0003d
:100e0400020034000000eb000049880070488000b4
:100e140080488800604880000000e00006003a0036
:100e240042c4bf00f043b20001c8b30001407000e7
:100e340042e4b7000700370061488000001020003a
:100e4400808f500003003a0042c4bf00f043b20058
:100e540042e4b700504880003007980061488000a1
:100e6400f0072000808f500007003c00604880009d
:100e740080004000008020000080400010007800c6
:100e8400200798002600370061488000f00f2000fa
:100e9400808f500009003c00614880000010200051
:100ea40001005000800040000080200000804000cd
:100eb4001000780010079800170037006148800080
:100ec400f0172000808f500009003c00614880002a
:100ed40000f02f00008040008000400000802000cf
:100ee4000080400010007800000f780008003700f0
:100ef4006148800000202000010050008000400074
:100f0400008020000080400010007800000f78006e
:100f14009e007800110798001e0190002207980097
:100f2400ae0190003e0190000298b900c109dd00b5
:100f34004f00de0000807100cf88de003022880080
:100f4400604880000000e800022020001100090031
:100f54000200d8008000fd00604888000603a90054
:100f64004f05be004f04be000080fa0000000600da
:100f74003200fa00889fbe008a9fbe0030198000ac
:100f8400c500dd00904b80008080500000012c00e3
:100f940000804000004b8800404b80000000e800c7
:100fa400404b880020198000c500dd00304a8000d5
:100fb4008080500000012c0000804000c04988005f
:100fc400104a80000000e800104a8800804a80002f
:100fd4000000e800804a8800704b8000e30f500056
:100fe40020003a00409720003004be002005be00d7
:100ff400014b8000004b80000182b9004fabde0042
:10100400cfb3de000400be0006017800860178003c
:1010140008004000898048000a0149008b8149008a
:1010240044972000009abe000292be00514b8000fb
:10103400004b8000808f500004003d00004b800076
:10104400504b8800404b8000604b8800814b8000ef
:10105400004b8000808f500002003400004b800061
:10106400804b880054c9bf00e34f500020003a0071
:10107400809520003004be002005be00c1498000d8
:10108400c04980000182b9004fabde00cfb3de005f
:101094000400be00060178008601780008004000c4
:1010a400898048000a0149008b8149008495200009
:1010b400009abe000292be00e1498000c04980004f
:1010c400808f500004003d00c0498000e049880042
:1010d400104a8000f0498800014a8000c04980001d
:1010e400808f500002003400c0498000004a88000c
:1010f400114a800000082000808f50000d00340049
:10110400d04980000000e0000a003400c04980009b
:101114000000e00007003c00d0498000c149800085
:10112400010050000000e000020034000000eb0069
:10113400804a8800114a800080162000808f500069
:101144000b003400d04980000000e00008003d009e
:10115400c04980000000e00005003500c04980005f
:10116400d1498000010050000000e00004003c0070
:10117400114a8000803e2000808f5000010234001c
:10118400404b8000304b88000000eb00404b88004f
:10119400704b8000e20f50000c003a00449720008e
:1011a4006000b8006011b800009abe000292be0050
:1011b4000000eb00804b8800804b8000504b88007f
:1011c40030002000704b880029003700504b80000d
:1011d400814b800001004000ea0f50000f003400f2
:1011e400904b8000001f9800914b80000001eb00a1
:1011f40072179800703e2000808f500002003c005f
:1012040010002000701798008e1890007e11900036
:1012140002804000904b880013003700504b800040
:10122400814b800001004000ea0f40000e003d00a9
:10123400904b800060179800914b80000001eb00f8
:101244005217980080c12f00808f50000200340094
:101254001000200050179800ee1090005e119000ce
:1012640002805000904b880010002000704b8800d2
:10127400104a8000204a88000000eb00104a8800d1
:1012840054c9bf00e24f50000c003a00849520007e
:101294006000b8006011b800009abe000292be005f
:1012a4000000eb00004a8800004a8000e049880002
:1012b40030c0b30054e9b7002d003700114a800054
:1012c400703e2000808f500029003c00e0498000df
:1012d400014a800001004000ea0f50000f00340072
:1012e400304a800040179800314a80000001eb002a
:1012f40032179800703e2000808f500002003c009e
:101304001000200030179800ce1090003e1190007d
:1013140002804000304a880013003700e049800012
:10132400014a800001004000ea0f40000e003d0029
:10133400304a800020179800314a80000001eb00f9
:101344001217980080c12f00808f500002003400d3
:101354001000200010179800ae1090001e1190008d
:1013640002805000304a880010c0b30054e9b7002e
:1013740056c9bf000000fb00001798000e10900033
:10138400e10f5000040032008e109000e48f5000f2
:10139400530032007b013700214a8000f01f2000f7
:1013a400808f5000170034001248800023488000ca
:1013b400f0e1240001002000800f5100818f5900ca
:1013c40007003c0010488000214880006100400074
:1013d400e0804800600f9800710f98000400370007
:1013e40000e2240001002000600f9800710f9800b3
:1013f4006e089000fe08900010488800214888007c
:1014040025003700214a8000e01f2000808f500013
:1014140017003c00124880002348800080262400e6
:1014240001002000800f5100818f59000700340013
:10143400104880002148800061005000e08058007e
:10144400400f9800510f98000400370080262400b4
:1014540001002000400f9800510f98004e089000a2
:10146400de08900010488800214888000a003700f0
:1014740055c9bf000040e80055e9b70055c9bf0091
:10148400f44f50000400360040c0b30056e9b700e2
:101494000040eb0055e9b700124880002348800063
:1014a400c045240001002000800f5100818f5900a5
:1014b400340134001248800023488000f0e1240005
:1014c40001002000800f5100818f59002d013c0044
:1014d40010488000214880004023880029013700fb
:1014e400214a8000f01f2000808f50002800340023
:1014f4001248800023488000f0e12400010020000d
:10150400800f5100818f590007003c001048800073
:101514002148800061004000e0804800200f9800ce
:10152400310f98000400370000e22400010020007d
:10153400200f9800310f98002e089000be089000ec
:101544001048880021488800124880002348800001
:10155400c045240001002000800f5100818f5900f4
:10156400360034001248800023488000f0e1240053
:1015740001002000800f5100818f59002f003c0092
:101584001048800021488000402388002b00370049
:10159400214a8000e01f2000808f500027003c007b
:1015a4001248800023488000802624000100200087
:1015b400800f5100818f59000700340010488000cb
:1015c4002148800061005000e0805800000f98001e
:1015d400110f980004003700802624000100200029
:1015e400000f9800110f98000e0890009e089000bc
:1015f4001048880021488800124880002348800051
:10160400c045240001002000800f5100818f590043
:101614000a0034001248800023488000f0e12400ce
:1016240001002000800f5100818f590003003c000d
:101634001048800021488000402388001048800022
:101644002148800000017800304880004148800033
:1016540000005100e2fc0700800078001003200025
:10166400808f50007e003c0001498000804a800049
:10167400008050001055880010558000d8fc0700e9
:101684000000e0004b0034001155800000082000e9
:10169400808f50000200340000082000105588009c
:1016a4001155800000f82f00808f500002003d008b
:1016b40000f82f001055880011558000804e8000de
:1016c400008050006101b90030488000414880002a
:1016d4000200400083804800304888004148880068
:1016e40010558000e20f500017003400324880008b
:1016f40043488000f0e1240001002000800f5100e5
:10170400818f590007003c00304880004148800028
:1017140061004000e080480060079800710798006d
:101724000400370000e22400010020006007980054
:10173400710798006e009000fe0090003048880009
:10174400414888001900370010558000e20f40001e
:1017540016003d0032488000434880008026240063
:1017640001002000800f5100818f590007003400d0
:10177400304880004148800061005000e0805800fb
:101784004007980051079800040037008026240081
:101794000100200040079800510798004e00900077
:1017a400de009000304888004148880010558000d1
:1017b400804e88002ec9bf000004e00014003a00e7
:1017c4001055800086fc0700e10f50000d003c001e
:1017d40026c9bf000040e80026e9b70026c9bf00bb
:1017e400f44f50000400360010c0b3002ee9b700d7
:1017f4000040eb0026e9b7000000eb0060498800d8
:101804004f0037000040eb0026e9b7004c003700da
:101814001055800072fc0700ef0f50000d003400db
:1018240026c9bf000040e80026e9b7006192200005
:101834009140780080ccb30080cf50004000360047
:101844000040eb002ee9b7000040eb0026e9b700aa
:101854003b0037000040eb0026e9b70038003700b2
:1018640032488000434880001048800021488000ae
:10187400800f5100818f590017003d0032488000cd
:1018840043488000f0e1240001002000800f510053
:10189400818f590007003c00304880004148800097
:1018a40061004000e080480020079800310798005c
:1018b4000400370000e22400010020002007980003
:1018c400310798002e009000be0090003048880038
:1018d400414888001a00370032488000434880009d
:1018e4001048800021488000800f5100818f5900ea
:1018f40013003400324880004348800080262400ce
:1019040001002000800f5100818f5900060034002f
:10191400304880004148800061005000e080580059
:10192400008fbe0003003700802624000100200041
:10193400008fbe001e00be00304888004148880069
:101944003248800043488000c04524000100200044
:10195400800f5100818f59000a0034003248800002
:1019640043488000f0e1240001002000800f510072
:10197400818f590003003c003048800041488000ba
:1019840040228800114a800000042000808f50000b
:1019940004003400114a8000f00b2000808f5000b6
:1019a40008003400114a800000142000808f500089
:1019b40034003400114a8000f01b2000808f500056
:1019c40030003c0056c9bf00e44f500017003a00f5
:1019d400c049800002fc070080007800301f20000e
:1019e400808f500011003c00604a80000000e80035
:1019f400604a88000000eb00504a8800614a800079
:101a040000022000808f5000080034000040eb00ea
:101a140056e9b7000040eb002ee9b7000000eb00e8
:101a2400604a88000000eb00304a880056c9bf00b5
:101a34000004e00013003a00c0498000e8fb0700fe
:101a440080007800401f2000808f50000d0034007b
:101a5400504a80000000e800504a88000000eb0073
:101a6400604a8800514a800000022000808f5000a4
:101a74000400340010c0b30056e9b7000000eb00c6
:101a8400504a880056c9bf000000fb00a04e8800e1
:101a9400204a8000204f88002ec9bf000000fb00b0
:101aa400f04e8800c0498000d04988000623a90070
:101ab4004f05be004f04be000080fa00000006007f
:101ac4000000fa00a0198000e04e8800b0198000e0
:101ad400d04e880006a3a9000080fa00000006008a
:101ae4000000fa0001e3a90001a3a9000183a800f2
:101af4000103a90000e3a80000c3a90000a3a900f2
:101b04000083a800013020009140780080cfb3000a
:101b140000c060005040b30000e3b7000000eb00d9
:101b240030188800a10a200091407800f0c8b30062
:101b340000c060000044a000aae0b70085a0a9008e
:101b440095a0a8000203a9000223a900a130200047
:101b54009140780000ceb30000c060005040b30054
:101b64000ae3b7000ae3a8000243a9000263a9003c
:101b7400b13020009140780000ceb30000c0600076
:101b84006040b3000be3b7000be3a8000343a900d4
:101b94000363a900f13020009140780000ceb30027
:101ba40000c060000004a0000fe3b700d10d2000c6
:101bb4009140780000c7b30000c07000dde0b700ba
:101bc4009260a900a260a800c0502000205588009f
:101bd400a07b20004055880040aa200040188800bf
:101be4000080fa00000006000000fa0001e3a800eb
:101bf4000080fa00000006000000fa002124a8007a
:101c040020c4bf00f043b20020e4b7002044a80081
:101c140023e4a80023c4a8003142200091407800a6
:101c240030cfb30000c0600023e4b70022c4bf007b
:101c3400f043b20022e4b7002324a8002304a80040
:101c44000000eb006021880000c3250040218800cb
:101c540080e122003021880080e122009021880068
:101c640000102000b021880034e4a80035c4bf006f
:101c74006f4060000044a00035e4b70041432000f9
:101c84009140780000ccb30000c0600034e4b70099
:101c940030002000202188004124a80040c4bf0057
:101ca400f043b20040e4b7004044a80043e4a80075
:101cb40043c4a80043a4a8004384a80031442000de
:101cc4009140780030cfb30000c0600043e4b70017
:101cd40042c4bf00f043b20042e4b7004204a8008b
:101ce4004324a8004304a8000000eb0060228800fd
:101cf400007e240040228800003f22003022880019
:101d0400800020009022880000102000b02288006b
:101d140054e4a90055c4bf006f4060000044a00013
:101d240055e4b700414520009140780000ccb30051
:101d340000c0600054e4b700300020002022880076
:101d44006124a80060c4bf00f043b20060e4b7009f
:101d54006044a80063e4a90063c4a90063a4a800c4
:101d64006384a8000000eb0060238800007e240048
:101d740040238800003f2200302388008000200098
:101d840090238800801f2100b023880074e4a900f8
:101d940075c4bf006f4060000044a00075e4b70044
:101da400414720009140780000ccb30000c060009f
:101db40074e4b70030002000202388000080fa007b
:101dc400000006000000fa0001e4a8002324a90092
:101dd4002304a9004304a9000080fa0000000600bf
:101de400801f78000000fa00a0198000e04e8800ef
:101df400b0198000d04e880006a3a9009260a90003
:101e04000080fa004f007800004006003600f80019
:101e1400809fbe00829fbe00849fbe00869fbe003e
:101e24000000fa0085a0a900401880001000780086
:101e3400000001000080fa004f03be004f02be0004
:101e44004f01be004f00be003600f90000400600fe
:101e54000000fa00504c8000e10f500030003a00be
:101e6400009920005001be004000be00144c8000c8
:101e7400cfa2de00050378008603780027fa070066
:101e840004992000009abe000292be00009920002e
:101e94005001be004000be00be0907005055880036
:101ea400014c8000606626000088b9004109dd000d
:101eb4004f00de0000007100cf88de0000017800d2
:101ec40051558000909921000088b900c109dd00b6
:101ed4004f00de0000807100cf88de00000041006a
:101ee400004c8800049920006000b8006011b8001c
:101ef400009abe000292be00814f8000004c800018
:101f04000180b9004109dd004f00de0000007100ce
:101f1400cf88de00c04e880020002000504c88008e
:101f240024c9bf00e14f500030003a000093200064
:101f34005001be004000be00c4488000cfa2de00b5
:101f44000503780086037800f4f907000493200061
:101f5400009abe000292be00009320005001be0011
:101f64004000be008b09070050558800e1488000fe
:101f7400606626000088b900c109dd004f00de005c
:101f840000807100cf88de00000178005155800088
:101f9400909921000088b900c109dd004f00de00de
:101fa40000807100cf88de0000004100e048880016
:101fb400049320006000b8006011b800009abe00cd
:101fc4000292be00714f8000e04880000180b90099
:101fd4004109dd004f00de0000007100cf88de0003
:101fe400b04e880020c0b30024e9b700704b8000d5
:101ff400e10f500028003a00409720005001be0035
:102004004000be00344b8000cfa2de000503780000
:1020140086037800c1f9070044972000009abe00a7
:102024000292be00409720005001be004000be0056
:102034005809070050558800214b8000606626002f
:102044000088b900c109dd004f00de000080710086
:10205400cf88de000001780051558000909921005e
:102064000088b900c109dd004f00de000080710066
:10207400cf88de0000004100204b880044972000f8
:102084006000b8006011b800009abe000292be0061
:1020940020002000704b880054c9bf00e14f50005d
:1020a40030003a00809520005001be004000be0080
:1020b400244a8000cfa2de0005037800860378005e
:1020c40096f9070084952000009abe000292be0093
:1020d400809520005001be004000be002d0907007d
:1020e40050558800414a8000606626000088b90087
:1020f4004109dd004f00de0000007100cf88de00e2
:102104000001780051558000909921000088b900a1
:10211400c109dd004f00de0000807100cf88de00c1
:1021240000004100404a8800849520006000b80007
:102134006011b800009abe000292be00514f8000a8
:10214400404a80000180b9004109dd004f00de00f3
:1021540000007100cf88de00904e880020c0b300dc
:1021640054e9b7000080fa00000006000600fa00f7
:10217400000f780011079800220798000800370024
:102184001e007800904078001e00900001487800fe
:102194001e0090000000e800100798001e0fe800e1
:1021a4002e0090000000e900200798002e00900007
:1021b400e10f4000f2ff3a000080fa000000060040
:1021c4000000fa0021e2a8000122200091407800da
:1021d40090cfb30000c060000024a00020e2b7004c
:1021e4002002a9000000eb0010118800201020003c
:1021f400401188009560a8009580a80022c2bf0005
:10220400f043b20022e2b70023e2a90023a2a8000f
:10221400016e20009140780000ccb30000c0600043
:102224003040b300e0e6b700416a200091407800f6
:1022340000ccb30000c06000d041b300a4e6b700f6
:102244000040eb00aceab7000040eb00adeab70099
:102254000080fa00000006000000fa0081558000aa
:10226400401f2000808f50000500360010c0b300ce
:1022740060eab7000000eb008055880006003700d4
:10228400805580000000e00003003200805580008b
:102294000000e800805588000080fa000000060075
:1022a400809fbe00829fbe000200fa008560a900e4
:1022b400100020008055880028003700301180006d
:1022c400000f7800accabf000004e0001000320028
:1022d400c1aa200091407800f0c3b30080cf500021
:1022e4000b003e00c2aa2000124178008281fb004c
:1022f4001e00780080407800c0a1200000804100ca
:10230400014878000240e800aceab7001300370047
:10231400105080009e0f5000030032002000200067
:102324009e0f10000b003a00c2aa20001241780050
:102334008281fb001e00780080407800c0a120004c
:1023440000804100014878000240e800aceab70090
:10235400020037000040eb00aceab70022c2bf0025
:10236400614060000004e000d4ff3a000080fa00fd
:102374004f01be004f00be0000400600809fbe001b
:10238400821f78000000fa008580a900e1aa2000dd
:1023940091407800adcabf0080cf500005003100e5
:1023a400e1aa200091407800f0c3b30080cf500030
:1023b4000e0036000040eb00adeab7002342a9004e
:1023c400d4c2bf000080fb004700de0000c0ea006a
:1023d40061406000c700dd00d4c2bf000074a100ea
:1023e40001407000d4e2b7000a003700e2aa2000de
:1023f400124178008280fb00c0a1200000804000d0
:10240400104078000080fb00201188000240e800a2
:10241400aeeab7000080fa004f0178004f00be001a
:10242400004006000000fa00adcabf000004e0004e
:102434000d0032002342a8000040eb00aeeab700d2
:10244400e2aa2000124178008280fb00c0a1200093
:1024540000804000104078000080fb0020118800bc
:102464000240e800aeeab7000080fa00000006006f
:102474000800fa0020079800614798000080eb00ec
:10248400100798000040eb00104798002200370026
:102494002e009000104f78002e0090000000e800fd
:1024a400200798009e80fb001e00900000806800ba
:1024b4006f00600080004000204d28000080400034
:1024c400900078001e0090004400de000080680048
:1024d400100798001e80fb004400de008080fb0093
:1024e4001e009000008068006f00600080004000c3
:1024f400204d280000804000900078001e009000cd
:102504004400de0000806800100798001e40900020
:102514000040e800104798009e4090006e409000f4
:1025240080cf5000daff39001e0090000080fa00ce
:10253400000006000200fa00000f78001e00780078
:10254400c800de004800dd00010070000080fa00d1
:10255400000006000400fa00204798003147980064
:102564002e4090000080fb00000f78001e007800d1
:10257400c800dd003e4090000080fb000080700039
:102584000080fa00000006000600fa00000f780040
:1025940011079800700020009e0f100015003c00e9
:1025a4001e0090001e004000e80f500011003c0087
:1025b40010c0b3001eeab70080a7200010407800c6
:1025c4008080fb001e0078000008dd0000417800d8
:1025d4001e009000e8001000f00f20000100dd0054
:1025e400004061001feab700400020002007980067
:1025f400020037000000eb00200798002e00900036
:102604000080fa00000006000600fa00000f7800bf
:1026140011079800700020009e0f10001a003c0063
:102624001e0090000000e0000a00320083a7200092
:1026340080a720001040780000417800110020009d
:102644001e0078000008dd00004071008049780019
:102654000a00370083a7200080a7200010407800dc
:1026640000417800110020001e0078000008dd0001
:1026740000c0ea000040610080497800600020004a
:1026840020079800020037000000eb0020079800a4
:102694002e0090000080fa00000006000800fa00f6
:1026a40010079800210798002e00900000004000b9
:1026b4001eeab7001e009000ed0f50002f003c00f2
:1026c4001e009000ae00900001004000ee0f50008c
:1026d4002a003c000040eb00004f78001f00370048
:1026e4001e80fb00630140001e80fb000000d1003f
:1026f4008080fb001e0090000080400080004000ad
:10270400209d20000080400090409000c0a1200047
:1027140000004100014878001e80fb006401400075
:102724001e80fb000000d1008080fb001e00900092
:102734000080400080004000209d20000080400078
:1027440090407800c0a120000000410001487800ba
:102754001e40780000c0e800004f78001ecabf0089
:102764009e4f5000deff3e001ecabf006340400083
:102774000080fb00300798004a0037009e0090005c
:10278400f0ff2300808f5000440034009e0090002e
:102794002e0090008080400000022400808f5000b2
:1027a4003e003c009e00900000002c000080400091
:1027b400100798001e00900032022000110009004a
:1027c4000200d8008000fd0010079800a19e2000a0
:1027d4001e00900000004000c2c2b300ec050700d8
:1027e4000004e00003003a000000eb00300798000a
:1027f4002c0037000040eb00004f78001f0037002a
:102804001e80fb00630140001e80fb000000d1001d
:102814008080fb001e00900000804000800040008b
:10282400a09e20000080400090409000c0a12000a5
:1028340000004100014878001e80fb006401400054
:102844001e80fb000000d1008080fb001e00900071
:102854000080400080004000a09e200000804000d6
:1028640090407800c0a12000000041000148780099
:102874001e40780000c0e800004f78001ecabf0068
:102884009e4f5000deff3e001ecabf006340400062
:102894000080fb0030079800020037000000eb00c6
:1028a400300798003e0090000080fa000000060007
:1028b4000c00fa003007980041079800be00900011
:1028c400f0ff2300808f50004a003400be009000c7
:1028d40000002c0000804000300798003e0090006b
:1028e400eb0f50002e003c004e009000cf80de0025
:1028f40010079800210798003e00900080004000d7
:10290400209d200000804000100078000000e000be
:102914002c0032003e00900080004000209d2000ea
:102924000080400010007800000178001e00900034
:10293400ae009000cf09dd00c100de00818071008f
:102944004f00dd00811f7800110009004288d80083
:10295400cf007800000f7800be0190003e00900088
:1029640080004000a09e20000080400010007800fd
:102974001e0178000010b8004109dd004f00de00a0
:1029840000007100cf08de00000178008380410060
:10299400a09e200000804000020878000900370053
:1029a4003e009000f70f500006003c003e009000ef
:1029b40080004000a09e200000804000ce019000d6
:1029c400030878003e00900080004000a09e200094
:1029d40000804000800078003e009000000040002d
:1029e40022c0b300140507006000200050079800bf
:1029f400020037008000eb00510798005e00900051
:102a04000080fa00000006000800fa001007980091
:102a1400210798009e009000f0ff2300808f500053
:102a24003a0034009e0090002e0090008080400008
:102a3400f0012400808f500034003c009e00900080
:102a440000002c0000804000100798000040eb00bc
:102a5400004f78001f0037001e80fb000000d100eb
:102a64008080fb001e009000008140001e80fb005f
:102a7400e7004000c0a120000080400090417800a1
:102a840082004100a09e2000008040001340980076
:102a94001e80fb000000d1008080fb001e0090001f
:102aa400008140001e80fb00e8004000c0a120001f
:102ab400008040009041780082004100a09e2000e8
:102ac40000804000034878001e40780000c0e80001
:102ad400004f780022cabf009e4f5000deff3e0028
:102ae40022a2200012417800a19e20001e00900026
:102af40000004000d00407000004e000030032009e
:102b04006000200030079800020037000000eb004e
:102b1400300798003e0090000080fa000000060094
:102b24000800fa0060cabf00e14f50005f003a009d
:102b34000040eb0060eab700c1aa20009140780091
:102b4400c0a120004afe07000000e0003a003a005d
:102b54001ecabf00304798001fcabf002047980014
:102b640020cabf005047980021cabf0040479800c0
:102b74001dcabf000080fb00300798003e00900093
:102b8400e40f500007003c003e009000e30f5000ab
:102b940016003d003e009000e10f50002600350075
:102ba4000d0037003e009000e60f5000190032007f
:102bb4003e009000e60f5000110035003e009000ea
:102bc400ef0f50001c0032003e009000f00f500048
:102bd4001500320018003700ae0090001e0090006f
:102be40069fe0700adeab70013003700ae0090009d
:102bf4001e009000a9fe0700adeab7000e003700e2
:102c0400ae0090001e0090007ffe0700adeab70002
:102c140009003700ae0090001e00900024ff07005a
:102c2400adeab70004003700ae0090001e0090002b
:102c340075ff0700adeab700adcabf000004e000ad
:102c440017003200d1aa200091407800c0a12000d2
:102c540007fe0700000f7800d3aa200093417800f4
:102c64008380fb001e417800c0a12000008040004a
:102c7400024878000340e800adeab700d3aa200078
:102c8400934178008380fb001e419000c0a1200086
:102c940000804000024878000340e800adeab70035
:102ca4000040eb00aceab700defd07000080fa004c
:102cb400000006000000fa00011120009140780095
:102cc400f0ccb30000c0600010e1b70000fa2000af
:102cd40060088800710a200091407800f0c8b300b1
:102ce40000c0600001c4b30001407000a7e0b70059
:102cf40094e0a80011e1a80040002000a05588003d
:102d04000080fa00000006003600f800809fbe0034
:102d1400829fbe00849fbe00869fbe001800fa00fa
:102d24009154800080bb2000808f50000d0034003f
:102d34000000eb0090548800d4c2bf000080fb0068
:102d44004700de0000c0ea0061406000c700dd000b
:102d5400d4c2bf000074a10001407000d4e2b700e7
:102d64000fa3a800905480000000e800905488004d
:102d7400914a8000b0538000614060000080fb00f5
:102d840000804000904a880011498000b0538000c0
:102d94000000d100614060000080fb000080400022
:102da400104988002cfd0700ab050700a0558000e2
:102db400300f9800be089000e28f50005a00320095
:102dc4003e089000e20f500004003c00be08900052
:102dd4000100e000080032007b0237003e0890004a
:102de400e30f500078023200be089000e48f5000d8
:102df4005a023200740237000040eb002ee9b7009b
:102e0400a05080000000e0003d00320056c9bf0021
:102e1400e44f500028003a00914e8000803e20008c
:102e2400808f500068023400b24e8000914e8000c2
:102e3400c0f92f0000804000800f51000b003d00be
:102e44005148800060eb2700808f500007003c0051
:102e5400504880000000e800504888006000b80036
:102e6400c0548800d154880057023700c0548000f1
:102e7400d154800061004000e0804800c0548800c4
:102e8400d1548800c2548000d354800000532700da
:102e940001002000800f5100818f59004a02340044
:102ea4006000b800c0548800d1548800200020007d
:102eb400a055880044023700b14e800030832000c2
:102ec400808f500008003c005148800060eb2700d0
:102ed400808f500004003c00504880000000e8004f
:102ee40050488800380237006000b800c054880099
:102ef400d154880020002000a055880032023700f9
:102f04000040eb0066eab7006000b8001053880088
:102f1400215388000001eb008000eb000040eb002f
:102f24002a05070028023700a05080000000e000b6
:102f34001c003a000040eb0066eab7006000b800ed
:102f440010538800215388000001eb008000eb003f
:102f54000040eb001d05070075cabf000004e00037
:102f640008003a00ccc2bf00684060000004e000e2
:102f740004003a000040eb0074eab70010c0b3004c
:102f840075eab7000000eb00504888000040eb00f1
:102f94002fe9b7000040eb002ee9b7000000eb007a
:102fa400a055880066cabf000000fb00200f9800ef
:102fb4002e089000e10f50005c003200ae08900033
:102fc400e28f5000c90032002e0890000000e0009b
:102fd400010032001a013700c14e800060538000a6
:102fe400808f50001600340020c0b30066eab7009a
:102ff400009f2400210020001053880021538800e2
:103004000001eb008000eb0010c0b300ef040700e8
:1030140075cabf000004e00009013a00ccc2bf0039
:10302400684060000004e00005013a000040eb0045
:1030340074eab70010c0b30075eab70000013700a6
:10304400c14e800050538000808f50000b0034002c
:1030540010c0b30066eab700003e2900410020001a
:103064001053880021538800823e2000813e2000b6
:1030740020c0b300d5040700f10037000040eb0086
:1030840066eab7006000b800105388002153880036
:103094000001eb008000eb000040eb00cb040700d4
:1030a4002ec9bf000004e000e500320075cabf006d
:1030b4000004e000e2003a00ccc2bf000080fb0044
:1030c4004300de00614060000080fb00100f9800a8
:1030d400205080008000eb00010f98000000e00009
:1030e40002003a0010002000000f98009e08900093
:1030f4000e089000808f5000d1003a0020508000cc
:103104008040eb00614f98000000e00002003a00ac
:1031140010c0b300604f98006e48900074eab70086
:1031240010c0b30075eab700c50037001253800021
:10313400235380001000200001002000800f510064
:10314400818f590048003600c14e800060538000d2
:10315400808f50001500340020c0b30066eab70029
:10316400009f240021002000105388002153880070
:103174000001eb008000eb0010c0b30093040700d3
:1031840075cabf000004e00008003a00ccc2bf00ca
:10319400684060000004e00004003a000040eb00d6
:1031a40074eab70010c0b30075eab700c14e8000de
:1031b40050538000808f50002b003c000040eb00f7
:1031c40066eab7006000b8001053880021538800f5
:1031d4000001eb008000eb000040eb007b040700e3
:1031e4002ec9bf000004e0001f00320075cabf00f2
:1031f4000004e0001c003a00ccc2bf000080fb00c9
:103204004300de00614060000080fb00600798001e
:10321400205080008000eb00510798000000e0007f
:1032240002003a001000200050079800ee009000c1
:103234005e009000808f50000b003a002050800008
:103244008040eb00014f98000000e00002003a00cb
:1032540010c0b300004f98000e48900074eab70005
:1032640010c0b30075eab7001253800023538000e6
:103274001000200001002000800f5100818f5900b0
:103284006f003a00c14e800050538000808f500080
:103294006b0034000001eb008000eb0010c0b300b1
:1032a4004a04070075cabf000004e00008003a00a1
:1032b400ccc2bf00684060000004e00004003a0093
:1032c4000040eb0074eab70010c0b30075eab70021
:1032d400105380002153800061005000e0805800aa
:1032e4001053880021538800550037001253800082
:1032f400235380001000200001002000800f5100a3
:10330400818f590041003600c14e8000c0508000ba
:10331400808f50002b003d000040eb0066eab700b0
:103324006000b80010538800215388000001eb00ae
:103334008000eb000040eb00240407002ec9bf000e
:103344000004e0001f00320075cabf000004e00062
:103354001c003a00ccc2bf000080fb004300de002a
:10336400614060000080fb0030079800205080001e
:103374008000eb00210798000000e00002003a0002
:103384001000200020079800be0090002e0090003e
:10339400808f50000b003a00205080008040eb00ea
:1033a400214798000000e00002003a0010c0b3007a
:1033b400204798002e40900074eab70010c0b30074
:1033c40075eab700c14e800050538000808f5000d2
:1033d4000e003400c14e800060538000808f500086
:1033e4000a003c0010c0b30066eab700003e2900a2
:1033f400410020001053880021538800823e2000a1
:10340400813e200020c0b300f00307001253800067
:10341400235380001000200001002000800f510081
:10342400818f590006003a00105380002153800018
:1034340061005000e0805800105388002153880038
:10344400125380002353800010002000010020004c
:10345400800f5100818f5900060036001053800000
:103464002153800061005000e08058001053880010
:103474002153880066cabf000000fb00004f88008b
:1034840020508000404f880075cabf00e14f5000b3
:1034940027003a0020c0b30075eab7002ec9bf0068
:1034a4000004e0000e003200914e8000b04e800017
:1034b400008050004af507008000780030062000a4
:1034c400808f500006003c00d4a2a8008025200074
:1034d40001002000805388009153880014003700b5
:1034e400d4a2a90074cabf008040eb001147980021
:1034f4000004e00002003a0010c0b3001047980036
:103504009e40900061c060004301dd00c12c20009a
:103514009140780070cfb30000c06000024070009a
:10352400cce2b7006000b800805388009153880053
:103534008053800091538000e00f5000e08f5800ca
:1035440026003200805380009153800061005000b7
:10355400e080580080538800915388008253800093
:10356400935380004024200001002000800f51006c
:10357400818f590010003a0074cabf008040eb00ec
:10358400014f78000004e00002003a0010c0b300cc
:10359400004f78009e40780061c060004301dd0068
:1035a400c12c20009140780070cfb30000c06000af
:1035b40002407000cce2b700825380009353800035
:1035c4001000200001002000800f5100818f59005d
:1035d40007003a00d4a2a9000500370075cabf004d
:1035e400e24f500002003a000040eb0075eab700d9
:1035f40056c9bf00e44f500030003a00914e80009d
:1036040020672000808f50006f003400914e8000ae
:1036140010992000808f50006b003c00914e800078
:10362400b04e800000805000edf407008000780068
:10363400401f2000808f50006300340055c9bf0034
:103644000040e80055e9b70055c9bf00e54f5000f8
:103654005d003600b14e8000904e8000808f500097
:1036640008003d005148800060eb2700808f500027
:103674000f003c00504880000000e80050488800db
:103684000b003700b14e8000904e8000808f5000b8
:103694000700340051488000d0cc2000808f5000b7
:1036a40003003400504880000000e90050488800be
:1036b4000040eb0055e9b70043003700b14e8000ed
:1036c400f0862000808f50000d003c00514880009f
:1036d40060eb2700808f500019003c0040498000b7
:1036e4000000e00016003a00504880000000e800a6
:1036f40050488800803e2000404988001000370070
:10370400b14e8000008c2000808f50000c003400eb
:1037140051488000d0cc2000808f50000800340035
:10372400404980000000e00005003a005048800055
:103734000000e90050488800803e2000404988008d
:10374400404980000000e0001f0032004049800032
:103754000000e900404988001b0037000000eb002e
:1037640050488800a0548000b1548000610040009b
:10377400e0804800a0548800b1548800a25480001e
:10378400b354800000a62e0001002000800f5100d9
:10379400818f59000c0036006000b800a0548800e6
:1037a400b154880056c9bf00e44f500003003200f2
:1037b40056c9bf000004e00003003a00cc82a9000f
:1037c4000000eb00a05588000000eb0030088800e2
:1037d40084e0a9000080fa004f03be004f02be003f
:1037e4004f01be004f00be003600f9000040060045
:1037f4000400fa00c9e2a900cbe2a900c8a2a8000b
:10380400cea2a8000080fa00000006000800fa001a
:10381400c8a2a800caa2a8000000eb0030079800c4
:1038240004003700000000003e0090000000e800a3
:1038340030079800be00900010032000808f5000d5
:10384400f8ff3400c9e2a900cbe2a8000000eb00b5
:103854002007980004003700000000002e009000ac
:103864000000e80020079800ae009000100320003c
:10387400808f5000f8ff3400c8a2a900caa2a90092
:103884000000eb001007980004003700000000005f
:103894001e0090000000e800100798009e009000b1
:1038a40010032000808f5000f8ff3400c9e2a90003
:1038b400cbe2a9000000eb00000f78000200370003
:1038c400000000001e0fe800100320009e0f1000ef
:1038d400fbff34000080fa00000006000800fa0034
:1038e400c8a2a900caa2a9000000eb0030079800f2
:1038f40004003700000000003e0090000000e800d3
:1039040030079800be00900010032000808f500004
:10391400f8ff3400c9e2a900cbe2a8000000eb00e4
:103924002007980004003700000000002e009000db
:103934000000e80020079800ae009000100320006b
:10394400808f5000f8ff3400c8a2a800caa2a800c3
:103954000000eb001007980004003700000000008e
:103964001e0090000000e800100798009e009000e0
:1039740010032000808f5000f8ff3400c8a2a80074
:10398400cea2a8000080fa00000006000c00fa0095
:103994000040eb00204f9800c9e2a900cbe2a90047
:1039a400c8a2a800cea2a800c9e2a900cbe2a80040
:1039b4000000eb002007980004003700000000001e
:1039c4002e0090000000e80020079800ae00900050
:1039d40010032000808f5000f8ff3400cac2bf00db
:1039e4000080fb004500de0061406000204f98002d
:1039f400c9e2a900cbe2a9000000eb00100798007f
:103a040004003700000000001e0090000000e800e1
:103a1400100798009e00900010032000808f500033
:103a2400f8ff3400c8a2a800caa2a8002e4890003b
:103a34000000fb000080fa00000006000600fa0007
:103a4400c8a2a900caa2a9000000eb0020079800a0
:103a540004003700000000002e0090000000e80081
:103a640020079800ae00900010032000808f5000c3
:103a7400f8ff3400c9e2a900cbe2a8000000eb0083
:103a84001007980004003700000000001e0090009a
:103a94000000e800100798009e009000100320002a
:103aa400808f5000f8ff3400c9e2a900cbe2a900de
:103ab4000000eb00000f7800020037000000000057
:103ac4001e0fe800100320009e0f1000fbff3400bf
:103ad4000080fa00000006000600fa00c8a2a80050
:103ae400caa2a8000000eb002007980004003700d9
:103af400000000002e0090000000e800200798005d
:103b0400ae00900010032000808f5000f8ff3400b6
:103b1400c9e2a900cbe2a8000000eb00100798005e
:103b240004003700000000001e0090000000e800c0
:103b3400100798009e00900010032000808f500012
:103b4400f8ff3400c9e2a900cbe2a9000000eb00b1
:103b5400000f780002003700000000001e0fe8008c
:103b6400100320009e0f1000fbff34000080fa00b9
:103b7400000006000e00fa00404f9800c9e2a900b8
:103b8400cbe2a9000000eb004007980004003700d6
:103b9400000000004e0090000000e800400798007c
:103ba400ce00900010032000808f5000f8ff3400f6
:103bb4000040eb00204f98003e0037004e48900034
:103bc4008080fb002e4890000080fb000008dd0090
:103bd4004700de00610060000004e0000e003200d7
:103be400c8a2a800caa2a8000000eb0030079800f1
:103bf40004003700000000003e0090000000e800d0
:103c040030079800be00900010032000808f500001
:103c1400f8ff34000d003700c8a2a900caa2a90009
:103c24000000eb00200798000400370000000000ab
:103c34002e0090000000e80020079800ae009000dd
:103c440010032000808f5000f8ff3400c9e2a9005f
:103c5400cbe2a8000000eb00100798000400370036
:103c6400000000001e0090000000e800100798000b
:103c74009e00900010032000808f5000f8ff340055
:103c8400c9e2a900cbe2a9000000eb00000f780014
:103c940002003700000000001e0fe800100320009f
:103ca4009e0f1000fbff34002e4890000040e800f7
:103cb400204f98002e489000e74f5000bfff360079
:103cc4000080fa00000006000a00fa000040eb0041
:103cd400004f9800c8a2a800cea2a800c9e2a9007b
:103ce400cbe2a9000000eb00200798000400370095
:103cf400000000002e0090000000e800200798005b
:103d0400ae00900010032000808f5000f8ff3400b4
:103d14000040eb00104f980024003700c9e2a900ce
:103d2400cbe2a8000000eb00100798000400370065
:103d3400000000001e0090000000e800100798003a
:103d44009e00900010032000808f5000f8ff340084
:103d54000e48900000404000004f9800cac2bf00c7
:103d64000042b2000004e000030032000e4890005c
:103d74000040e800004f9800c9e2a900cbe2a90086
:103d84000000eb00000f7800020037000000000084
:103d94001e0fe800100320009e0f1000fbff3400ec
:103da4001e4890000040e800104f98001e48900004
:103db400e74f5000d9ff36000e4890000080fb000a
:103dc4000080fa00000006000400fa00004f7800aa
:103dd400114798008dfe070000cab30065ff070075
:103de400eafe07000004e000030032000000eb00dc
:103df400100798000d0037001e4078005dff070093
:103e0400e2fe07000004e000030032000000eb00c3
:103e140010079800050037001e40900055ff07006a
:103e2400aefe070010002000100798001e0090004e
:103e34000080fa00000006000a00fa0020479800fb
:103e4400210798006247980070fe070000cab3007b
:103e540048ff0700cdfe07000004e0000300320025
:103e64000000eb00400798001e0037002e40900031
:103e740040ff0700c5fe07000004e0000300320015
:103e84000000eb0040079800160037000040eb00ec
:103e9400004f78000d0037002e009000104078008d
:103ea40034ff0700b9fe07000004e00003003200fd
:103eb4000000eb00400798000a0037002e00900035
:103ec4000000e800200798001e4fe8006e409000b4
:103ed4009e4f1000f0ff390080fe07001000200004
:103ee400400798004e0090000080fa000000060091
:103ef4000600fa00004f78001107980043fe0700ff
:103f040000cab3001bff0700a0fe07000004e00086
:103f1400030032000000eb0020079800190037006e
:103f24001e40780013ff070098fe07000004e0001d
:103f3400030032000000eb00200798001100370056
:103f440032fe070010cab3000aff07008ffe070005
:103f54000004e000030032000000eb00200798009a
:103f64000800370058ff0700804078001e009000ca
:103f740001487800d8fe070058fe07001000200012
:103f8400200798002e0090000080fa000000060030
:103f94000a00fa0020479800210798006247980019
:103fa4001afe070000cab300f2fe070077fe0700fe
:103fb4000004e000030032000000eb00400798001a
:103fc4002b0037002e409000eafe07006ffe07002a
:103fd4000004e000030032000000eb0040079800fa
:103fe4002300370009fe070010cab300e1fe0700f2
:103ff40066fe07000004e000030032000000eb004e
:10400400400798001a0037000040eb00004f78008a
:10401400090037002cff0700804078002e00900034
:104024000148780085fe07002e0090000000e8009b
:10403400200798001e4fe8009e80fb006e40900011
:104044000080fb000000e900808f5000f1ff350084
:104054001dff0700804078002e0090000148780082
:104064009dfe07001dfe0700100020004007980079
:0c4074004e0090000080fa0000000600e2
:020000040000fa
:1040800000080000d2010000020000000000c9008a
:10409000009201005b02230003ec0300b5047d00e5
:1040a000054506000d07d500079c080064092a0095
:1040b0000af10a00b60b7c000c410d00050ec90088
:1040c0000e8c0f004f10110011d3110094125400e8
:1040d00013131400d1148f00154c16000817c300d9
:1040e000177d18003719ef0019a61a005d1b120082
:1040f0001cc61c00791d2b001edc1e008b1f390006
:1041000020e7200092213d0022e622008e23340089
:1041100024da24007d251f0026c026005f27fd002d
:10412000279928003429cd0029652a00fa2a8e0013
:104130002b212c00b22c41002dce2d005a2ee30055
:104140002e6b2f00f12f760030f830007931f70018
:1041500031743200ee32670033de33005334c60070
:1041600034363500a5351200367c3600e5364b0076
:1041700037af37001138710038cf38002a39830043
:1041800039da39002f3a82003ad23a00203b6c00eb
:104190003bb63b00fd3b42003c843c00c53c02007a
:1041a0003d3e3d00773dae003de23d00143e440003
:1041b0003e713e009c3ec5003eeb3e000e3f2f0090
:1041c0003f4e3f006a3f84003f9c3f00b13fc30029
:1041d0003fd33f00e13fec003ff43f00fb3ffe00d8
:1041e0003f004000e047000000e047000000000002
:1041f00000000000000000000000000000000000bf
:1042000000000000000000000000000000000000ae
:10421000000000000000000000000000000000009e
:10422000000000000000000000000000000000008e
:10423000000000000000000000000000000000007e
:10424000000000000000000000000000000000006e
:10425000000000000000000000000000000000005e
:10426000000000000000000000000000000000004e
:10427000000000000000000000000000000000003e
:10428000000000000000000000000000000000002e
:10429000000000000000000000000000000000001e
:1042a000000000000000000000000000000000000e
:1042b00000000000000000000000000000000000fe
:1042c00000000000000000000000000000000000ee
:1042d00000000000000000000000000000000000de
:1042e00000000000000000000000000000000000ce
:1042f000000000000000000000000000a20a000012
:104300000a00000000000000820a00001000000007
:10431000020000000000000000000000000000009b
:1043200000000000b80b000000000000b20a00000e
:104330000200000000000000920a000010000000cf
:10434000020000000000000000000000000000006b
:10435000000000000000000000000000b40a00009f
:104360000200000000000000ac0a0000060000008f
:104370000200000000000000000000001c0a000015
:104380004600000000000000620a0000200000005b
:10439000020000000000000000000000000000001b
:1043a000000000000000000000000000000000000d
:1043b00000000000000000000000000000000000fd
:1043c000d20900004a0000000000000000000000c8
:020000040000fa
:1043d0000600fa00004f78001107980022079800a5
:1043e0009e00fb00a0a72000604090000080fb0022
:1043f000808f5000170032009e407800a0a7200058
:1044000061409800a0a720009e0090001100980035
:10441000a0a72000ae00900021009800a0a72000d7
:10442000604090000004e00006003200d442a80082
:10443000a0a7200090009000a0a72000010878000d
:1044400004003700d442a900a1a720000000eb001f
:10445000800878000080fa00000006000000fa00e2
:10446000a0a72000100078000000e0000500320046
:10447000a0a72000100078008000e900a0a720007d
:1044800001087800a0a7200010007800e10f50007c
:1044900024003a00a0a7200060409000e24f5000a6
:1044a0001c003a00d4c2bf000080fb004200de00c6
:1044b0006140600000c0ea0061406000614060004f
:1044c0004201dd00412d200091407800b0cfb300c3
:1044d00000c0600002407000d4e2b700d4c2bf0048
:1044e000644060000004e00005003200a0a7200046
:1044f00090009000a0a72000010878000900370074
:10450000a0a72000a0009000a0a72000010878002c
:1045100004003700d442a900a1a720000000eb004e
:10452000800878000080fa00000006000000fa0011
:10453000f0ff2700504f8800f0ff2700604f8800f1
:10454000f0ff2700704f8800f0ff2700804f8800a1
:10455000f0ff2700904f8800f0ff2700a04f880051
:10456000f0ff2700b04f8800f0ff2700c04f880001
:10457000f0ff2700d04f8800f0ff2700e04f8800b1
:10458000f0ff2700f04f8800f0ff27000050880060
:104590000080fa00000006000c00fa0030079800c6
:1045a000410798003e009000ce009000e00f5000c0
:1045b000e08f580003003a000000eb00500798001d
:1045c000430037003e019000ce0190000000200023
:1045d00001042000800f5100818f59000b003e0024
:1045e0003e009000ce0090004609dd004a00de004b
:1045f00000007100ca08de00f20320000300200062
:10460000021f4000039748001c0037003e01900045
:10461000ce0190000000200001802000800f51009a
:10462000818f59000b003e003e009000ce009000ac
:10463000c409dd004c00de0000807100cc08de0003
:10464000f20f200003002000021f400003974800e3
:104650000a0037003e009000ce009000c209dd0045
:104660004e00de0000807100ce08de00f23f200028
:1046700003002000021f4000039748000000eb00e9
:10468000200798000d0037001e01be003e0090007c
:10469000ce009000b3f007003e014000ae8148001c
:1046a0000200be008100d1000080d300008fbe0058
:1046b0002e0090000000e800200798002e009000d7
:1046c000e40f5000f0ff36009e0178005307980079
:1046d0005e0090000080fa00000006000200fa0070
:1046e0006000b800c0548800d1548800d042a900ae
:1046f000d0e2a900c862a900c882a900d0a2a9007e
:10470000d0c2a800cc62a800cc82a800d4a2a90084
:104710003a00070068f90700aaf60700f1f407005d
:1047200036f50700a8f5070030f5070031fc070053
:10473000d4e2a8001000200001002000a05488004e
:10474000b1548800d442a9000000eb005048880012
:10475000a19e200002c3b3000040eb000dfe070045
:1047600050508000e20f400006003a006fff070043
:1047700020a020008000780082c1b30060c1b30097
:1047800004fe0700c1508000d0cc24000088b9008e
:104790004209dd004e00de0000007100ce88de0020
:1047a00050538800c1508000f0ff27000088b900f6
:1047b0004209dd004e00de0000007100ce88de0000
:1047c0006053880030508000a0508800b0508000b6
:1047d0008000eb00010f78000000e00002003a00ca
:1047e00012002000020f78001e007800905588000b
:1047f000ccf8070097f50700fdff37000000fa002e
:1048000090022000303a880044c7bf00f043b20055
:1048100044e7b700417420009140780000ceb30017
:1048200000c0600044e7b7001200200081072000ac
:10483000a009200033742000814978008049780065
:1048400082497800120020006104200070052000d9
:1048500023742000814978008049780082497800db
:1048600043c7bf000047b200f04f5000fcff3a00c2
:1048700042c7bf000042b2000004e000fcff32006b
:1048800050c7a80051a7a80051c7bf007040b3008f
:1048900051e7b70051e7a80051c7bf000044b2007c
:1048a0000004e000fcff32000080fa000000060077
:00000001FF
