:020000040000fa
:080000000002040000000000f2
:020000040000fa
:100400002fa920000eff20000e0188000000000030
:100410000c00070080d4210001002000110007001b
:10042000000020000000e000020032000000020096
:10043000000000005c1f0200000000000040da0025
:100440000000fe004440a900000220000000e0007f
:100450000300320000002000a00188004440a800f2
:100460000000060091018800800078000000eb0089
:1004700015003700e280400032a0b4009101ba00bc
:10048000e280400032a0b4009102ba00e280400055
:1004900032a0b4000002eb00472bde00f507b200eb
:1004a000602ce10004003a000059eb008301e900f0
:1004b000fdff3e00040037006128e100010032002a
:1004c0000082eb00040007001101ba000200e00006
:1004d000e8ff3a00000006003159ba008301e90044
:1004e0000c0032002159ba008301e90008003200f3
:1004f0000400e00003003a00e280400032a0b400b3
:10050000f5ff370011d9ba008301e900faff3a007c
:100510008100e800e180400032a0b4000000060045
:1005200000000000000000000000000000000000cb
:100530000040da000000fe00881f78000004780008
:100540005001be004000be0004004000858048000d
:100550000601490087814900009cbe000294be004c
:100560000400e1000588e1000690e1000798e10041
:1005700002003100680044001008e8004f047800d1
:1005800000000600f4874700889fbe008a9fbe00d7
:100590008c9fbe008e1f78000205be000004be00c6
:1005a000d4b79f00e5b79f00f6b79f0087bf9f00b5
:1005b0000000eb00c0b79f00b0b79f00a0b79f003e
:1005c00090b79f0080b79f000d042000bfb0970038
:1005d0004fb09700000140000000e0000f003d0018
:1005e0004f08de0000007100c0b79f009e000700aa
:1005f00001003d0012002000a100070001003d00a5
:1006000012002000a6000700b1000700b600070096
:100610000f004000c8ff0700220037004f08de002f
:1006200000067100ccb79f008f00070001003d005d
:10063000120020009200070001003d00120020007f
:1006400097000700a20007000fb297009fb2970023
:100650002fb39700bfb39700a90007000000520016
:1006600081805a0002015b0083815b0080b79f009c
:1006700091b79f00a2b79f00b3b79f000007eb00a0
:100680009f0007000020e10001a8e10002b0e100a6
:1006900003b8e100010031001e0020000e005600ea
:1006a000c0b79f004fb297000400e000070035007c
:1006b00010002000010020006011b8000804700044
:1006c000898470000a0571008b8571008d06e90030
:1006d000beff3a000400e00003003d008200070076
:1006e0000f00400094ff07004fa897000000e000b3
:1006f00004003a000fb497009fb497002fb59700fd
:10070000bfb59700940007004f0778004f06be0062
:100710004f05be004f04be004f01b10000000600af
:10072000881f780018002000881f780095ff0700b8
:100730008f87e9004f04780000000600801feb005f
:1007400090ff07008f87e90000000600889fbe0029
:100750008a9fbe008c1f78006e00070007003d00d6
:1007600073000700e00f5b00e08f5b0007003d00b7
:10077000320007000006eb000400370034000700d9
:1007800002003d002a0007001c0020007200070044
:10079000e3ff07000203be000002be000c00e00001
:1007a00001003200220007000400be000601be0066
:1007b0004f0678004f05be004f04be000000060043
:1007c000889fbe008a9fbe008c1f780051000700e2
:1007d00005003d0056000700e00f5b00e08f5b0066
:1007e00006003d00040037001900070003003d002b
:1007f0006000b8006011b800100007005600070044
:10080000ceff07000203be000002be000c00e000a5
:1008100001003200060007000400be000601be0011
:100820004f0678004f05be004f04be0000000600d2
:100830006000b8006011b8000000370004025000ea
:10084000858258000603590087835900000006007e
:100850000006eb00e00f5200e08f5a00e00f5b0053
:10086000e08f5b00000006000180400090b79f0011
:100870000001eb008fb097000100e00000000600cf
:100880000200700090b79f000180400080b79f0079
:100890000001eb00ffa897000100e0000000060047
:1008a0000200700080b79f00018040006faa97008f
:1008b000cf20de0001007000f0af9f000402420074
:1008c000250007004f18de0000027200000006003d
:1008d000e4af9f000804440089844c000a054d00e1
:1008e0008b854d00000006003fb29700cfb2970005
:1008f0005fb39700efb3970000fe2f0000000600e3
:100900003fb09700cfb097005fb19700efb197006d
:10091000000006000205be000004be00e00f50000b
:10092000e08f5800e00f5900e08f590000000600ea
:100930006000b8006011b8000804500089845800b5
:100940000a0559008b8559001c002000e00f520059
:10095000e08f5a00000006000800be000a01be0039
:10096000000006006022b800060220000000d0004f
:100970008180d2000482d2008582d2000000a000d3
:100980000202520083825a00030031000202420038
:1009900083824a000000a1000603e900f3ff3a0049
:0409a000000006004d
:020000040000fa
:0200000401f009
:04000c00f8ff0000f9
:020000040000fa
:0200000401f009
:040010005bff000092
:020000040000fa
:0200000401f009
:040014007fff00006a
:020000040000fa
:0200000401f009
:04001800ffff0000e6
:020000040000fa
:0200000401f009
:04001c00dfff000002
:020000040000fa
:100008009802000098020000980200009802000080
:100018009802000098020000980200009802000070
:100028009802000098020000980200009802000060
:10003800980200009802000098020000141b0000bb
:100048009802000098020000980200007411000055
:10005800e4110000120f000098020000980200004e
:100068009802000098020000980200009802000020
:100078009802000098020000980200009802000010
:100088009802000098020000980200009802000000
:1000980098020000980200009802000098020000f0
:1000a80098020000980200009802000098020000e0
:1000b80098020000980200009802000098020000d0
:1000c80098020000980200009802000098020000c0
:1000d80098020000980200009802000098020000b0
:1000e80098020000980200009802000098020000a0
:1000f8009802000098020000980200009802000090
:10010800980200009802000098020000980200007f
:10011800980200009802000098020000980200006f
:10012800980200009802000098020000980200005f
:10013800980200009802000098020000980200004f
:10014800980200009802000098020000980200003f
:10015800980200009802000098020000980200002f
:10016800980200009802000098020000980200001f
:10017800980200009802000098020000980200000f
:1001880098020000980200009802000098020000ff
:1001980098020000980200009802000098020000ef
:1001a80098020000980200009802000098020000df
:1001b80098020000980200009802000098020000cf
:1001c80098020000980200009802000098020000bf
:1001d80098020000980200009802000098020000af
:1001e800980200009802000098020000fc0e00002f
:0801f8009802000098020000cb
:020000040000fa
:10020800980200009802000098020000980200007e
:10021800980200009802000098020000980200006e
:10022800980200009802000098020000980200005e
:10023800980200009802000098020000141b0000b9
:100248009802000098020000980200007411000053
:10025800e4110000120f000098020000980200004c
:10026800980200009802000098020000980200001e
:10027800980200009802000098020000980200000e
:1002880098020000980200009802000098020000fe
:1002980098020000980200009802000098020000ee
:1002a80098020000980200009802000098020000de
:1002b80098020000980200009802000098020000ce
:1002c80098020000980200009802000098020000be
:1002d80098020000980200009802000098020000ae
:1002e800980200009802000098020000980200009e
:1002f800980200009802000098020000980200008e
:10030800980200009802000098020000980200007d
:10031800980200009802000098020000980200006d
:10032800980200009802000098020000980200005d
:10033800980200009802000098020000980200004d
:10034800980200009802000098020000980200003d
:10035800980200009802000098020000980200002d
:10036800980200009802000098020000980200001d
:10037800980200009802000098020000980200000d
:1003880098020000980200009802000098020000fd
:1003980098020000980200009802000098020000ed
:1003a80098020000980200009802000098020000dd
:1003b80098020000980200009802000098020000cd
:1003c80098020000980200009802000098020000bd
:1003d80098020000980200009802000098020000ad
:1003e800980200009802000098020000fc0e00002d
:0803f8009802000098020000c9
:020000040000fa
:1009a4000000000001cc000001d800000014000089
:1009b40001f00000003c00000028000001e40000f9
:1009c40001a00000006c00000078000001b40000e9
:1009d40000500000019c0000018800000044000059
:020000040000fa
:1009e4000400fa00000f78001e0078001007980039
:1009f4001e0090000000e00003003d001e00900077
:100a04000000ea00100798001e0090000080fa0021
:100a1400000006001800fa00889fbe008a9fbe00ee
:100a240000198000c500dd00504c8000808050001b
:100a340000012c0000804000c04b8800004c800066
:100a44000000e800004c880010198000c500dd009b
:100a5400d04880008080500000012c0000804000bd
:100a640070488800f04880000000e800f0488800e2
:100a7400004980000000e80000498800304c8000f4
:100a8400e30f500020003a00c09820003004be005c
:100a94002005be00c14b8000c04b80000182b9001c
:100aa4004fabde00cfb3de000400be0006017800c9
:100ab4008601780008004000898048000a01490046
:100ac4008b814900c4982000009abe000292be00a7
:100ad400114c8000c04b8000808f500004003d000a
:100ae400c04b8000104c8800004c8000204c8800d3
:100af400414c8000c04b8000808f500002003400c5
:100b0400c04b8000404c880024c9bf00e34f500014
:100b140020003a00c09220003004be002005be0030
:100b240071488000704880000182b9004fabde003c
:100b3400cfb3de000400be00060178008601780011
:100b440008004000898048000a0149008b8149005f
:100b5400c4922000009abe000292be009148800018
:100b640070488000808f500004003d007048800071
:100b740090488800f0488000a0488800b148800070
:100b840070488000808f500002003400704880005c
:100b9400b0488800f148800080162000808f500003
:100ba4000b003400804880000000e00008003d0095
:100bb400704880000000e0000500350070488000a7
:100bc40081488000010050000000e00004003c0067
:100bd400f1488000803e2000808f50009b0034004c
:100be400004c8000f04b88000000eb00004c8800b3
:100bf400f0488000c04888000000eb00f0488800fe
:100c0400304c8000e20f50000c003a00c4982000e1
:100c14006000b8006011b800009abe000292be00e5
:100c24000000eb00404c8800404c8000104c8800d1
:100c340030002000304c880027003700104c800022
:100c4400414c800001004000ea0f50000f003400c6
:100c5400504c8000300f9800514c80000001eb0094
:100c6400220f9800703e2000808f500002003c004c
:100c740013002000230f9800be0890002e09900056
:100c840002804000504c880013003700104c800054
:100c9400414c800001004000ea0f40000e003d007e
:100ca400534c8000130f9800514c80000000eb005f
:100cb400000f980080c12f00808f50000200340084
:100cc40011002000010f98001e0990008e09900069
:100cd40003005100504c880024c9bf00e24f50006b
:100ce4000c003a00c49220006000b8006011b80003
:100cf400009abe000292be000000eb00b0488800db
:100d0400b04880009048880030c0b30024e9b700a0
:100d14002900370090488000b1488000010040005d
:100d2400ea0f50000f003400d0488000700798008c
:100d3400d14880000001eb0062079800703e20005b
:100d4400808f500002003c001300200063079800cd
:100d5400fe0090006e01900002804000d0488800a0
:100d64001300370090488000b14880000100400023
:100d7400ea0f40000e003d00d3488000530798005e
:100d8400d14880000000eb004007980080c12f008c
:100d9400808f5000020034001100200041079800a9
:100da4005e019000ce01900003005100d0488800fd
:100db40010c0b30024e9b700c0488000104f880079
:100dc400c148800000192000808f500011003400b9
:100dd400c148800070252000808f50000d003c0029
:100de40026c9bf000040e80026e9b7000000eb0078
:100df4004049880026c9bf00f44f50001300360054
:100e04000040eb0026e9b70040c0b30025e9b70075
:100e14000e003700404980000000e8004049880087
:100e24000040eb0026e9b70040498000ea0f50007b
:100e3400040034000000eb00404988000040eb004f
:100e440025e9b7000000eb00d0488800f148800095
:100e540000082000808f50000d003400804880007e
:100e64000000e0000a003400704880000000e00048
:100e740007003c0080488000714880000100500059
:100e84000000e000020034000000eb00004988008c
:100e94007048800080488800604880000000e000be
:100ea40006003a0042c4bf00f043b20001c8b300d8
:100eb4000140700042e4b700070037006148800039
:100ec40000102000808f500003003a0042c4bf008d
:100ed400f043b20042e4b700504880003007980065
:100ee40061488000f0072000808f500007003c001c
:100ef40060488000800040000080200000804000a6
:100f04001000780020079800260037006148800010
:100f1400f00f2000808f500009003c0061488000e1
:100f240000102000010050008000400000802000dc
:100f34000080400010007800100798001700370068
:100f440061488000f0172000808f500009003c00a9
:100f54006148800000f02f000080400080004000c5
:100f6400008020000080400010007800000f78000e
:100f74000800370061488000002020000100500074
:100f840080004000008020000080400010007800b5
:100f9400000f78009e007800110798001e01900051
:100fa40022079800ae0190003e0190000298b9001b
:100fb400c109dd004f00de0000807100cf88de0033
:100fc40030228800604880000000e80002202000f1
:100fd400110009000200d8008000fd00604888006c
:100fe4000603a9004f05be004f04be000080fa00ae
:100ff400000006003200fa00889fbe008a9fbe00ef
:1010040030198000c500dd00704b800080805000e6
:1010140000012c0000804000e04a8800204b800042
:101024000000e800204b880020198000c500dd0086
:10103400104a80008080500000012c000080400095
:10104400a0498800f04980000000e800f0498800c9
:10105400604a80000000e800604a8800504b80002d
:10106400e30f500020003a00009720003004be0037
:101074002005be00e14a8000e04a80000182b900f8
:101084004fabde00cfb3de000400be0006017800e3
:101094008601780008004000898048000a01490060
:1010a4008b81490004972000009abe000292be0082
:1010b400314b8000e04a8000808f500004003d00e6
:1010c400e04a8000304b8800204b8000404b880071
:1010d400614b8000e04a8000808f500002003400a1
:1010e400e04a8000604b880050c9bf00e34f5000c5
:1010f40020003a00409520003004be002005be00c8
:10110400a1498000a04980000182b9004fabde00f4
:10111400cfb3de000400be0006017800860178002b
:1011240008004000898048000a0149008b81490079
:1011340044952000009abe000292be00c14980007e
:10114400a0498000808f500004003d00a049800029
:10115400c0498800f0498000d0498800e1498000f6
:10116400a0498000808f500002003400a049800014
:10117400e0498800f149800000082000808f500079
:101184000d003400b04980000000e0000a00340083
:10119400a04980000000e00007003c00b049800046
:1011a400a1498000010050000000e000020034006a
:1011b4000000eb00604a8800f1498000801620009e
:1011c400808f50000b003400b04980000000e00024
:1011d40008003d00a04980000000e0000500350043
:1011e400a0498000b1498000010050000000e000e7
:1011f40004003c00f1498000803e2000808f5000b4
:101204002d023400204b8000104b88000000eb00be
:10121400204b8800f0498000004a88000000eb0061
:10122400f0498800504b8000e20f50000c003a0057
:10123400049720006000b8006011b800009abe0056
:101244000292be000000eb00604b8800604b8000ff
:10125400304b880030002000504b880027003700b6
:10126400304b8000614b800001004000ea0f5000c9
:101274000f003400704b8000001f9800714b8000f9
:101284000001eb0072179800703e2000808f500020
:1012940002003c0010002000701798008e18900087
:1012a4007e11900002804000704b880013003700cc
:1012b400304b8000614b800001004000ea0f400089
:1012c4000e003d00704b800060179800714b800049
:1012d4000001eb005217980080c12f00808f50004e
:1012e400020034001000200050179800ee10900007
:1012f4005e11900002805000704b880050c9bf00fe
:10130400e24f50000c003a00449520006000b80001
:101314006011b800009abe000292be000000eb000b
:10132400e0498800e0498000c049880030c0b3002b
:1013340050e9b7002d003700f1498000703e2000cd
:10134400808f500029003c00c0498000e1498000a2
:1013540001004000ea0f50000f003400104a8000e2
:1013640040179800114a80000001eb0032179800e2
:10137400703e2000808f500002003c0010002000ce
:1013840030179800ce1090003e119000028040006b
:10139400104a880013003700c0498000e1498000ea
:1013a40001004000ea0f40000e003d00104a80009a
:1013b40020179800114a80000001eb0012179800d2
:1013c40080c12f00808f50000200340010002000e4
:1013d40010179800ae1090001e119000028050006b
:1013e400104a880010c0b30050e9b700014a8000d9
:1013f400703e2000808f500004003c00714e80003d
:10140400703e2000808f50000d003e00404a800056
:101414000000e800404a8800404a8000e50f500080
:101424009b0134000040eb0052e9b7000000eb00e0
:10143400404a88000000eb00104a880094013700fd
:1014440052c9bf000000fb00001798000e10900066
:10145400e10f5000160032008e109000e48f50000f
:10146400650032000e1190000200e000010032001d
:1014740087013700304a80000000e800304a8800c5
:10148400304a8000ea0f500081013400714e800020
:10149400803e2000808f50007d01360010c0b300d4
:1014a40052e9b7000000eb00304a880078013700a9
:1014b400014a8000f01f2000808f50001700340084
:1014c4001248800023488000f0e12400010020003d
:1014d400800f5100818f590007003c0010488000a4
:1014e4002148800061004000e0804800600f9800bf
:1014f400710f98000400370000e22400010020006e
:10150400600f9800710f98006e089000fe0890001c
:10151400104888002148880025003700014a8000cf
:10152400e01f2000808f500017003c00124880000c
:10153400234880008026240001002000800f5100f1
:10154400818f590007003400104880002148800032
:1015540061005000e0805800400f9800510f98003f
:10156400040037008026240001002000400f98006a
:10157400510f98004e089000de0890001048880033
:10158400214888000a00370051c9bf000040e80024
:1015940051e9b70051c9bf00f44f500004003600b0
:1015a40040c0b30052e9b7000040eb0051e9b70076
:1015b4001248800023488000c04524000100200018
:1015c400800f5100818f590031013400124880008e
:1015d40023488000f0e1240001002000800f510026
:1015e400818f59002a013c00104880002148800066
:1015f4004023880026013700014a8000f01f2000a4
:10160400808f500028003400124880002348800056
:10161400f0e1240001002000800f5100818f590067
:1016240007003c0010488000214880006100400011
:10163400e0804800200f9800310f98000400370024
:1016440000e2240001002000200f9800310f9800d0
:101654002e089000be089000104888002148880099
:101664001248800023488000c04524000100200067
:10167400800f5100818f59003600340012488000d9
:1016840023488000f0e1240001002000800f510075
:10169400818f59002f003c001048800021488000b1
:1016a400402388002b003700014a8000e01f2000ff
:1016b400808f500027003c0012488000234880009f
:1016c4008026240001002000800f5100818f5900e2
:1016d4000700340010488000214880006100500059
:1016e400e0805800000f9800110f980004003700a4
:1016f4008026240001002000000f9800110f98009c
:101704000e0890009e089000104888002148880028
:101714001248800023488000c045240001002000b6
:10172400800f5100818f59000a0034001248800054
:1017340023488000f0e1240001002000800f5100c4
:10174400818f590003003c0010488000214880002c
:101754004023880025c9bf00e44f5000cc003a0064
:101764001048800021488000000178003048800043
:10177400414880000000510099fc07008000780077
:1017840010032000808f500078003c000149800045
:10179400604a800000805000e0538800e0538000dd
:1017a4008ffc07000000e0004b003400e153800090
:1017b40000082000808f5000020034000008200040
:1017c400e0538800e153800000f82f00808f500020
:1017d40002003d0000f82f00e0538800e153800030
:1017e400604e8000008050006101b90030488000e4
:1017f400414880000200400083804800304888004f
:1018040041488800e0538000e20f50001700340084
:101814003248800043488000f0e1240001002000a9
:10182400800f5100818f590007003c003048800030
:101834004148800061004000e08048006007980053
:10184400710798000400370000e224000100200022
:1018540060079800710798006e009000fe009000e9
:10186400304888004148880019003700e053800060
:10187400e20f400016003d003248800043488000db
:101884008026240001002000800f5100818f590020
:101894000700340030488000414880006100500057
:1018a400e080580040079800510798000400370072
:1018b400802624000100200040079800510798006a
:1018c4004e009000de0090003048880041488800b7
:1018d400e0538000604e8800e053800040fc070025
:1018e400e10f50000f003c0026c9bf000040e80093
:1018f40026e9b700619220009140780020c3b3002c
:1019040080cf50000400360010c0b3002ae9b700ad
:101914000040eb0026e9b7000000eb0040498800d6
:101924004a003700e05380002dfc0700ea0f500006
:1019340046003400404980000000e8004049880027
:101944000040eb0026e9b700414980004006200032
:10195400808f50003d0034000040eb002ae9b700be
:101964000000eb004049880038003700324880000e
:10197400434880001048800021488000800f5100b7
:10198400818f590017003d00324880004348800091
:10199400f0e1240001002000800f5100818f5900e4
:1019a40007003c003048800041488000610040004e
:1019b400e0804800200798003107980004003700b1
:1019c40000e224000100200020079800310798005d
:1019d4002e009000be0090003048880041488800e6
:1019e4001a003700324880004348800010488000c5
:1019f40021488000800f5100818f5900130034006a
:101a040032488000434880008026240001002000e2
:101a1400800f5100818f5900060034003048800047
:101a24004148800061005000e0805800008fbe00f3
:101a3400030037008026240001002000008fbe0030
:101a44001e00be00304888004148880032488000ab
:101a540043488000c045240001002000800f51004d
:101a6400818f59000a0034003248800043488000c6
:101a7400f0e1240001002000800f5100818f590003
:101a840003003c0030488000414880004022880028
:101a94001048800021488000e04e880030488000d3
:101aa40041488000d04e8800d0488000204f8800f4
:101ab400004a8000004f8800a0498000b049880097
:101ac4000623a9004f05be004f04be000080fa00a3
:101ad400000006000000fa00a0198000c04e880033
:101ae400b0198000b04e880006a3a9000080fa0057
:101af400000006000000fa0001e3a90001a3a90008
:101b04000183a8000103a90000e3a80000c3a90001
:101b140000a3a9000083a8000130200091407800b0
:101b240080cfb30000c060005040b30000e3b700b2
:101b34000000eb0030188800a10a200091407800d2
:101b4400f0c8b30000c060000044a000aae0b700e1
:101b540085a0a90095a0a8000203a9000223a9005a
:101b6400a13020009140780000ceb30000c0600096
:101b74005040b3000ae3b7000ae3a8000243a900f7
:101b84000263a900b13020009140780000ceb30078
:101b940000c060006040b3000be3b7000be3a80093
:101ba4000343a9000363a900f130200091407800a9
:101bb40000ceb30000c060000004a0000fe3b70033
:101bc400d10d20009140780000c7b30000c0700020
:101bd400dde0b7009260a900a260a800c050200018
:101be400f0538800c07f200010548800e0a7200034
:101bf400401888000080fa00000006000000fa0087
:101c040001e3a8000080fa00000006000000fa00ca
:101c14002124a80020c4bf00f043b20020e4b70090
:101c24002044a80023e4a80023c4a80031422000d3
:101c34009140780030cfb30000c0600023e4b700c7
:101c440022c4bf00f043b20022e4b7002324a8005a
:101c54002304a8000000eb006021880000c32500d5
:101c64004021880080e122003021880080e12200a8
:101c74009021880000102000b021880034e4a800de
:101c840035c4bf006f4060000044a00035e4b700d5
:101c9400414320009140780000ccb30000c06000b4
:101ca40034e4b70030002000202188004124a8003b
:101cb40040c4bf00f043b20040e4b7004044a80071
:101cc40043e4a80043c4a80043a4a8004384a80094
:101cd400314420009140780030cfb30000c0600050
:101ce40043e4b70042c4bf00f043b20042e4b7008b
:101cf4004204a8004324a8004304a8000000eb0009
:101d040060228800007e240040228800003f2200d8
:101d140030228800800020009022880000102000db
:101d2400b022880054e4a90055c4bf006f4060008d
:101d34000044a00055e4b7004145200091407800dc
:101d440000ccb30000c0600054e4b70030002000b1
:101d5400202288006124a80060c4bf00f043b200c0
:101d640060e4b7006044a80063e4a90063c4a90068
:101d740063a4a8006384a8000000eb00602388002b
:101d8400007e240040238800003f22003023880086
:101d94008000200090238800801f2100b023880049
:101da40074e4a90075c4bf006f4060000044a00043
:101db40075e4b700414720009140780000ccb3009f
:101dc40000c0600074e4b7003000200020238800c5
:101dd4000080fa00000006000000fa0001e4a800f8
:101de4002324a9002304a9004304a9000080fa00c5
:101df40000000600801f78000000fa00a01980008f
:101e0400c04e8800b0198000b04e880006a3a90017
:101e14009260a9000080fa004f007800004006009c
:101e24003600f800809fbe00829fbe00849fbe00e3
:101e3400869fbe000000fa0085a0a900401880001b
:101e440010007800000001000080fa004f03be007b
:101e54004f02be004f01be004f00be003600f90025
:101e6400004006000000fa00304c8000e10f5000f2
:101e740031003a00c09820005001be004000be006e
:101e8400f44b8000cfa2de000503780086037800bf
:101e940022fa0700c4982000009abe000292be00f5
:101ea400c09820005001be004000be004e0807004c
:101eb40020548800e14b8000606626000088b90049
:101ec4004109dd004f00de0000007100cf88de0014
:101ed4000001780021548000909921000088b90005
:101ee400c109dd004f00de0000807100cf88de00f4
:101ef40000004100e04b8800c49820006000b80056
:101f04006011b800009abe000292be00205080000a
:101f140080007800e04b80000180b9004209dd00b8
:101f24004e00de0000007100ce88de00a04e880066
:101f340020002000304c880024c9bf00e14f50002d
:101f440031003a00c09220005001be004000be00a3
:101f5400c4488000cfa2de00050378008603780021
:101f6400eef90700c4922000009abe000292be005f
:101f7400c09220005001be004000be001a080700b5
:101f840020548800e1488000606626000088b9007b
:101f9400c109dd004f00de0000807100cf88de0043
:101fa4000001780021548000909921000088b90034
:101fb400c109dd004f00de0000807100cf88de0023
:101fc40000004100e0488800c49220006000b8008e
:101fd4006011b800009abe000292be00105080004a
:101fe40080007800e04880000180b9004209dd00eb
:101ff4004e00de0000007100ce88de00904e8800a6
:1020040020c0b30024e9b700504b8000e10f50001a
:1020140031003a00009720005001be004000be008d
:10202400144b8000cfa2de000503780086037800fd
:10203400baf9070004972000009abe000292be007d
:10204400009720005001be004000be00e6070700d4
:1020540020548800014b8000606626000088b90087
:10206400c109dd004f00de0000807100cf88de0072
:102074000001780021548000909921000088b90063
:10208400c109dd004f00de0000807100cf88de0052
:1020940000004100004b8800049720006000b80055
:1020a4006011b800009abe000292be000050800089
:1020b40080007800004b80000180b9004209dd00f7
:1020c4004e00de0000007100ce88de00804e8800e5
:1020d40020002000504b880050c9bf00e14f500041
:1020e40031003a00409520005001be004000be007f
:1020f400044a8000cfa2de0005037800860378003e
:1021040086f9070044952000009abe000292be00a2
:10211400409520005001be004000be00b2070700f9
:1021240020548800214a8000606626000088b90097
:10213400c109dd004f00de0000807100cf88de00a1
:102144000001780021548000909921000088b90092
:10215400c109dd004f00de0000807100cf88de0081
:1021640000004100204a8800449520006000b80027
:102174006011b800009abe000292be00f04f8000c9
:1021840080007800204a80000180b9004109dd0008
:102194004f00de0000007100cf88de00704e880022
:1021a40020c0b30050e9b7000080fa000000060028
:1021b4000600fa00000f7800110798002207980023
:1021c400080037001e007800904078001e00900040
:1021d400014878001e0090000000e80010079800f5
:1021e4001e0fe8002e0090000000e9002007980070
:1021f4002e009000e10f4000f2ff3a000080fa0048
:10220400000006000000fa0021e2a80001222000dc
:102214009140780090cfb30000c060000024a0007b
:1022240020e2b7002002a9000000eb001011880092
:1022340020102000401188009560a8009580a80017
:1022440022c2bf00f043b20022e2b70023e2a90099
:1022540023a2a800016e20009140780000ccb300b6
:1022640000c060003040b300e0e6b700416a2000df
:102274009140780000ccb30000c06000d041b300ae
:10228400a4e6b7000040eb0086eab7000040eb008c
:1022940087eab7000080fa00000006000000fa0098
:1022a40051548000401f2000808f500005003600ec
:1022b40010c0b3005aeab7000000eb005054880085
:1022c40006003700505480000000e0000300320094
:1022d400505480000000e800505488000080fa0048
:1022e40000000600809fbe00829fbe000200fa002c
:1022f4008560a90010002000505488002900370090
:1023040030118000000f780086cabf000004e0008e
:102314001000320061a8200091407800f0c3b3009f
:1023240080cf50000b003e0062a8200012417800cc
:102334008281fb001e0078008040780060a12000ac
:1023440000804100014878000240e80086eab700b6
:1023540014003700e6c9bf000080fb009e0f500048
:1023640003003200200020009e0f10000b003a00f2
:1023740062a82000124178008281fb001e007800d0
:102384008040780060a1200000804100014878006e
:102394000240e80086eab700020037000040eb0084
:1023a40086eab70022c2bf00614060000004e0007a
:1023b400d3ff3a000080fa004f01be004f00be0078
:1023c40000400600809fbe00821f78000000fa00d3
:1023d4008580a90081a820009140780087cabf00a9
:1023e40080cf50000500310081a820009140780082
:1023f400f0c3b30080cf50000e0036000040eb0065
:1024040087eab7002342a900d4c2bf000080fb00c2
:102414004700de0000c0ea0061406000c700dd0044
:10242400d4c2bf000074a10001407000d4e2b70020
:102434000a00370082a82000124178008280fb0045
:1024440060a1200000804000104078000080fb0064
:10245400201188000240e80088eab7000080fa00f2
:102464004f0178004f00be00004006000000fa0053
:1024740087cabf000004e0000d0032002342a80018
:102484000040eb0088eab70082a8200012417800df
:102494008280fb0060a12000008040001040780092
:1024a4000080fb00201188000240e80088eab700a1
:1024b4000080fa00000006000800fa0020079800d7
:1024c400614798000080eb00100798000040eb0083
:1024d40010479800220037002e009000104f78001b
:1024e4002e0090000000e800200798009e80fb006a
:1024f4001e009000008068006f00600080004000b3
:10250400204d280000804000900078001e009000bc
:102514004400de0000806800100798001e80fb0065
:102524004400de008080fb001e00900000806800f4
:102534006f00600080004000204d280000804000b3
:10254400900078001e0090004400de0000806800c7
:10255400100798001e4090000040e80010479800c3
:102564009e4090006e40900080cf5000daff39000a
:102574001e0090000080fa00000006000200fa002d
:10258400000f78001e007800c800de004800dd005f
:10259400010070000080fa00000006000400fa0048
:1025a40020479800314798002e4090000080fb009f
:1025b400000f78001e007800c800dd003e40900047
:1025c4000080fb00008070000080fa00000006001c
:1025d4000600fa00000f7800110798007000200030
:1025e4009e0f100015003c001e0090001e004000cd
:1025f400e80f500011003c0010c0b30018eab70007
:10260400e0a82000104078008080fb001e007800c5
:102614000008dd00004178001e009000e800100072
:10262400f00f20000100dd000040610019eab7004e
:102634004000200020079800020037000000eb0053
:10264400200798002e0090000080fa000000060089
:102654000600fa00000f78001107980070002000af
:102664009e0f10001a003c001e0090000000e000c5
:102674000a003200e3a82000e0a8200010407800ff
:1026840000417800110020001e0078000008dd00e1
:1026940000407100804978000a003700e3a8200058
:1026a400e0a82000104078000041780011002000cc
:1026b4001e0078000008dd0000c0ea000040610050
:1026c400804978006000200020079800020037004d
:1026d4000000eb00200798002e0090000080fa0014
:1026e400000006000800fa0010079800210798006f
:1026f4002e0090000000400018eab7001e00900071
:10270400ed0f50002f003c001e009000ae00900022
:1027140001004000ee0f50002a003c000040eb0096
:10272400004f78001f0037001e80fb00630140004b
:102734001e80fb000000d1008080fb001e00900082
:102744000080400080004000e09c200000804000a9
:102754009040900060a120000000410001487800f2
:102764001e80fb00640140001e80fb000000d100bd
:102774008080fb001e00900000804000800040002c
:10278400e09c2000008040009040780060a1200080
:1027940000004100014878001e40780000c0e800b5
:1027a400004f780018cabf009e4f5000deff3e0065
:1027b40018cabf00634040000080fb003007980047
:1027c4004a0037009e009000f0ff2300808f5000e5
:1027d400440034009e0090002e0090008080400051
:1027e40030022400808f50003e003c009e00900088
:1027f40000002c0000804000100798001e0090008c
:1028040032022000110009000200d8008000fd00ff
:1028140010079800619e20001e00900000004000f8
:10282400c2c2b3002f0307000004e00003003a0013
:102834000000eb00300798002c0037000040eb004c
:10284400004f78001f0037001e80fb00630140002a
:102854001e80fb000000d1008080fb001e00900061
:102864000080400080004000609e20000080400006
:102874009040900060a120000000410001487800d1
:102884001e80fb00640140001e80fb000000d1009c
:102894008080fb001e00900000804000800040000b
:1028a400609e2000008040009040780060a12000dd
:1028b40000004100014878001e40780000c0e80094
:1028c400004f780018cabf009e4f5000deff3e0044
:1028d40018cabf00634040000080fb003007980026
:1028e400020037000000eb00300798003e00900023
:1028f4000080fa00000006000c00fa00300798007f
:1029040041079800be009000f0ff2300808f500024
:102914001d003400be00900000022400808f50008f
:1029240019003c00be00900000002c000080400014
:10293400300798003e0090004e0190008000400057
:10294400609e200000804000020878003e00900055
:102954000000400080007800609e2000008040005d
:10296400800078003e0090000000400022c0b300c8
:10297400860207000004e0003e00320060002000f0
:10298400500798003d0037003e0090000000e00032
:10299400380035003e009000ec0f500035003c003c
:1029a4004e009000cf80de001007980021079800a9
:1029b4003e00900080004000e09c20000080400029
:1029c400100178001e009000ae009000cf09dd00d9
:1029d400c100de00818071004f00dd00811f78009e
:1029e400110009004288d800cf007800000f780059
:1029f4003e009000ec0140003e0090006c0040005e
:102a040080004000609e200000804000100078009c
:102a14001e0178000010b8004109dd004f00de00ff
:102a240000007100cf08de000001780083804100bf
:102a3400609e200000804000020878003e00900064
:102a44000000400080007800e09f200000804000eb
:102a5400800078003e009000000040007840400074
:102a640022c0b30049020700630020005307980006
:102a7400020037000000eb00500798005e00900051
:102a84000080fa00000006000800fa001007980011
:102a9400210798009e009000f0ff2300808f5000d3
:102aa400390034009e0090002e0090008080400089
:102ab400f0012400808f500033003c009e00900001
:102ac40000002c0000804000100798000040eb003c
:102ad400004f78001f0037001e80fb000000d1006b
:102ae4008080fb001e009000008140001e80fb00df
:102af400e700400060a12000008040009041780081
:102b040082004100609e2000008040001340980035
:102b14001e80fb000000d1008080fb001e0090009e
:102b2400008140001e80fb00e800400060a12000fe
:102b3400008040009041780082004100609e2000a7
:102b440000804000034878001e40780000c0e80080
:102b5400004f78001ccabf009e4f5000deff3e00ad
:102b6400619e20001e0090000000400082c1b3005e
:102b7400060207000004e0000300320060002000a9
:102b840030079800020037000000eb00300798007f
:102b94003e0090000080fa00000006000800fa00e1
:102ba4005acabf00e14f500064003a000040eb00f5
:102bb4005aeab70061a820009140780060a1200083
:102bc4003dfe07000000e0003f003a0018cabf00c5
:102bd4003047980019cabf00204798001acabf009e
:102be400504798001bcabf004047980017cabf004f
:102bf4000080fb00300798003e009000e40f500076
:102c040007003c003e009000e30f500017003d0019
:102c14003e009000e10f50002b0035000d003700fe
:102c24003e009000e60f50001c0032003e00900071
:102c3400e60f5000130035003e009000ef0f5000e7
:102c4400210032003e009000f00f500019003200c5
:102c54001d0037002e009000800078001e009000b8
:102c64005bfe070087eab700170037002e009000cc
:102c7400800078001e0090009afe070087eab700e3
:102c8400110037002e009000800078001e00900094
:102c94006ffe070087eab7000b0037002e00900094
:102ca400800078001e00900013ff070087eab70039
:102cb400050037002e009000800078001e00900070
:102cc40071ff070087eab70087cabf000004e0006d
:102cd4001700320071a820009140780060a1200004
:102ce400f5fd0700000f780073a8200093417800d9
:102cf4008380fb001e41780060a12000008040001a
:102d0400024878000340e80087eab70073a820006f
:102d1400934178008380fb001e41900060a1200055
:102d240000804000024878000340e80087eab700ca
:102d34000040eb0086eab700ccfd07000080fa00f3
:102d4400000006000400fa00c9e2a900cbe2a900d1
:102d5400c8a2a800cea2a8000080fa0000000600c5
:102d64000800fa00c8a2a800caa2a8000000eb004c
:102d74003007980004003700000000003e00900077
:102d84000000e80030079800be0090001003200007
:102d9400808f5000f8ff3400c9e2a900cbe2a800fc
:102da4000000eb002007980004003700000000003a
:102db4002e0090000000e80020079800ae0090006c
:102dc40010032000808f5000f8ff3400c8a2a9002f
:102dd400caa2a9000000eb00100798000400370005
:102de400000000001e0090000000e800100798009a
:102df4009e00900010032000808f5000f8ff3400e4
:102e0400c9e2a900cbe2a9000000eb00000f7800a2
:102e140002003700000000001e0fe800100320002d
:102e24009e0f1000fbff34000080fa000000060033
:102e34000800fa00c8a2a900caa2a9000000eb0079
:102e44003007980004003700000000003e009000a6
:102e54000000e80030079800be0090001003200036
:102e6400808f5000f8ff3400c9e2a900cbe2a8002b
:102e74000000eb0020079800040037000000000069
:102e84002e0090000000e80020079800ae0090009b
:102e940010032000808f5000f8ff3400c8a2a8005f
:102ea400caa2a8000000eb00100798000400370035
:102eb400000000001e0090000000e80010079800c9
:102ec4009e00900010032000808f5000f8ff340013
:102ed400c8a2a800cea2a8000080fa000000060044
:102ee4000c00fa000040eb00204f9800c9e2a90052
:102ef400cbe2a900c8a2a800cea2a800c9e2a900fa
:102f0400cbe2a8000000eb00200798000400370083
:102f1400000000002e0090000000e8002007980048
:102f2400ae00900010032000808f5000f8ff3400a2
:102f3400cac2bf000080fb004500de0061406000a3
:102f4400204f9800c9e2a900cbe2a9000000eb00e1
:102f54001007980004003700000000001e009000d5
:102f64000000e800100798009e0090001003200065
:102f7400808f5000f8ff3400c8a2a800caa2a8009d
:102f84002e4890000000fb000080fa0000000600bc
:102f94000600fa00c8a2a900caa2a9000000eb001a
:102fa4002007980004003700000000002e00900065
:102fb4000000e80020079800ae00900010032000f5
:102fc400808f5000f8ff3400c9e2a900cbe2a800ca
:102fd4000000eb0010079800040037000000000018
:102fe4001e0090000000e800100798009e0090006a
:102ff40010032000808f5000f8ff3400c9e2a900bc
:10300400cbe2a9000000eb00000f780002003700bb
:10301400000000001e0fe800100320009e0f1000a7
:10302400fbff34000080fa00000006000600fa00ee
:10303400c8a2a800caa2a8000000eb0020079800bc
:1030440004003700000000002e0090000000e8009b
:1030540020079800ae00900010032000808f5000dd
:10306400f8ff3400c9e2a900cbe2a8000000eb009d
:103074001007980004003700000000001e009000b4
:103084000000e800100798009e0090001003200044
:10309400808f5000f8ff3400c9e2a900cbe2a900f8
:1030a4000000eb00000f7800020037000000000071
:1030b4001e0fe800100320009e0f1000fbff3400d9
:1030c4000080fa00000006000e00fa00404f98004d
:1030d400c9e2a900cbe2a9000000eb004007980078
:1030e40004003700000000004e0090000000e800db
:1030f40040079800ce00900010032000808f5000fd
:10310400f8ff34000040eb00204f98003e003700e9
:103114004e4890008080fb002e4890000080fb0009
:103124000008dd004700de00610060000004e000ec
:103134000e003200c8a2a800caa2a8000000eb003a
:103144003007980004003700000000003e009000a3
:103154000000e80030079800be0090001003200033
:10316400808f5000f8ff34000d003700c8a2a9007a
:10317400caa2a9000000eb00200798000400370051
:10318400000000002e0090000000e80020079800d6
:10319400ae00900010032000808f5000f8ff340030
:1031a400c9e2a900cbe2a8000000eb0010079800d8
:1031b40004003700000000001e0090000000e8003a
:1031c400100798009e00900010032000808f50008c
:1031d400f8ff3400c9e2a900cbe2a9000000eb002b
:1031e400000f780002003700000000001e0fe80006
:1031f400100320009e0f1000fbff34002e489000a7
:103204000040e800204f98002e489000e74f5000ff
:10321400bfff36000080fa00000006000a00fa0032
:103224000040eb00004f9800c8a2a800cea2a8005e
:10323400c9e2a900cbe2a9000000eb002007980036
:1032440004003700000000002e0090000000e80099
:1032540020079800ae00900010032000808f5000db
:10326400f8ff34000040eb00104f980024003700b2
:10327400c9e2a900cbe2a8000000eb001007980007
:1032840004003700000000001e0090000000e80069
:10329400100798009e00900010032000808f5000bb
:1032a400f8ff34000e48900000404000004f9800a2
:1032b400cac2bf000042b2000004e00003003200b2
:1032c4000e4890000040e800004f9800c9e2a900b1
:1032d400cbe2a9000000eb00000f780002003700e9
:1032e400000000001e0fe800100320009e0f1000d5
:1032f400fbff34001e4890000040e800104f980087
:103304001e489000e74f5000d9ff36000e48900049
:103314000080fb000080fa00000006000400fa00b0
:10332400004f7800114798008dfe070000cab300d3
:1033340065ff0700eafe07000004e0000300320016
:103344000000eb00100798000d0037001e407800c5
:103354005dff0700e2fe07000004e0000300320006
:103364000000eb0010079800050037001e40900095
:1033740055ff0700aefe070010002000100798005c
:103384001e0090000080fa00000006000a00fa0007
:1033940020479800210798006247980070fe0700b4
:1033a40000cab30048ff0700cdfe07000004e00098
:1033b400030032000000eb00400798001e003700b5
:1033c4002e40900040ff0700c5fe07000004e00007
:1033d400030032000000eb0040079800160037009d
:1033e4000040eb00004f78000d0037002e009000e5
:1033f4001040780034ff0700b9fe07000004e00025
:10340400030032000000eb00400798000a00370078
:103414002e0090000000e800200798001e4fe800ee
:103424006e4090009e4f1000f0ff390080fe0700b0
:1034340010002000400798004e0090000080fa0021
:10344400000006000600fa00004f780011079800fb
:1034540043fe070000cab3001bff0700a0fe0700dd
:103464000004e000030032000000eb002007980095
:10347400190037001e40780013ff070098fe07006c
:103484000004e000030032000000eb002007980075
:103494001100370032fe070010cab3000aff07000c
:1034a4008ffe07000004e000030032000000eb0080
:1034b400200798000800370058ff07008040780074
:1034c4001e00900001487800d8fe070058fe07004f
:1034d40010002000200798002e0090000080fa00c1
:1034e400000006000a00fa0020479800210798000f
:1034f400624798001afe070000cab300f2fe0700f4
:1035040077fe07000004e000030032000000eb0037
:10351400400798002b0037002e409000eafe070079
:103524006ffe07000004e000030032000000eb001f
:10353400400798002300370009fe070010cab300b3
:10354400e1fe070066fe07000004e000030032000d
:103554000000eb00400798001a0037000040eb0021
:10356400004f7800090037002cff070080407800e6
:103574002e0090000148780085fe07002e00900080
:103584000000e800200798001e4fe8009e80fb0022
:103594006e4090000080fb000000e900808f500026
:1035a400f1ff35001dff0700804078002e009000d9
:1035b400014878009dfe07001dfe07001000200052
:1035c400400798004e0090000080fa0000000600ba
:1035d4000000fa000111200091407800f0ccb30003
:1035e40000c0600010e1b70000fa20006008880005
:1035f400710a200091407800f0c8b30000c0600058
:1036040001c4b30001407000a7e0b70094e0a80033
:1036140011e1a80040002000805488000080fa00d6
:10362400000006003600f800809fbe00829fbe00a6
:10363400849fbe00869fbe000400fa006153800090
:1036440080bb2000808f50000d0034000000eb0090
:1036540060538800d4c2bf000080fb004700de0036
:1036640000c0ea0061406000c700dd00d4c2bf00b2
:103674000074a10001407000d4e2b7000fa3a800b9
:10368400605380000000e80060538800714a8000a5
:1036940060548000614060000080fb0000804000b6
:1036a400704a880011498000605480000000d100f5
:1036b400614060000080fb000080400010498800e9
:1036c400b8010700f5fa070080548000100798003d
:1036d4009e009000e28f5000560032001e009000c1
:1036e400e20f500004003c009e0090000100e00046
:1036f40008003200db0037001e009000e30f50008a
:10370400d80032009e009000e48f5000ba003200ce
:10371400d40037000040eb002ae9b700c04f800016
:103724000000e000cf00320052c9bf00e44f500057
:1037340032003a00714e8000803e2000808f50009d
:1037440023003600924e8000714e8000c0f92f0095
:1037540000804000800f51000b0031005148800070
:1037640060eb2700808f500003003c00504880002d
:103774000000e800504888006000b80090538800ba
:10378400a15388001200370090538000a153800099
:1037940061004000e080480090538800a1538800f5
:1037a40092538000a353800000532700010020009f
:1037b400800f5100818f5900050034006000b8006b
:1037c40090538800a1538800200020008054880072
:1037d400d4c2bf000080fb004700de0000c0ea0046
:1037e40061406000c700dd00d4c2bf000074a100c6
:1037f40001407000d4e2b7009a00370051488000bd
:1038040060eb2700808f500004003c00504880008b
:103814000000e80050488800920037006000b800bb
:1038240090538800a1538800200020008054880011
:103834008c003700c04f80000000e00006003a0012
:103844000000eb0080548800cc62a800d4a2a80039
:103854000000eb005048880052c9bf00e44f5000fc
:1038640080003a00714e8000803e2000808f50001e
:1038740025003600714e8000904e8000008050007c
:1038840057f407008000780020032000808f500048
:103894001d003400d05380000000e800d05388009d
:1038a400d0538000e50f500017003400914e800083
:1038b400704e8000808f5000080031005148800015
:1038c40060eb2700808f50000f003c0050488000c0
:1038d4000000e800504888000b003700914e80003b
:1038e400704e8000808f50000700360051488000e1
:1038f400d0cc2000808f500003003400504880005a
:103904000000e900504888002ac9bf000004e00014
:103914003200320060548000680060000000e00063
:1039240007003200d4a2a800802520000100200056
:10393400b0538800c15388008c6aa900170037006f
:10394400b2538000c35380004024200001002000b3
:10395400800f5100818f590010003a005ecabf00e9
:103964008040eb00014f78000004e00002003a00c0
:1039740010c0b300004f78009e40780061c0600022
:103984004301dd00c12c20009140780070cfb300ca
:1039940000c0600002407000cce2b700b053800069
:1039a400c153800061005000e0805800b05388008b
:1039b400c1538800b0538000c1538000e00f500011
:1039c400e08f580027003a00d4a2a9006000b80094
:1039d400b0538800c153880022003700605480002f
:1039e400680060000000e0001e003200d4a2a900bc
:1039f400cc62a8001b0037000000eb005048880090
:103a0400705380008153800061004000e0804800d2
:103a14007053880081538800725380008353800060
:103a240000a62e0001002000800f5100818f590054
:103a34000c0036006000b800705388008153880081
:103a440052c9bf00e44f50000300320052c9bf0006
:103a54000004e00003003a00cc82a9000000eb005f
:103a6400805488000000eb003008880084e0a9003e
:103a74000080fa004f03be004f02be004f01be009b
:0c3a84004f00be003600f90000400600b4
:020000040000fa
:103a900000080000ce010000020000000000c90084
:103aa000009201005b02230003ec0300b5047d00db
:103ab000054506000d07d500079c080064092a008b
:103ac0000af10a00b60b7c000c410d00050ec9007e
:103ad0000e8c0f004f10110011d3110094125400de
:103ae00013131400d1148f00154c16000817c300cf
:103af000177d18003719ef0019a61a005d1b120078
:103b00001cc61c00791d2b001edc1e008b1f3900fb
:103b100020e7200092213d0022e622008e2334007f
:103b200024da24007d251f0026c026005f27fd0023
:103b3000279928003429cd0029652a00fa2a8e0009
:103b40002b212c00b22c41002dce2d005a2ee3004b
:103b50002e6b2f00f12f760030f830007931f7000e
:103b600031743200ee32670033de33005334c60066
:103b700034363500a5351200367c3600e5364b006c
:103b800037af37001138710038cf38002a39830039
:103b900039da39002f3a82003ad23a00203b6c00e1
:103ba0003bb63b00fd3b42003c843c00c53c020070
:103bb0003d3e3d00773dae003de23d00143e4400f9
:103bc0003e713e009c3ec5003eeb3e000e3f2f0086
:103bd0003f4e3f006a3f84003f9c3f00b13fc3001f
:103be0003fd33f00e13fec003ff43f00fb3ffe00ce
:103bf0003f004000e047000000e0470000000000f8
:103c000000000000000000000000000000000000b4
:103c100000000000000000000000000000000000a4
:103c20000000000000000000000000000000000094
:103c30000000000000000000000000000000000084
:103c40000000000000000000000000000000000074
:103c50000000000000000000000000000000000064
:103c60000000000000000000000000000000000054
:103c70000000000000000000000000000000000044
:103c80000000000000000000000000000000000034
:103c90000000000000000000000000000000000024
:103ca0000000000000000000000000000000000014
:103cb0000000000000000000000000000000000004
:103cc00000000000000000000000000000000000f4
:103cd00000000000000000000000000000000000e4
:103ce00000000000000000000000000000000000d4
:103cf00000000000000000000000000000000000c4
:103d0000000000007c0a00000a0000000000000023
:103d10005c0a00001000000002000000000000002b
:103d200000000000000000000000000088130000f8
:103d3000000000006c0a00001000000002000000fb
:103d40000000000000000000000000000000000073
:103d50000000000000000000900a000002000000c7
:103d600000000000860a00000600000002000000bb
:103d70000000000000000000160a000046000000dd
:103d8000000000008c0a0000040000000200000097
:103d90000000000000000000ce0900004800000004
:083da00000000000000000001b
:020000040000fa
:103da8000200fa00d2c2bf000044b2000004e000e2
:103db8001d0032002ac9bf000004e0001a003200ca
:103dc800005380001153800061004000e0804800eb
:103dd8000053880011538800025380001353800059
:103de800a0a62e0001002000800f5100818f5900ed
:103df8000d0036006000b800005388001153880099
:103e08005ecabf008040eb00014f78000004e0006c
:103e180002003a0010c0b300004f78001e4078003e
:103e28005eeab7008c6aa8002ac9bf000004e00057
:103e3800190032004053800051538000e00f5000b9
:103e4800e08f58000f003200425380005353800027
:103e58008038210001002000800f5100818f590017
:103e680001003a00d442a80040538000515380001a
:103e780061005000e080580040538800515388008a
:103e880009003700d442a9006000b80040538800f8
:103e980051538800040037008038210001002000b9
:103ea80040538800515388000080fa000000060043
:103eb8000000fa006000b80090538800a153880001
:103ec800d042a900d0e2a900c862a900c882a9000e
:103ed800d0a2a900d0c2a800cc62a800cc82a800b9
:103ee800d4a2a90090000700b8fd0700c4f8070095
:103ef800fff6070044f70700b6f707003ef707008c
:103f08008ffb0700d4e2a800100020000100200069
:103f18007053880081538800d442a9000000eb0048
:103f280050488800619e2000c2c2b3000040eb00e8
:103f38006bfd0700f04f8000e10f400003003200e6
:103f4800f04f80000000e00006003a000a00070079
:103f5800c09f20008000780062c1b30060c1b30038
:103f68005ffd0700504f8000c04f88000afb070024
:103f7800bbf70700fdff37000000fa00f0ff27003d
:103f8800f04f8800f0ff270000508800f0ff27005e
:103f980010508800f0ff270020508800f0ff27000d
:103fa80030508800f0ff270040508800f0ff2700bd
:103fb80050508800f0ff270060508800f0ff27006d
:103fc80070508800f0ff270080508800f0ff27001d
:103fd80090508800f0ff2700a05088000080fa0069
:103fe800000006000c00fa0030079800410798000e
:103ff8003e009000ce009000e00f5000e08f580087
:1040080003003a000000eb00500798004300370017
:104018003e019000ce019000000020000104200025
:10402800800f5100818f59000b003e003e00900028
:10403800ce0090004609dd004a00de000000710055
:10404800ca08de00f203200003002000021f40001f
:10405800039748001c0037003e019000ce019000f5
:104068000000200001802000800f5100818f59003e
:104078000b003e003e009000ce009000c409dd0019
:104088004c00de0000807100cc08de00f20f20003a
:1040980003002000021f4000039748000a00370071
:1040a8003e009000ce009000c209dd004e00de0008
:1040b80000807100ce08de00f23f200003002000df
:1040c800021f4000039748000000eb0020079800fb
:1040d8000d0037001e01be003e009000ce0090008b
:1040e8001ef207003e014000ae8148000200be00fb
:1040f8008100d1000080d300008fbe002e00900008
:104108000000e800200798002e009000e40f5000ff
:10411800f0ff36009e017800530798005e0090007b
:104128000080fa00000006000000fa00900220005b
:10413800303a880044c7bf00f043b20044e7b700f4
:10414800417420009140780000ceb30000c06000a8
:1041580044e7b7001200200081072000a0092000d2
:1041680033742000814978008049780082497800ba
:104178001200200061042000700520002374200034
:1041880081497800804978008249780043c7bf0098
:104198000047b200f04f5000fcff3a0042c7bf0092
:1041a8000042b2000004e000fcff320050c7a80043
:1041b80051a7a80051c7bf007040b30051e7b7002e
:1041c80051e7a80051c7bf000044b2000004e00056
:0c41d800fcff32000080fa00000006002e
:00000001FF
