:020000040000fa
:080000000002040000000000f2
:020000040000fa
:10040000efaa20000eff20000e018800000000006f
:100410000c000700c0e421000100200011000700cb
:10042000000020000000e000020032000000020096
:10043000000000008a200200000000000040da00f6
:100440000000fe004440a900000220000000e0007f
:100450000300320000002000a00188004440a800f2
:100460000000060091018800800078000000eb0089
:1004700015003700e280400032a0b4009101ba00bc
:10048000e280400032a0b4009102ba00e280400055
:1004900032a0b4000002eb00472bde00f507b200eb
:1004a000602ce10004003a000059eb008301e900f0
:1004b000fdff3e00040037006128e100010032002a
:1004c0000082eb00040007001101ba000200e00006
:1004d000e8ff3a00000006003159ba008301e90044
:1004e0000c0032002159ba008301e90008003200f3
:1004f0000400e00003003a00e280400032a0b400b3
:10050000f5ff370011d9ba008301e900faff3a007c
:100510008100e800e180400032a0b4000000060045
:1005200000000000000000000000000000000000cb
:100530000040da000000fe00881f78000004780008
:100540005001be004000be0004004000858048000d
:100550000601490087814900009cbe000294be004c
:100560000400e1000588e1000690e1000798e10041
:1005700002003100680044001008e8004f047800d1
:1005800000000600f4874700889fbe008a9fbe00d7
:100590008c9fbe008e1f78000205be000004be00c6
:1005a000d4b79f00e5b79f00f6b79f0087bf9f00b5
:1005b0000000eb00c0b79f00b0b79f00a0b79f003e
:1005c00090b79f0080b79f000d042000bfb0970038
:1005d0004fb09700000140000000e0000f003d0018
:1005e0004f08de0000007100c0b79f009e000700aa
:1005f00001003d0012002000a100070001003d00a5
:1006000012002000a6000700b1000700b600070096
:100610000f004000c8ff0700220037004f08de002f
:1006200000067100ccb79f008f00070001003d005d
:10063000120020009200070001003d00120020007f
:1006400097000700a20007000fb297009fb2970023
:100650002fb39700bfb39700a90007000000520016
:1006600081805a0002015b0083815b0080b79f009c
:1006700091b79f00a2b79f00b3b79f000007eb00a0
:100680009f0007000020e10001a8e10002b0e100a6
:1006900003b8e100010031001e0020000e005600ea
:1006a000c0b79f004fb297000400e000070035007c
:1006b00010002000010020006011b8000804700044
:1006c000898470000a0571008b8571008d06e90030
:1006d000beff3a000400e00003003d008200070076
:1006e0000f00400094ff07004fa897000000e000b3
:1006f00004003a000fb497009fb497002fb59700fd
:10070000bfb59700940007004f0778004f06be0062
:100710004f05be004f04be004f01b10000000600af
:10072000881f780018002000881f780095ff0700b8
:100730008f87e9004f04780000000600801feb005f
:1007400090ff07008f87e90000000600889fbe0029
:100750008a9fbe008c1f78006e00070007003d00d6
:1007600073000700e00f5b00e08f5b0007003d00b7
:10077000320007000006eb000400370034000700d9
:1007800002003d002a0007001c0020007200070044
:10079000e3ff07000203be000002be000c00e00001
:1007a00001003200220007000400be000601be0066
:1007b0004f0678004f05be004f04be000000060043
:1007c000889fbe008a9fbe008c1f780051000700e2
:1007d00005003d0056000700e00f5b00e08f5b0066
:1007e00006003d00040037001900070003003d002b
:1007f0006000b8006011b800100007005600070044
:10080000ceff07000203be000002be000c00e000a5
:1008100001003200060007000400be000601be0011
:100820004f0678004f05be004f04be0000000600d2
:100830006000b8006011b8000000370004025000ea
:10084000858258000603590087835900000006007e
:100850000006eb00e00f5200e08f5a00e00f5b0053
:10086000e08f5b00000006000180400090b79f0011
:100870000001eb008fb097000100e00000000600cf
:100880000200700090b79f000180400080b79f0079
:100890000001eb00ffa897000100e0000000060047
:1008a0000200700080b79f00018040006faa97008f
:1008b000cf20de0001007000f0af9f000402420074
:1008c000250007004f18de0000027200000006003d
:1008d000e4af9f000804440089844c000a054d00e1
:1008e0008b854d00000006003fb29700cfb2970005
:1008f0005fb39700efb3970000fe2f0000000600e3
:100900003fb09700cfb097005fb19700efb197006d
:10091000000006000205be000004be00e00f50000b
:10092000e08f5800e00f5900e08f590000000600ea
:100930006000b8006011b8000804500089845800b5
:100940000a0559008b8559001c002000e00f520059
:10095000e08f5a00000006000800be000a01be0039
:10096000000006006022b800060220000000d0004f
:100970008180d2000482d2008582d2000000a000d3
:100980000202520083825a00030031000202420038
:1009900083824a000000a1000603e900f3ff3a0049
:0409a000000006004d
:020000040000fa
:0200000401f009
:04000c00f8ff0000f9
:020000040000fa
:0200000401f009
:040010005bff000092
:020000040000fa
:0200000401f009
:040014007fff00006a
:020000040000fa
:0200000401f009
:04001800ffff0000e6
:020000040000fa
:0200000401f009
:04001c00dfff000002
:020000040000fa
:100008009802000098020000980200009802000080
:100018009802000098020000980200009802000070
:100028009802000098020000980200009802000060
:10003800980200009802000098020000e21a0000ee
:100048009802000098020000980200006011000069
:10005800ce110000100f0000980200009802000066
:100068009802000098020000980200009802000020
:100078009802000098020000980200009802000010
:100088009802000098020000980200009802000000
:1000980098020000980200009802000098020000f0
:1000a80098020000980200009802000098020000e0
:1000b80098020000980200009802000098020000d0
:1000c80098020000980200009802000098020000c0
:1000d80098020000980200009802000098020000b0
:1000e80098020000980200009802000098020000a0
:1000f8009802000098020000980200009802000090
:10010800980200009802000098020000980200007f
:10011800980200009802000098020000980200006f
:10012800980200009802000098020000980200005f
:10013800980200009802000098020000980200004f
:10014800980200009802000098020000980200003f
:10015800980200009802000098020000980200002f
:10016800980200009802000098020000980200001f
:10017800980200009802000098020000980200000f
:1001880098020000980200009802000098020000ff
:1001980098020000980200009802000098020000ef
:1001a80098020000980200009802000098020000df
:1001b80098020000980200009802000098020000cf
:1001c80098020000980200009802000098020000bf
:1001d80098020000980200009802000098020000af
:1001e800980200009802000098020000fa0e000031
:0801f8009802000098020000cb
:020000040000fa
:10020800980200009802000098020000980200007e
:10021800980200009802000098020000980200006e
:10022800980200009802000098020000980200005e
:10023800980200009802000098020000e21a0000ec
:100248009802000098020000980200006011000067
:10025800ce110000100f0000980200009802000064
:10026800980200009802000098020000980200001e
:10027800980200009802000098020000980200000e
:1002880098020000980200009802000098020000fe
:1002980098020000980200009802000098020000ee
:1002a80098020000980200009802000098020000de
:1002b80098020000980200009802000098020000ce
:1002c80098020000980200009802000098020000be
:1002d80098020000980200009802000098020000ae
:1002e800980200009802000098020000980200009e
:1002f800980200009802000098020000980200008e
:10030800980200009802000098020000980200007d
:10031800980200009802000098020000980200006d
:10032800980200009802000098020000980200005d
:10033800980200009802000098020000980200004d
:10034800980200009802000098020000980200003d
:10035800980200009802000098020000980200002d
:10036800980200009802000098020000980200001d
:10037800980200009802000098020000980200000d
:1003880098020000980200009802000098020000fd
:1003980098020000980200009802000098020000ed
:1003a80098020000980200009802000098020000dd
:1003b80098020000980200009802000098020000cd
:1003c80098020000980200009802000098020000bd
:1003d80098020000980200009802000098020000ad
:1003e800980200009802000098020000fa0e00002f
:0803f8009802000098020000c9
:020000040000fa
:1009a4000000000001cc000001d800000014000089
:1009b40001f00000003c00000028000001e40000f9
:1009c40001a00000006c00000078000001b40000e9
:1009d40000500000019c0000018800000044000059
:020000040000fa
:1009e4000400fa00000f78001e0078001007980039
:1009f4001e0090000000e00003003d001e00900077
:100a04000000ea00100798001e0090000080fa0021
:100a1400000006001800fa00889fbe008a9fbe00ee
:100a240000198000c500dd00704c800080805000fb
:100a340000012c0000804000e04b8800204c800026
:100a44000000e800204c880010198000c500dd007b
:100a5400d04880008080500000012c0000804000bd
:100a640070488800f04880000000e800f0488800e2
:100a7400004980000000e80000498800504c8000d4
:100a8400e30f500020003a00009920003004be001b
:100a94002005be00e14b8000e04b80000182b900dc
:100aa4004fabde00cfb3de000400be0006017800c9
:100ab4008601780008004000898048000a01490046
:100ac4008b81490004992000009abe000292be0066
:100ad400314c8000e04b8000808f500004003d00ca
:100ae400e04b8000304c8800204c8000404c880053
:100af400614c8000e04b8000808f50000200340085
:100b0400e04b8000604c880024c9bf00e34f5000d4
:100b140020003a00009320003004be002005be00ef
:100b240071488000704880000182b9004fabde003c
:100b3400cfb3de000400be00060178008601780011
:100b440008004000898048000a0149008b8149005f
:100b540004932000009abe000292be0091488000d7
:100b640070488000808f500004003d007048800071
:100b740090488800f0488000a0488800b148800070
:100b840070488000808f500002003400704880005c
:100b9400b0488800f148800080162000808f500003
:100ba4000b003400804880000000e00008003d0095
:100bb400704880000000e0000500350070488000a7
:100bc40081488000010050000000e00004003c0067
:100bd400f1488000803e2000808f50007a0034006d
:100be400204c8000104c88000000eb00204c880052
:100bf400504c8000e20f50000c003a000499200091
:100c04006000b8006011b800009abe000292be00f5
:100c14000000eb00604c8800604c8000304c880081
:100c240030002000504c880029003700304c8000f0
:100c3400614c800001004000ea0f50000f003400b6
:100c4400704c8000300f9800714c80000001eb0064
:100c5400220f9800703e2000808f500002003c005c
:100c640013002000230f9800be0890002e09900066
:100c740002804000704c880013003700304c800024
:100c8400614c800001004000ea0f40000e003d006e
:100c9400734c8000130f9800714c80000000eb002f
:100ca400000f980080c12f00808f50000200340094
:100cb40011002000010f98001e0990008e09900079
:100cc40003005100704c880010002000504c880034
:100cd400f0488000c04888000000eb00f04888001d
:100ce40024c9bf00e24f50000c003a0004932000d6
:100cf4006000b8006011b800009abe000292be0005
:100d04000000eb00b0488800b0488000904888009c
:100d140030c0b30024e9b7002900370090488000b0
:100d2400b148800001004000ea0f50000f00340079
:100d3400d048800070079800d14880000001eb0083
:100d440062079800703e2000808f500002003c0033
:100d54001300200063079800fe0090006e019000cd
:100d640002804000d048880013003700904880007b
:100d7400b148800001004000ea0f40000e003d0031
:100d8400d348800053079800d14880000000eb004e
:100d94004007980080c12f00808f5000020034006b
:100da40011002000410798005e019000ce019000e0
:100db40003005100d048880010c0b30024e9b700f4
:100dc400c0488000304f8800f148800000082000af
:100dd400808f50000d003400804880000000e00047
:100de4000a003400704880000000e00007003c0066
:100df4008048800071488000010050000000e0003d
:100e0400020034000000eb000049880070488000b4
:100e140080488800604880000000e00006003a0036
:100e240042c4bf00f043b20001c8b30001407000e7
:100e340042e4b7000700370061488000001020003a
:100e4400808f500003003a0042c4bf00f043b20058
:100e540042e4b700504880003007980061488000a1
:100e6400f0072000808f500007003c00604880009d
:100e740080004000008020000080400010007800c6
:100e8400200798002600370061488000f00f2000fa
:100e9400808f500009003c00614880000010200051
:100ea40001005000800040000080200000804000cd
:100eb4001000780010079800170037006148800080
:100ec400f0172000808f500009003c00614880002a
:100ed40000f02f00008040008000400000802000cf
:100ee4000080400010007800000f780008003700f0
:100ef4006148800000202000010050008000400074
:100f0400008020000080400010007800000f78006e
:100f14009e007800110798001e0190002207980097
:100f2400ae0190003e0190000298b900c109dd00b5
:100f34004f00de0000807100cf88de003022880080
:100f4400604880000000e800022020001100090031
:100f54000200d8008000fd00604888000603a90054
:100f64004f05be004f04be000080fa0000000600da
:100f74003200fa00889fbe008a9fbe0030198000ac
:100f8400c500dd00904b80008080500000012c00e3
:100f940000804000004b8800404b80000000e800c7
:100fa400404b880020198000c500dd00304a8000d5
:100fb4008080500000012c0000804000c04988005f
:100fc400104a80000000e800104a8800804a80002f
:100fd4000000e800804a8800704b8000e30f500056
:100fe40020003a00409720003004be002005be00d7
:100ff400014b8000004b80000182b9004fabde0042
:10100400cfb3de000400be0006017800860178003c
:1010140008004000898048000a0149008b8149008a
:1010240044972000009abe000292be00514b8000fb
:10103400004b8000808f500004003d00004b800076
:10104400504b8800404b8000604b8800814b8000ef
:10105400004b8000808f500002003400004b800061
:10106400804b880054c9bf00e34f500020003a0071
:10107400809520003004be002005be00c1498000d8
:10108400c04980000182b9004fabde00cfb3de005f
:101094000400be00060178008601780008004000c4
:1010a400898048000a0149008b8149008495200009
:1010b400009abe000292be00e1498000c04980004f
:1010c400808f500004003d00c0498000e049880042
:1010d400104a8000f0498800014a8000c04980001d
:1010e400808f500002003400c0498000004a88000c
:1010f400114a800000082000808f50000d00340049
:10110400d04980000000e0000a003400c04980009b
:101114000000e00007003c00d0498000c149800085
:10112400010050000000e000020034000000eb0069
:10113400804a8800114a800080162000808f500069
:101144000b003400d04980000000e00008003d009e
:10115400c04980000000e00005003500c04980005f
:10116400d1498000010050000000e00004003c0070
:10117400114a8000803e2000808f5000010234001c
:10118400404b8000304b88000000eb00404b88004f
:10119400704b8000e20f50000c003a00449720008e
:1011a4006000b8006011b800009abe000292be0050
:1011b4000000eb00804b8800804b8000504b88007f
:1011c40030002000704b880029003700504b80000d
:1011d400814b800001004000ea0f50000f003400f2
:1011e400904b8000001f9800914b80000001eb00a1
:1011f40072179800703e2000808f500002003c005f
:1012040010002000701798008e1890007e11900036
:1012140002804000904b880013003700504b800040
:10122400814b800001004000ea0f40000e003d00a9
:10123400904b800060179800914b80000001eb00f8
:101244005217980080c12f00808f50000200340094
:101254001000200050179800ee1090005e119000ce
:1012640002805000904b880010002000704b8800d2
:10127400104a8000204a88000000eb00104a8800d1
:1012840054c9bf00e24f50000c003a00849520007e
:101294006000b8006011b800009abe000292be005f
:1012a4000000eb00004a8800004a8000e049880002
:1012b40030c0b30054e9b7002d003700114a800054
:1012c400703e2000808f500029003c00e0498000df
:1012d400014a800001004000ea0f50000f00340072
:1012e400304a800040179800314a80000001eb002a
:1012f40032179800703e2000808f500002003c009e
:101304001000200030179800ce1090003e1190007d
:1013140002804000304a880013003700e049800012
:10132400014a800001004000ea0f40000e003d0029
:10133400304a800020179800314a80000001eb00f9
:101344001217980080c12f00808f500002003400d3
:101354001000200010179800ae1090001e1190008d
:1013640002805000304a880010c0b30054e9b7002e
:1013740056c9bf000000fb00001798000e10900033
:10138400e10f5000040032008e109000e48f5000f2
:10139400530032007b013700214a8000f01f2000f7
:1013a400808f5000170034001248800023488000ca
:1013b400f0e1240001002000800f5100818f5900ca
:1013c40007003c0010488000214880006100400074
:1013d400e0804800600f9800710f98000400370007
:1013e40000e2240001002000600f9800710f9800b3
:1013f4006e089000fe08900010488800214888007c
:1014040025003700214a8000e01f2000808f500013
:1014140017003c00124880002348800080262400e6
:1014240001002000800f5100818f59000700340013
:10143400104880002148800061005000e08058007e
:10144400400f9800510f98000400370080262400b4
:1014540001002000400f9800510f98004e089000a2
:10146400de08900010488800214888000a003700f0
:1014740055c9bf000040e80055e9b70055c9bf0091
:10148400f44f50000400360040c0b30056e9b700e2
:101494000040eb0055e9b700124880002348800063
:1014a400c045240001002000800f5100818f5900a5
:1014b400340134001248800023488000f0e1240005
:1014c40001002000800f5100818f59002d013c0044
:1014d40010488000214880004023880029013700fb
:1014e400214a8000f01f2000808f50002800340023
:1014f4001248800023488000f0e12400010020000d
:10150400800f5100818f590007003c001048800073
:101514002148800061004000e0804800200f9800ce
:10152400310f98000400370000e22400010020007d
:10153400200f9800310f98002e089000be089000ec
:101544001048880021488800124880002348800001
:10155400c045240001002000800f5100818f5900f4
:10156400360034001248800023488000f0e1240053
:1015740001002000800f5100818f59002f003c0092
:101584001048800021488000402388002b00370049
:10159400214a8000e01f2000808f500027003c007b
:1015a4001248800023488000802624000100200087
:1015b400800f5100818f59000700340010488000cb
:1015c4002148800061005000e0805800000f98001e
:1015d400110f980004003700802624000100200029
:1015e400000f9800110f98000e0890009e089000bc
:1015f4001048880021488800124880002348800051
:10160400c045240001002000800f5100818f590043
:101614000a0034001248800023488000f0e12400ce
:1016240001002000800f5100818f590003003c000d
:101634001048800021488000402388001048800022
:101644002148800000017800304880004148800033
:1016540000005100e2fc0700800078001003200025
:10166400808f50007e003c0001498000804a800049
:1016740000805000d0548800d0548000d8fc07006b
:101684000000e0004b003400d1548000000820002a
:10169400808f50000200340000082000d0548800dd
:1016a400d154800000f82f00808f500002003d00cc
:1016b40000f82f00d0548800d1548000804e800060
:1016c400008050006101b90030488000414880002a
:1016d4000200400083804800304888004148880068
:1016e400d0548000e20f50001700340032488000cc
:1016f40043488000f0e1240001002000800f5100e5
:10170400818f590007003c00304880004148800028
:1017140061004000e080480060079800710798006d
:101724000400370000e22400010020006007980054
:10173400710798006e009000fe0090003048880009
:101744004148880019003700d0548000e20f40005f
:1017540016003d0032488000434880008026240063
:1017640001002000800f5100818f590007003400d0
:10177400304880004148800061005000e0805800fb
:101784004007980051079800040037008026240081
:101794000100200040079800510798004e00900077
:1017a400de0090003048880041488800d054800012
:1017b400804e88002ec9bf000004e00014003a00e7
:1017c400d054800086fc0700e10f50000d003c005f
:1017d40026c9bf000040e80026e9b70026c9bf00bb
:1017e400fe4f50000400360010c0b3002ee9b700cd
:1017f4000040eb0026e9b7000000eb0060498800d8
:101804004f0037000040eb0026e9b7004c003700da
:10181400d054800072fc0700ef0f50000d0034001c
:1018240026c9bf000040e80026e9b7006192200005
:101834009140780080ccb30080cf50004000360047
:101844000040eb002ee9b7000040eb0026e9b700aa
:101854003b0037000040eb0026e9b70038003700b2
:1018640032488000434880001048800021488000ae
:10187400800f5100818f590017003d0032488000cd
:1018840043488000f0e1240001002000800f510053
:10189400818f590007003c00304880004148800097
:1018a40061004000e080480020079800310798005c
:1018b4000400370000e22400010020002007980003
:1018c400310798002e009000be0090003048880038
:1018d400414888001a00370032488000434880009d
:1018e4001048800021488000800f5100818f5900ea
:1018f40013003400324880004348800080262400ce
:1019040001002000800f5100818f5900060034002f
:10191400304880004148800061005000e080580059
:10192400008fbe0003003700802624000100200041
:10193400008fbe001e00be00304888004148880069
:101944003248800043488000c04524000100200044
:10195400800f5100818f59000a0034003248800002
:1019640043488000f0e1240001002000800f510072
:10197400818f590003003c003048800041488000ba
:1019840040228800114a800000042000808f50000b
:1019940004003400114a8000f00b2000808f5000b6
:1019a40008003400114a800000142000808f500089
:1019b40034003400114a8000f01b2000808f500056
:1019c40030003c0056c9bf00e44f500017003a00f5
:1019d400c049800002fc070080007800301f20000e
:1019e400808f500011003c00604a80000000e80035
:1019f400604a88000000eb00504a8800614a800079
:101a040000022000808f5000080034000040eb00ea
:101a140056e9b7000040eb002ee9b7000000eb00e8
:101a2400604a88000000eb00304a880056c9bf00b5
:101a34000004e00013003a00c0498000e8fb0700fe
:101a440080007800401f2000808f50000d0034007b
:101a5400504a80000000e800504a88000000eb0073
:101a6400604a8800514a800000022000808f5000a4
:101a74000400340010c0b30056e9b7000000eb00c6
:101a8400504a880056c9bf000000fb00a04e8800e1
:101a9400204a8000204f880050488000004f880072
:101aa4002ec9bf000000fb00f04e8800d054800017
:101ab400404f8800c0498000d04988000623a9000f
:101ac4004f05be004f04be000080fa00000006006f
:101ad4000000fa00a0198000e04e8800b0198000d0
:101ae400d04e880006a3a9000080fa00000006007a
:101af4000000fa0001e3a90001a3a9000183a800e2
:101b04000103a90000e3a80000c3a90000a3a900e1
:101b14000083a800013020009140780080cfb300fa
:101b240000c060005040b30000e3b7000000eb00c9
:101b340030188800a10a200091407800f0c8b30052
:101b440000c060000044a000aae0b70085a0a9007e
:101b540095a0a8000203a9000223a900a130200037
:101b64009140780000ceb30000c060005040b30044
:101b74000ae3b7000ae3a8000243a9000263a9002c
:101b8400b13020009140780000ceb30000c0600066
:101b94006040b3000be3b7000be3a8000343a900c4
:101ba4000363a900f13020009140780000ceb30017
:101bb40000c060000004a0000fe3b700d10d2000b6
:101bc4009140780000c7b30000c07000dde0b700aa
:101bd4009260a900a260a800c0502000e0548800d0
:101be400a07b200000558800c0a920004018880070
:101bf4000080fa00000006000000fa0001e3a800db
:101c04000080fa00000006000000fa002124a80069
:101c140020c4bf00f043b20020e4b7002044a80071
:101c240023e4a80023c4a800314220009140780096
:101c340030cfb30000c0600023e4b70022c4bf006b
:101c4400f043b20022e4b7002324a8002304a80030
:101c54000000eb006021880000c3250040218800bb
:101c640080e122003021880080e122009021880058
:101c740000102000b021880034e4a80035c4bf005f
:101c84006f4060000044a00035e4b70041432000e9
:101c94009140780000ccb30000c0600034e4b70089
:101ca40030002000202188004124a80040c4bf0047
:101cb400f043b20040e4b7004044a80043e4a80065
:101cc40043c4a80043a4a8004384a80031442000ce
:101cd4009140780030cfb30000c0600043e4b70007
:101ce40042c4bf00f043b20042e4b7004204a8007b
:101cf4004324a8004304a8000000eb0060228800ed
:101d0400007e240040228800003f22003022880008
:101d1400800020009022880000102000b02288005b
:101d240054e4a90055c4bf006f4060000044a00003
:101d340055e4b700414520009140780000ccb30041
:101d440000c0600054e4b700300020002022880066
:101d54006124a80060c4bf00f043b20060e4b7008f
:101d64006044a80063e4a90063c4a90063a4a800b4
:101d74006384a8000000eb0060238800007e240038
:101d840040238800003f2200302388008000200088
:101d940090238800801f2100b023880074e4a900e8
:101da40075c4bf006f4060000044a00075e4b70034
:101db400414720009140780000ccb30000c060008f
:101dc40074e4b70030002000202388000080fa006b
:101dd400000006000000fa0001e4a8002324a90082
:101de4002304a9004304a9000080fa0000000600af
:101df400801f78000000fa00a0198000e04e8800df
:101e0400b0198000d04e880006a3a9009260a900f2
:101e14000080fa004f007800004006003600f80009
:101e2400809fbe00829fbe00849fbe00869fbe002e
:101e34000000fa0085a0a900401880001000780076
:101e4400000001000080fa004f03be004f02be00f4
:101e54004f01be004f00be003600f90000400600ee
:101e64000000fa00504c8000e10f500031003a00ad
:101e7400009920005001be004000be00144c8000b8
:101e8400cfa2de00050378008603780023fa07005a
:101e940004992000009abe000292be00009920001e
:101ea4005001be004000be00fe0807001055880027
:101eb400014c8000606626000088b9004109dd00fd
:101ec4004f00de0000007100cf88de0000017800c2
:101ed40011558000909921000088b900c109dd00e6
:101ee4004f00de0000807100cf88de00000041005a
:101ef400004c8800049920006000b8006011b8000c
:101f0400009abe000292be00804f800080007800dc
:101f1400004c80000180b9004109dd004f00de0063
:101f240000007100cf88de00c04e88002000200031
:101f3400504c880024c9bf00e14f500031003a00e2
:101f4400009320005001be004000be00c448800041
:101f5400cfa2de000503780086037800eff90700be
:101f640004932000009abe000292be000093200059
:101f74005001be004000be00ca080700105588008a
:101f8400e1488000606626000088b900c109dd00d0
:101f94004f00de0000807100cf88de000001780071
:101fa40011558000909921000088b900c109dd0015
:101fb4004f00de0000807100cf88de000000410089
:101fc400e0488800049320006000b8006011b80065
:101fd400009abe000292be00704f8000800078001c
:101fe400e04880000180b9004109dd004f00de00b7
:101ff40000007100cf88de00b04e880020c0b3001e
:1020040024e9b700704b8000e10f500028003a002b
:10201400409720005001be004000be00344b8000b9
:10202400cfa2de000503780086037800bbf9070021
:1020340044972000009abe000292be004097200000
:102044005001be004000be009608070010558800ed
:10205400214b8000606626000088b900c109dd00bc
:102064004f00de0000807100cf88de0000017800a0
:1020740011558000909921000088b900c109dd0044
:102084004f00de0000807100cf88de0000004100b8
:10209400204b8800449720006000b8006011b8000d
:1020a400009abe000292be0020002000704b8800ff
:1020b40054c9bf00e14f500031003a008095200020
:1020c4005001be004000be00244a8000cfa2de00c2
:1020d400050378008603780090f9070084952000b2
:1020e400009abe000292be00809520005001be00fe
:1020f4004000be006b08070010558800414a80006c
:10210400606626000088b9004109dd004f00de004a
:1021140000007100cf88de000001780011558000b6
:10212400909921000088b900c109dd004f00de004c
:1021340000807100cf88de0000004100404a880022
:10214400849520006000b8006011b800009abe00b9
:102154000292be00504f800080007800404a800008
:102164000180b9004109dd004f00de00000071006c
:10217400cf88de00904e880020c0b30054e9b70039
:102184000080fa00000006000600fa00000f780044
:102194001107980022079800080037001e007800f5
:1021a400904078001e009000014878001e009000c6
:1021b4000000e800100798001e0fe8002e009000b1
:1021c4000000e900200798002e009000e10f400075
:1021d400f2ff3a000080fa00000006000000fa0056
:1021e40021e2a800012220009140780090cfb300a2
:1021f40000c060000024a00020e2b7002002a90073
:102204000000eb001011880020102000401188000d
:102214009560a8009580a80022c2bf00f043b200d8
:1022240022e2b70023e2a90023a2a800016e200045
:102234009140780000ccb30000c060003040b3008f
:10224400e0e6b700416a20009140780000ccb3007a
:1022540000c06000d041b300a4e6b7000040eb002a
:10226400a4eab7000040eb00a5eab7000080fa003a
:10227400000006000000fa0041558000401f2000c5
:10228400808f50000500360010c0b3005eeab7002e
:102294000000eb00405588000600370040558000e0
:1022a4000000e00003003200405580000000e80018
:1022b400405588000080fa0000000600809fbe00a0
:1022c400829fbe000200fa008560a9001000200071
:1022d400405588002800370030118000000f780036
:1022e400a4cabf000004e0001000320041aa20008c
:1022f40091407800f0c3b30080cf50000b003e0043
:1023040042aa2000124178008281fb001e0078005e
:1023140080407800a0a1200000804100014878009e
:102324000240e800a4eab700130037001050800010
:102334009e0f500003003200200020009e0f10006a
:102344000b003a0042aa2000124178008281fb006f
:102354001e00780080407800a0a120000080410089
:10236400014878000240e800a4eab7000200370000
:102374000040eb00a4eab70022c2bf006140600045
:102384000004e000d4ff3a000080fa004f01be00d0
:102394004f00be0000400600809fbe00821f7800f0
:1023a4000000fa008580a90061aa2000914078000d
:1023b400a5cabf0080cf50000500310061aa2000eb
:1023c40091407800f0c3b30080cf50000e00360077
:1023d4000040eb00a5eab7002342a900d4c2bf0025
:1023e4000080fb004700de0000c0ea00614060009e
:1023f400c700dd00d4c2bf000074a100014070001a
:10240400d4e2b7000a00370062aa20001241780023
:102414008280fb00a0a120000080400010407800d2
:102424000080fb00201188000240e800a6eab70003
:102434000080fa004f0178004f00be000040060003
:102444000000fa00a5cabf000004e0000d0032003d
:102454002342a8000040eb00a6eab70062aa2000cd
:10246400124178008280fb00a0a12000008040007f
:10247400104078000080fb00201188000240e80032
:10248400a6eab7000080fa00000006000800fa007f
:1024940020079800614798000080eb00100798001f
:1024a4000040eb0010479800220037002e009000f7
:1024b400104f78002e0090000000e80020079800dc
:1024c4009e80fb001e009000008068006f0060008a
:1024d40080004000204d28000080400090007800db
:1024e4001e0090004400de00008068001007980081
:1024f4001e80fb004400de008080fb001e00900074
:10250400008068006f00600080004000204d2800bb
:1025140000804000900078001e0090004400de001f
:1025240000806800100798001e4090000040e800fa
:10253400104798009e4090006e40900080cf50005d
:10254400daff39001e0090000080fa000000060047
:102554000200fa00000f78001e007800c800de00b8
:102564004800dd00010070000080fa000000060051
:102574000400fa0020479800314798002e4090004c
:102584000080fb00000f78001e007800c800dd000a
:102594003e4090000080fb00008070000080fa0044
:1025a400000006000600fa00000f780011079800ea
:1025b400700020009e0f100015003c001e009000cb
:1025c4001e004000e80f500011003c0010c0b30092
:1025d4001ceab70060a72000104078008080fb0050
:1025e4001e0078000008dd00004178001e00900005
:1025f400e8001000f00f20000100dd000040610041
:102604001deab700400020002007980002003700b0
:102614000000eb00200798002e0090000080fa00d4
:10262400000006000600fa00000f78001107980069
:10263400700020009e0f10001a003c001e00900045
:102644000000e0000a00320063a7200060a7200019
:102654001040780000417800110020001e0078002e
:102664000008dd0000407100804978000a0037004e
:1026740063a7200060a72000104078000041780084
:10268400110020001e0078000008dd0000c0ea00f0
:102694000040610080497800600020002007980015
:1026a400020037000000eb00200798002e00900085
:1026b4000080fa00000006000800fa0010079800e5
:1026c400210798002e009000000040001ceab7008b
:1026d4001e009000ed0f50002f003c001e009000e3
:1026e400ae00900001004000ee0f50002a003c00b4
:1026f4000040eb00004f78001f0037001e80fb00f5
:10270400630140001e80fb000000d1008080fb00bc
:102714001e0090000080400080004000209d2000aa
:102724000080400090409000a0a1200000004100e3
:10273400014878001e80fb00640140001e80fb00fd
:102744000000d1008080fb001e009000008040004b
:1027540080004000209d20000080400090407800d0
:10276400a0a1200000004100014878001e4078002c
:1027740000c0e800004f78001ccabf009e4f500004
:10278400deff3e001ccabf00634040000080fb0027
:10279400300798004a0037009e009000f0ff2300a5
:1027a400808f5000440034009e0090002e00900062
:1027b4008080400000022400808f50003e003c00d6
:1027c4009e00900000002c0000804000100798003c
:1027d4001e00900032022000110009000200d800ff
:1027e4008000fd0010079800a19e20001e009000ac
:1027f40000004000c2c2b300210307000004e0004f
:1028040003003a000000eb00300798002c0037006a
:102814000040eb00004f78001f0037001e80fb00d3
:10282400630140001e80fb000000d1008080fb009b
:102834001e0090000080400080004000a09e200008
:102844000080400090409000a0a1200000004100c2
:10285400014878001e80fb00640140001e80fb00dc
:102864000000d1008080fb001e009000008040002a
:1028740080004000a09e200000804000904078002e
:10288400a0a1200000004100014878001e4078000b
:1028940000c0e800004f78001ccabf009e4f5000e3
:1028a400deff3e001ccabf00634040000080fb0006
:1028b40030079800020037000000eb003007980052
:1028c4003e0090000080fa00000006000c00fa00b0
:1028d4003007980041079800be009000f0ff2300e5
:1028e400808f500049003400be00900000002c008e
:1028f40000804000300798003e009000eb0f50002d
:102904002d003c004e009000cf80de0010079800a0
:10291400210798003e00900080004000209d200088
:1029240000804000100078000000e0002b0032001e
:102934003e00900080004000209d20000080400068
:10294400100178001e009000ae009000cf09dd0059
:10295400c100de00818071004f00dd00811f78001e
:10296400110009004288d800cf007800000f7800d9
:10297400be0190003e00900080004000a09e200018
:1029840000804000100078001e0178000010b8009c
:102994004109dd004f00de0000007100cf08de00b9
:1029a4000001780083804100a09e20000080400048
:1029b40002087800090037003e009000f70f50002d
:1029c40006003c003e0090004e0190008000400054
:1029d400a09e200000804000020878003e00900085
:1029e40080004000a09e200000804000800078000d
:1029f4003e0090000000400022c0b3004a020700dd
:102a04006300200053079800020037000000eb0029
:102a1400500798005e0090000080fa000000060055
:102a24000800fa0010079800210798009e00900003
:102a3400f0ff2300808f50003a0034009e00900085
:102a44002e00900080804000f0012400808f500010
:102a540034003c009e00900000002c0000804000e8
:102a6400100798000040eb00004f78001f0037006b
:102a74001e80fb000000d1008080fb001e0090003f
:102a8400008140001e80fb00e7004000a0a1200060
:102a9400008040009041780082004100a09e200008
:102aa40000804000134098001e80fb000000d1000d
:102ab4008080fb001e009000008140001e80fb000f
:102ac400e8004000a0a12000008040009041780070
:102ad40082004100a09e200000804000034878004e
:102ae4001e40780000c0e800004f780020cabf00f4
:102af4009e4f5000deff3e0002a2200012417800eb
:102b0400a19e20001e009000000040000602070065
:102b14000004e00003003200600020003007980049
:102b2400020037000000eb00300798003e009000e0
:102b34000080fa00000006000800fa005ecabf0028
:102b4400e14f500064003a000040eb005eeab70039
:102b540041aa200091407800a0a120004bfe07006c
:102b64000000e0003f003a001ccabf003047980054
:102b74001dcabf00204798001ecabf0050479800d6
:102b84001fcabf00404798001bcabf000080fb005b
:102b9400300798003e009000e40f500007003c000e
:102ba4003e009000e30f500017003d003e009000ef
:102bb400e10f50002b0035000d0037003e0090005f
:102bc400e60f50001c0032003e009000e60f50005b
:102bd400130035003e009000ef0f5000210032003a
:102be4003e009000f00f5000190032001d00370025
:102bf4002e009000800078001e00900069fe0700ff
:102c0400a5eab700170037002e0090008000780076
:102c14001e009000a8fe0700a5eab70011003700c7
:102c24002e009000800078001e0090007dfe0700ba
:102c3400a5eab7000b0037002e0090008000780052
:102c44001e00900021ff0700a5eab7000500370029
:102c54002e009000800078001e00900070ff070096
:102c6400a5eab700a5cabf000004e00017003200bf
:102c740051aa200091407800a0a1200003fe070083
:102c8400000f780053aa2000934178008380fb0052
:102c94001e417800a0a12000008040000248780076
:102ca4000340e800a5eab70053aa20009341780046
:102cb4008380fb001e419000a0a120000080400002
:102cc400024878000340e800a5eab7000040eb00a2
:102cd400a4eab700dafd07000080fa00000006004d
:102ce4000400fa00c9e2a900cbe2a900c8a2a80026
:102cf400cea2a8000080fa00000006000800fa0036
:102d0400c8a2a800caa2a8000000eb0030079800df
:102d140004003700000000003e0090000000e800be
:102d240030079800be00900010032000808f5000f0
:102d3400f8ff3400c9e2a900cbe2a8000000eb00d0
:102d44002007980004003700000000002e009000c7
:102d54000000e80020079800ae0090001003200057
:102d6400808f5000f8ff3400c8a2a900caa2a900ad
:102d74000000eb001007980004003700000000007a
:102d84001e0090000000e800100798009e009000cc
:102d940010032000808f5000f8ff3400c9e2a9001e
:102da400cbe2a9000000eb00000f7800020037001e
:102db400000000001e0fe800100320009e0f10000a
:102dc400fbff34000080fa00000006000800fa004f
:102dd400c8a2a900caa2a9000000eb00300798000d
:102de40004003700000000003e0090000000e800ee
:102df40030079800be00900010032000808f500020
:102e0400f8ff3400c9e2a900cbe2a8000000eb00ff
:102e14002007980004003700000000002e009000f6
:102e24000000e80020079800ae0090001003200086
:102e3400808f5000f8ff3400c8a2a800caa2a800de
:102e44000000eb00100798000400370000000000a9
:102e54001e0090000000e800100798009e009000fb
:102e640010032000808f5000f8ff3400c8a2a8008f
:102e7400cea2a8000080fa00000006000c00fa00b0
:102e84000040eb00204f9800c9e2a900cbe2a90062
:102e9400c8a2a800cea2a800c9e2a900cbe2a8005b
:102ea4000000eb0020079800040037000000000039
:102eb4002e0090000000e80020079800ae0090006b
:102ec40010032000808f5000f8ff3400cac2bf00f6
:102ed4000080fb004500de0061406000204f980048
:102ee400c9e2a900cbe2a9000000eb00100798009a
:102ef40004003700000000001e0090000000e800fd
:102f0400100798009e00900010032000808f50004e
:102f1400f8ff3400c8a2a800caa2a8002e48900056
:102f24000000fb000080fa00000006000600fa0022
:102f3400c8a2a900caa2a9000000eb0020079800bb
:102f440004003700000000002e0090000000e8009c
:102f540020079800ae00900010032000808f5000de
:102f6400f8ff3400c9e2a900cbe2a8000000eb009e
:102f74001007980004003700000000001e009000b5
:102f84000000e800100798009e0090001003200045
:102f9400808f5000f8ff3400c9e2a900cbe2a900f9
:102fa4000000eb00000f7800020037000000000072
:102fb4001e0fe800100320009e0f1000fbff3400da
:102fc4000080fa00000006000600fa00c8a2a8006b
:102fd400caa2a8000000eb002007980004003700f4
:102fe400000000002e0090000000e8002007980078
:102ff400ae00900010032000808f5000f8ff3400d2
:10300400c9e2a900cbe2a8000000eb001007980079
:1030140004003700000000001e0090000000e800db
:10302400100798009e00900010032000808f50002d
:10303400f8ff3400c9e2a900cbe2a9000000eb00cc
:10304400000f780002003700000000001e0fe800a7
:10305400100320009e0f1000fbff34000080fa00d4
:10306400000006000e00fa00404f9800c9e2a900d3
:10307400cbe2a9000000eb004007980004003700f1
:10308400000000004e0090000000e8004007980097
:10309400ce00900010032000808f5000f8ff340011
:1030a4000040eb00204f98003e0037004e4890004f
:1030b4008080fb002e4890000080fb000008dd00ab
:1030c4004700de00610060000004e0000e003200f2
:1030d400c8a2a800caa2a8000000eb00300798000c
:1030e40004003700000000003e0090000000e800eb
:1030f40030079800be00900010032000808f50001d
:10310400f8ff34000d003700c8a2a900caa2a90024
:103114000000eb00200798000400370000000000c6
:103124002e0090000000e80020079800ae009000f8
:1031340010032000808f5000f8ff3400c9e2a9007a
:10314400cbe2a8000000eb00100798000400370051
:10315400000000001e0090000000e8001007980026
:103164009e00900010032000808f5000f8ff340070
:10317400c9e2a900cbe2a9000000eb00000f78002f
:1031840002003700000000001e0fe80010032000ba
:103194009e0f1000fbff34002e4890000040e80012
:1031a400204f98002e489000e74f5000bfff360094
:1031b4000080fa00000006000a00fa000040eb005c
:1031c400004f9800c8a2a800cea2a800c9e2a90096
:1031d400cbe2a9000000eb002007980004003700b0
:1031e400000000002e0090000000e8002007980076
:1031f400ae00900010032000808f5000f8ff3400d0
:103204000040eb00104f980024003700c9e2a900e9
:10321400cbe2a8000000eb00100798000400370080
:10322400000000001e0090000000e8001007980055
:103234009e00900010032000808f5000f8ff34009f
:103244000e48900000404000004f9800cac2bf00e2
:103254000042b2000004e000030032000e48900077
:103264000040e800004f9800c9e2a900cbe2a900a1
:103274000000eb00000f780002003700000000009f
:103284001e0fe800100320009e0f1000fbff340007
:103294001e4890000040e800104f98001e4890001f
:1032a400e74f5000d9ff36000e4890000080fb0025
:1032b4000080fa00000006000400fa00004f7800c5
:1032c400114798008dfe070000cab30065ff070090
:1032d400eafe07000004e000030032000000eb00f7
:1032e400100798000d0037001e4078005dff0700ae
:1032f400e2fe07000004e000030032000000eb00df
:1033040010079800050037001e40900055ff070085
:10331400aefe070010002000100798001e00900069
:103324000080fa00000006000a00fa002047980016
:10333400210798006247980070fe070000cab30096
:1033440048ff0700cdfe07000004e0000300320040
:103354000000eb00400798001e0037002e4090004c
:1033640040ff0700c5fe07000004e0000300320030
:103374000000eb0040079800160037000040eb0007
:10338400004f78000d0037002e00900010407800a8
:1033940034ff0700b9fe07000004e0000300320018
:1033a4000000eb00400798000a0037002e00900050
:1033b4000000e800200798001e4fe8006e409000cf
:1033c4009e4f1000f0ff390080fe0700100020001f
:1033d400400798004e0090000080fa0000000600ac
:1033e4000600fa00004f78001107980043fe07001a
:1033f40000cab3001bff0700a0fe07000004e000a2
:10340400030032000000eb00200798001900370089
:103414001e40780013ff070098fe07000004e00038
:10342400030032000000eb00200798001100370071
:1034340032fe070010cab3000aff07008ffe070020
:103444000004e000030032000000eb0020079800b5
:103454000800370058ff0700804078001e009000e5
:1034640001487800d8fe070058fe0700100020002d
:10347400200798002e0090000080fa00000006004b
:103484000a00fa0020479800210798006247980034
:103494001afe070000cab300f2fe070077fe070019
:1034a4000004e000030032000000eb004007980035
:1034b4002b0037002e409000eafe07006ffe070045
:1034c4000004e000030032000000eb004007980015
:1034d4002300370009fe070010cab300e1fe07000d
:1034e40066fe07000004e000030032000000eb0069
:1034f400400798001a0037000040eb00004f7800a6
:10350400090037002cff0700804078002e0090004f
:103514000148780085fe07002e0090000000e800b6
:10352400200798001e4fe8009e80fb006e4090002c
:103534000080fb000000e900808f5000f1ff35009f
:103544001dff0700804078002e009000014878009d
:103554009dfe07001dfe0700100020004007980094
:103564004e0090000080fa00000006000000fa00ff
:103574000111200091407800f0ccb30000c060003d
:1035840010e1b70000fa200060088800710a2000ea
:1035940091407800f0c8b30000c0600001c4b300db
:1035a40001407000a7e0b70094e0a80011e1a80072
:1035b40040002000605588000080fa0000000600ea
:1035c4003600f800809fbe00829fbe00849fbe002c
:1035d400869fbe000400fa005154800080bb200086
:1035e400808f50000d0034000000eb005054880020
:1035f400d4c2bf000080fb004700de0000c0ea0028
:1036040061406000c700dd00d4c2bf000074a100a7
:1036140001407000d4e2b7000fa3a800505480000a
:103624000000e80050548800914a8000a0538000b4
:10363400614060000080fb0000804000904a8800e8
:1036440011498000a05380000000d1006140600057
:103654000080fb0000804000104988005e020700e3
:1036640004fb070060558000100798009e0090003e
:10367400e28f5000500032001e009000e20f500014
:1036840004003c009e0090000100e00008003200ad
:10369400760137001e009000e30f500073013200e2
:1036a4009e009000e48f5000550132006f013700f6
:1036b4000040eb002ee9b700a05080000000e000bd
:1036c4006a01320056c9bf00e44f500028003a0096
:1036d400914e8000803e2000808f500063013600b0
:1036e400b24e8000914e8000c0f92f00008040004f
:1036f400800f51000b0031005148800060eb27001f
:10370400808f500007003c00504880000000e80013
:10371400504888006000b8008054880091548800a4
:1037240052013700805480009154800061004000b1
:10373400e0804800805488009154880082548000be
:10374400935480000053270001002000800f510093
:10375400818f5900450134006000b800805488000e
:103764009154880020002000605588003f013700f4
:10377400b14e800030832000808f500008003e004e
:103784005148800060eb2700808f500004003c000b
:10379400504880000000e80050488800330137009a
:1037a4006000b800805488009154880020002000f4
:1037b400605588002d013700a05080000000e00013
:1037c40006003a000000eb0060558800cc62a800b7
:1037d400d4a2a9000000eb0050488800c04e80002d
:1037e40051538000810f50000b00360064cabf00a3
:1037f4000004e00008003a0010c0b30064eab70017
:10380400c04e80003053880000482800e1012000a9
:103814000053880011538800c04e8000415380003b
:10382400810f50001300360065cabf000004e00099
:1038340010003a0010c0b30065eab700c04e800023
:1038440040538800003e29004100200000538800b6
:1038540011538800ccc2bf00684060000004e0003f
:103864000400320010c0b30072eab70010c0b30005
:1038740073eab7000053800011538000e00f50003a
:10388400e08f58000600320000538000115380007e
:1038940061005000e08058000053880011538800f4
:1038a40065cabf000004e00015003200c14e80006c
:1038b400c0508000808f5000110031000053800000
:1038c40011538000e00f5000e08f58000c003200cc
:1038d4000040eb0065eab7000000eb0040538800ad
:1038e400ccc2bf00684060000004e00004003a005d
:1038f4000040eb0072eab70010c0b30073eab700ef
:1039040064cabf000004e0001300320002538000c8
:10391400135380001000200001002000800f51008c
:10392400818f59000c003a00c04e80005153800032
:10393400810f500008003600ccc2bf006840600010
:103944000004e0000400320010c0b30072eab700c3
:1039540010c0b30073eab70056c9bf00e44f50006b
:103964007f003a00914e8000803e2000808f5000fe
:103974002b003600914e8000d0922000808f5000a2
:1039840027003e00914e8000b04e80000080500021
:1039940013f407008000780020032000808f50007b
:1039a4001f003400c05480000000e800c0548800a8
:1039b400c0548000e50f500019003400b14e80005f
:1039c400904e8000808f50000800310051488000e4
:1039d40060eb2700808f50000f003c0050488000af
:1039e4000000e800504888000b003700b14e80000a
:1039f400904e8000808f50000700360051488000b0
:103a0400d0cc2000808f5000030034005048800048
:103a14000000e900504888000000eb00c054880012
:103a240073cabf000004e0001f0032000040eb0036
:103a340073eab7002ec9bf000004e000060032009c
:103a4400d4a2a80080252000010020007053880023
:103a54008153880014003700d4a2a90072cabf00a1
:103a64008040eb00114798000004e00002003a0097
:103a740010c0b300104798009e40900061c06000e1
:103a84004301dd00c12c20009140780070cfb300c9
:103a940000c0600002407000cce2b7006000b800d3
:103aa40070538800815388007053800081538000d4
:103ab400e00f5000e08f58006c003200705380001b
:103ac4008153800061005000e080580070538800ea
:103ad4008153880072538000835380004024200067
:103ae40001002000800f5100818f590010003a001e
:103af40072cabf008040eb00014f78000004e00070
:103b040002003a0010c0b300004f78009e407800d5
:103b140061c060004301dd00c12c200091407800a9
:103b240070cfb30000c0600002407000cce2b70068
:103b34007253800083538000100020000100200095
:103b4400800f5100818f590048003a00d4a2a90087
:103b54006000b80070538800815388004300370028
:103b6400b14e8000f0862000808f50000d003e0092
:103b74005148800060eb2700808f500019003c0002
:103b8400404980000000e00016003a0050488000e0
:103b94000000e80050488800803e2000404988002a
:103ba40010003700b14e8000008c2000808f500040
:103bb4000c00360051488000d0cc2000808f50008b
:103bc40008003400404980000000e00005003a008d
:103bd400504880000000e90050488800803e2000e2
:103be40040498800404980000000e0001f00320086
:103bf400404980000000e900404988001b0037006c
:103c04000000eb005048880060548000715480002c
:103c140061004000e08048006054880071548800ce
:103c2400625480007354800000a62e00010020001e
:103c3400800f5100818f59000c0036006000b800dd
:103c4400605488007154880056c9bf00e44f500086
:103c54000300320056c9bf000004e00003003a002c
:103c6400cc82a9000000eb00605588000000eb0046
:103c74003008880084e0a9000080fa004f03be00e9
:103c84004f02be004f01be004f00be003600f900d7
:043c940000400600e6
:020000040000fa
:103c980000080000d2010000020000000000c90076
:103ca800009201005b02230003ec0300b5047d00d1
:103cb800054506000d07d500079c080064092a0081
:103cc8000af10a00b60b7c000c410d00050ec90074
:103cd8000e8c0f004f10110011d3110094125400d4
:103ce80013131400d1148f00154c16000817c300c5
:103cf800177d18003719ef0019a61a005d1b12006e
:103d08001cc61c00791d2b001edc1e008b1f3900f1
:103d180020e7200092213d0022e622008e23340075
:103d280024da24007d251f0026c026005f27fd0019
:103d3800279928003429cd0029652a00fa2a8e00ff
:103d48002b212c00b22c41002dce2d005a2ee30041
:103d58002e6b2f00f12f760030f830007931f70004
:103d680031743200ee32670033de33005334c6005c
:103d780034363500a5351200367c3600e5364b0062
:103d880037af37001138710038cf38002a3983002f
:103d980039da39002f3a82003ad23a00203b6c00d7
:103da8003bb63b00fd3b42003c843c00c53c020066
:103db8003d3e3d00773dae003de23d00143e4400ef
:103dc8003e713e009c3ec5003eeb3e000e3f2f007c
:103dd8003f4e3f006a3f84003f9c3f00b13fc30015
:103de8003fd33f00e13fec003ff43f00fb3ffe00c4
:103df8003f004000e047000000e0470000000000ee
:103e080000000000000000000000000000000000aa
:103e1800000000000000000000000000000000009a
:103e2800000000000000000000000000000000008a
:103e3800000000000000000000000000000000007a
:103e4800000000000000000000000000000000006a
:103e5800000000000000000000000000000000005a
:103e6800000000000000000000000000000000004a
:103e7800000000000000000000000000000000003a
:103e8800000000000000000000000000000000002a
:103e9800000000000000000000000000000000001a
:103ea800000000000000000000000000000000000a
:103eb80000000000000000000000000000000000fa
:103ec80000000000000000000000000000000000ea
:103ed80000000000000000000000000000000000da
:103ee80000000000000000000000000000000000ca
:103ef80000000000000000000000000000000000ba
:103f08000000000000000000000000009a0a000005
:103f18000a00000000000000780a000012000000fb
:103f28000200000000000000000000000000000087
:103f380000000000b80b000000000000aa0a000002
:103f480002000000000000008a0a000010000000c3
:103f58000200000000000000000000000000000057
:103f6800000000000000000000000000ac0a000093
:103f78000200000000000000a40a00000600000083
:103f88000200000000000000000000001a0a000003
:103f98004600000000000000600a00001800000051
:103fa8000200000000000000000000000000000007
:103fb80000000000000000000000000000000000f9
:103fc80000000000d20900004800000000000000c6
:043fd80000000000e5
:020000040000fa
:103fdc000200fa00d2c2bf000044b2000004e000ac
:103fec001d0032002ec9bf000004e0001a00320090
:103ffc00e0538000f153800061004000e0804800f5
:10400c00e0538800f1538800e2538000f3538000a2
:10401c00a0a62e0001002000800f5100818f5900b6
:10402c000d0036006000b800e0538800f1538800a2
:10403c007acabf008040eb00014f78000004e0001a
:10404c0002003a0010c0b300004f78001e40780008
:10405c007aeab700746aa8002ec9bf000004e00019
:10406c000a0032005055800080007800b05080006b
:10407c00808f500005003200b05080007aeab70003
:10408c00746aa800b050800050558800e19220005e
:10409c009140780088cabf0080cf500007003200e2
:1040ac002ec9bf0088eab700d442a80080bb20000c
:1040bc0001002000205488003154880020548000d6
:1040cc0031548000e00f5000e08f58000c0032009b
:1040dc00205480003154800061005000e080580072
:1040ec0020548800315488002054800031548000c2
:1040fc00e00f5000e08f580001003a00d442a900b4
:10410c000080fa00000006000200fa006000b8000f
:10411c008054880091548800d042a900d0e2a900b4
:10412c00c862a900c882a900d0a2a900d0c2a80068
:10413c00cc62a800cc82a800d4a2a900a8000700d9
:10414c0008fd070023f8070067f60700acf6070028
:10415c001ef70700a6f60700dffa0700d4e2a80056
:10416c001000200001002000605488007154880069
:10417c00d442a9000000eb0050488800a19e20000a
:10418c0002c3b3000040eb00bbfc070050508000a2
:10419c00e20f400006003a002500070020a0200096
:1041ac008000780082c1b30060c1b300b2fc07008c
:1041bc00c050800080007800d0cc24000088b9006a
:1041cc004209dd004e00de0000007100ce88de00ea
:1041dc0050538800c05080008000780000002600fa
:1041ec000088b9004209dd004e00de0000007100bd
:1041fc00ce88de006053880030508000a0508800cc
:10420c00b05080008000eb00010f78000000e0004f
:10421c0002003a0012002000020f78001e00780005
:10422c005055880042fa07000bf70700fdff3700d6
:10423c000000fa00f0ff2700504f8800f0ff270025
:10424c00604f8800f0ff2700704f8800f0ff2700b8
:10425c00804f8800f0ff2700904f8800f0ff270068
:10426c00a04f8800f0ff2700b04f8800f0ff270018
:10427c00c04f8800f0ff2700d04f8800f0ff2700c8
:10428c00e04f8800f0ff2700f04f8800f0ff270078
:10429c00005088000080fa00000006000c00fa00b4
:1042ac0030079800410798003e009000ce00900027
:1042bc00e00f5000e08f580003003a000000eb00c4
:1042cc0050079800430037003e019000ce0190004b
:1042dc000000200001042000800f5100818f590044
:1042ec000b003e003e009000ce0090004609dd0021
:1042fc004a00de0000007100ca08de00f203200054
:10430c0003002000021f4000039748001c003700e8
:10431c003e019000ce0190000000200001802000a2
:10432c00800f5100818f59000b003e003e00900021
:10433c00ce009000c409dd004c00de00008071004e
:10434c00cc08de00f20f200003002000021f40000a
:10435c00039748000a0037003e009000ce00900002
:10436c00c209dd004e00de0000807100ce08de00c8
:10437c00f23f200003002000021f4000039748007a
:10438c000000eb00200798000d0037001e01be0056
:10439c003e009000ce0090006ff107003e014000ff
:1043ac00ae8148000200be008100d1000080d30025
:1043bc00008fbe002e0090000000e800200798003f
:1043cc002e009000e40f5000f0ff36009e017800a4
:1043dc00530798005e0090000080fa000000060071
:1043ec000000fa0090022000303a880044c7bf0059
:1043fc00f043b20044e7b7004174200091407800cc
:10440c0000ceb30000c0600044e7b70012002000eb
:10441c0081072000a0092000337420008149780016
:10442c008049780082497800120020006104200045
:10443c0070052000237420008149780080497800a1
:10444c008249780043c7bf000047b200f04f5000cc
:10445c00fcff3a0042c7bf000042b2000004e0007b
:10446c00fcff320050c7a80051a7a80051c7bf00dd
:10447c007040b30051e7b70051e7a80051c7bf0027
:10448c000044b2000004e000fcff32000080fa009f
:04449c000000060016
:00000001FF
